:020000040000fa
:080000000002040000000000f2
:020000040000fa
:04000800e80200000a
:020000040000fa
:04000c00e802000006
:020000040000fa
:04001000e802000002
:020000040000fa
:04001400e8020000fe
:020000040000fa
:04001800e8020000fa
:020000040000fa
:04001c00e8020000f6
:020000040000fa
:04002000e8020000f2
:020000040000fa
:04002400e8020000ee
:020000040000fa
:04002800e8020000ea
:020000040000fa
:04002c00e8020000e6
:020000040000fa
:04003000e8020000e2
:020000040000fa
:04003400c8020000fe
:020000040000fa
:04003800e8020000da
:020000040000fa
:04003c00e8020000d6
:020000040000fa
:04004000e8020000d2
:020000040000fa
:04004400e0020000d6
:020000040000fa
:04004800e8020000ca
:020000040000fa
:04004c00e8020000c6
:020000040000fa
:04005000e8020000c2
:020000040000fa
:04005400b2080000ee
:020000040000fa
:04005800ea080000b2
:020000040000fa
:04005c00b40a0000e2
:020000040000fa
:04006000e8020000b2
:020000040000fa
:04006400e8020000ae
:020000040000fa
:04006800e8020000aa
:020000040000fa
:04006c00e8020000a6
:020000040000fa
:04007000e8020000a2
:020000040000fa
:04007400e80200009e
:020000040000fa
:04007800e80200009a
:020000040000fa
:04007c00e802000096
:020000040000fa
:04008000e802000092
:020000040000fa
:04008400e80200008e
:020000040000fa
:04008800e80200008a
:020000040000fa
:04008c00e802000086
:020000040000fa
:04009000e802000082
:020000040000fa
:04009400e80200007e
:020000040000fa
:04009800e80200007a
:020000040000fa
:04009c00e802000076
:020000040000fa
:0400a000e802000072
:020000040000fa
:0400a400e80200006e
:020000040000fa
:0400a800e80200006a
:020000040000fa
:0400ac00e802000066
:020000040000fa
:0400b000e802000062
:020000040000fa
:0400b400e80200005e
:020000040000fa
:0400b800e80200005a
:020000040000fa
:0400bc00e802000056
:020000040000fa
:0400c000e802000052
:020000040000fa
:0400c400e80200004e
:020000040000fa
:0400c800e80200004a
:020000040000fa
:0400cc00e802000046
:020000040000fa
:0400d000e802000042
:020000040000fa
:0400d400e80200003e
:020000040000fa
:0400d800e80200003a
:020000040000fa
:0400dc00e802000036
:020000040000fa
:0400e000e802000032
:020000040000fa
:0400e400e80200002e
:020000040000fa
:0400e800e80200002a
:020000040000fa
:0400ec00e802000026
:020000040000fa
:0400f000e802000022
:020000040000fa
:0400f400e80200001e
:020000040000fa
:0400f800e80200001a
:020000040000fa
:0400fc00e802000016
:020000040000fa
:04010000e802000011
:020000040000fa
:04010400e80200000d
:020000040000fa
:04010800e802000009
:020000040000fa
:04010c00e802000005
:020000040000fa
:04011000e802000001
:020000040000fa
:04011400e8020000fd
:020000040000fa
:04011800e8020000f9
:020000040000fa
:04011c00e8020000f5
:020000040000fa
:04012000e8020000f1
:020000040000fa
:04012400e8020000ed
:020000040000fa
:04012800e8020000e9
:020000040000fa
:04012c00e8020000e5
:020000040000fa
:04013000e8020000e1
:020000040000fa
:04013400e8020000dd
:020000040000fa
:04013800e8020000d9
:020000040000fa
:04013c00e8020000d5
:020000040000fa
:04014000e8020000d1
:020000040000fa
:04014400e8020000cd
:020000040000fa
:04014800e8020000c9
:020000040000fa
:04014c00e8020000c5
:020000040000fa
:04015000e8020000c1
:020000040000fa
:04015400e8020000bd
:020000040000fa
:04015800e8020000b9
:020000040000fa
:04015c00e8020000b5
:020000040000fa
:04016000e8020000b1
:020000040000fa
:04016400e8020000ad
:020000040000fa
:04020800e802000008
:020000040000fa
:04020c00e802000004
:020000040000fa
:04021000e802000000
:020000040000fa
:04021400e8020000fc
:020000040000fa
:04021800e8020000f8
:020000040000fa
:04021c00e8020000f4
:020000040000fa
:04022000e8020000f0
:020000040000fa
:04022400e8020000ec
:020000040000fa
:04022800e8020000e8
:020000040000fa
:04022c00e8020000e4
:020000040000fa
:04023000e8020000e0
:020000040000fa
:04023400e8020000dc
:020000040000fa
:04023800e8020000d8
:020000040000fa
:04023c00e8020000d4
:020000040000fa
:04024000e8020000d0
:020000040000fa
:04024400e8020000cc
:020000040000fa
:04024800e8020000c8
:020000040000fa
:04024c00e8020000c4
:020000040000fa
:04025000e8020000c0
:020000040000fa
:04025400e8020000bc
:020000040000fa
:04025800e8020000b8
:020000040000fa
:04025c00e8020000b4
:020000040000fa
:04026000e8020000b0
:020000040000fa
:04026400e8020000ac
:020000040000fa
:04026800e8020000a8
:020000040000fa
:04026c00e8020000a4
:020000040000fa
:04027000e8020000a0
:020000040000fa
:04027400e80200009c
:020000040000fa
:04027800e802000098
:020000040000fa
:04027c00e802000094
:020000040000fa
:04028000e802000090
:020000040000fa
:04028400e80200008c
:020000040000fa
:04028800e802000088
:020000040000fa
:04028c00e802000084
:020000040000fa
:04029000e802000080
:020000040000fa
:04029400e80200007c
:020000040000fa
:04029800e802000078
:020000040000fa
:04029c00e802000074
:020000040000fa
:0402a000e802000070
:020000040000fa
:0402a400e80200006c
:020000040000fa
:0402a800e802000068
:020000040000fa
:0402ac00e802000064
:020000040000fa
:0402b000e802000060
:020000040000fa
:0402b400e80200005c
:020000040000fa
:0402b800e802000058
:020000040000fa
:0402bc00e802000054
:020000040000fa
:0402c000e802000050
:020000040000fa
:0402c400e80200004c
:020000040000fa
:0402c800e802000048
:020000040000fa
:0402cc00e802000044
:020000040000fa
:0402d000e802000040
:020000040000fa
:0402d400e80200003c
:020000040000fa
:0402d800e802000038
:020000040000fa
:0402dc00e802000034
:020000040000fa
:0402e000e802000030
:020000040000fa
:0402e400e80200002c
:020000040000fa
:0402e800e802000028
:020000040000fa
:0402ec00e802000024
:020000040000fa
:0402f000e802000020
:020000040000fa
:0402f400e80200001c
:020000040000fa
:0402f800e802000018
:020000040000fa
:0402fc00e802000014
:020000040000fa
:04030000e80200000f
:020000040000fa
:04030400e80200000b
:020000040000fa
:04030800e802000007
:020000040000fa
:04030c00e802000003
:020000040000fa
:04031000e8020000ff
:020000040000fa
:04031400e8020000fb
:020000040000fa
:04031800e8020000f7
:020000040000fa
:04031c00e8020000f3
:020000040000fa
:04032000e8020000ef
:020000040000fa
:04032400e8020000eb
:020000040000fa
:04032800e8020000e7
:020000040000fa
:04032c00e8020000e3
:020000040000fa
:04033000e8020000df
:020000040000fa
:04033400e8020000db
:020000040000fa
:04033800e8020000d7
:020000040000fa
:04033c00e8020000d3
:020000040000fa
:04034000e8020000cf
:020000040000fa
:04034400e8020000cb
:020000040000fa
:04034800e8020000c7
:020000040000fa
:04034c00e8020000c3
:020000040000fa
:04035000e8020000bf
:020000040000fa
:04035400e8020000bb
:020000040000fa
:04035800e8020000b7
:020000040000fa
:04035c00e8020000b3
:020000040000fa
:04036000e8020000af
:020000040000fa
:04036400e8020000ab
:020000040000fa
:100400002fdb20000e7f24000e018800000000007a
:10041000000020000000e000020032000001200087
:1004200020028800140007006b0007000000e000b5
:1004300003003a0000cf2000010020000200370036
:100440000000200001002000810f70000100320038
:1004500014000700000020000000e000020032004d
:100460000000020000000000820d020000000000f9
:100470000040da000000fe004440a9000000200017
:100480000000e0000300320000002000a00188000e
:100490004440a800000006008a1f78008b1f7800e7
:1004a0000000060091018800800478000000eb0045
:1004b0001a003700e284440032a0b4009905ba0063
:1004c000e284440032a0b4009906ba00e2844400f9
:1004d00032a0b4000006eb00476fde00fd07b2005b
:1004e000636ce10003003a00ebff07000000eb0043
:1004f0000a003700606ce10004003a00005deb0088
:100500008b05e900fdff3e00040037006168e10053
:10051000010032000086eb000b00070019c7ba008b
:100520001905ba000e04e00003003a000a00e000da
:10053000e0ff3a0000000600fe07b2009e018800be
:100540008a047800f5ff3700395dba008b05e900b1
:100550000c003200295dba008b05e900080032006a
:100560000c00e00003003a00e284440032a0b40032
:10057000f5ff370019ddba008b05e900faff3a00f4
:100580008904e800e184440032a0b40000000600c1
:10059000801f78000000fa00a04080000000e80002
:1005a000a0408800b04080000000e800b040880013
:1005b0008460a9000080fa004f0078000040060027
:1005c0000000fa0084e0a9000080fa000040060064
:1005d0000040da000000fe00000005008001780005
:1005e00002003700815978000201e9000200e000b2
:0805f000fcff3a0000000600c8
:020000040000fa
:1005f8005000fa0000cf980011cf980022cf980041
:1006080033cf980064279800752798000000eb0006
:10061800000f780005003700670047001e00400003
:100628008040eb00014878001e0fe8001e007800ab
:10063800fd0f5000f8ff36007e2090000040780043
:1006480065404000704798009ec89000014f980090
:10065800aec89000114f9800bec89000214f980076
:100668007e20900000407800304f98000040eb005a
:1006780020479800500020002007980010003700fd
:100688002e4090000080fb0065004000ae409000c6
:100698008180fb006e21900081004100914078002c
:1006a80000004700714098002e0090000000e8000c
:1006b800200798002e4090000040e800204798004e
:1006c8002e4090008080fb007e209000808f50009c
:1006d800ebff39002e00900080407800670047004b
:1006e800a700070060479800e70047002e00900029
:1006f80000804000ee409000014878002e009000f5
:100708000000e80020079800ae0190004004200097
:100718000e00400067014700510220008e80400013
:100728000302780082017800e2012000c600070079
:100738008ec890007147980010c0b30020479800f9
:100748000c0037002e4090000080fb00ae40900067
:100758008180fb008100e90081004700d1609000a2
:1007680000004700714098002e4090000040e800cb
:10077800204798002e4090008080fb002e2090009b
:100788000000e800808f5000eeff39000040eb00c9
:1007980020479800080037002e4090000080fb009a
:1007a80000004700704090005d0207002e40900056
:1007b8000040e800204798002e4090008080fb0011
:1007c8002e2090000080e800808f5000f2ff390052
:1007d8000080fa00000006000800fa004602070040
:1007e800e50f50003c00340048020700e24f50007b
:1007f80039003a000000eb00000f78000040eb00e1
:10080800204798004102070020479800ae4090001a
:10081800c0b520001e0040000148780000c2210039
:1008280001002000cb0407001e0fe8002e409000b6
:100838000004e000f3ff3a009e017800c2b52000f2
:10084800a1b7200064004700030278008201780005
:10085800e2012000fa0007002e0090000040780016
:100868008040e900a0b72000450007003047980005
:100878002e0090000000e900a1b720006140780038
:100888008000fb003e4090000080fb00808f5000fd
:1008980011003a00601680004900de0061406000e7
:1008a8000004a200614060000080fb00610060005d
:1008b8004900dd00611680000190a1000100700070
:1008c80060168800ae009000a0b720000500070061
:1008d80010c0b300010037000040eb000080fa00b0
:1008e800000006000c00fa00400798005107980025
:1008f8004e0090000000e80010407800e14f5000e2
:100908001d003a004e00900064004000104178003d
:100918004e00900063004000904078004e00900028
:100928000080e80010407800824178000e017800cd
:1009380068030700d502a80050002000c402070081
:100948004e00900064004000104078000080fb00da
:10095800800278000e02780013c0b30022c0b300f2
:1009680021c0b30010c0b30021ff070050002000d1
:10097800b7020700d502a9000080fa0000000600af
:100988000800fa0020079800614798000040eb0033
:10099800004f78001f0037002e009000904078002c
:1009a800114798002e0090000000e80020079800ea
:1009b80080c0b30020479800130037001e40900005
:1009c8001e40680061406000304798001e80fb00b0
:1009d8000000d100004f78003e4090000004e00085
:1009e80002003200c0c8b3001e4f68001e409000cd
:1009f8000080fb000000d100104798002e409000b6
:100a08000040e900204798002e4090000004e000d4
:100a1800eaff3a006e4090000080fb000000ea0008
:100a28004f00de0000407800ee4090008140e90071
:100a3800614798000004e000d7ff3a001e407800a4
:100a48000080fa00000006001800fa00010f980064
:100a5800120f9800230f9800340f98008000eb00c5
:100a6800610798008000eb00710798002e0990003c
:100a7800be08900081004100310798000e099000df
:100a88009e08900081004100410798008e08900060
:100a9800010f78009e00e800110798008040eb00e5
:100aa800214f980011c0b300414798008e0890006c
:100ab8000100e00003003200ae0890000100e000f1
:100ac80006003a0011002000710798006e0190009e
:100ad800fe0190000288be0057003700be08900053
:100ae8000100e00040003200030037000000000071
:100af80001003700000000001e019000ce009000a9
:100b0800810f510004003900fe0090000110a00080
:100b18007107980034003700ae08900091417800c2
:100b2800234f9800ae0890008100e800210f98003c
:100b3800ae4890000104e0000f003a009e007800e3
:100b48004e419000824878009e019000030f780083
:100b58009e0090008100e8001107980011c0b300c2
:100b6800414798002e099000be009000810f510067
:100b7800deff39001c0037009e0090002e499000cf
:100b8800824878009e0090008100e80011079800d4
:100b9800ce4090008140e800414798002e0990001f
:100ba800be009000810f51000e003100ce40900031
:100bb800e1cf4000cfff3a009e007800ce41900080
:100bc800834878009e009000010f78009e009000f6
:100bd8008100e8001107980011c0b3004147980050
:100be800c5ff370000000000ce0090001e0178000d
:100bf800810f510006003900fe0090000110a0008e
:100c0800710798004e019000120798000300370002
:100c18009e007800ce419000834878001e01900025
:100c28008e08900081005100610798006e019000c5
:100c3800fe0190000288be000080fa000000060055
:100c48001800fa00010f9800120f9800230f98005f
:100c5800340f98008000eb00610798008000eb00db
:100c6800710798002e099000be089000810041008d
:100c7800210798000e0990009e089000810041000d
:100c8800310798008e089000010f78008e089000b8
:100c98000100e00003003200ae0890000100e0000f
:100ca80006003a0011002000710798006e019000bc
:100cb800fe0190000288be0066003700be08900062
:100cc8000100e0005c003200010037000000000075
:100cd800ae0890009141780033479800ae08900024
:100ce8008100e800210f9800be4090000104e00058
:100cf80004003a00fe0090000120a000710798004f
:100d08004d003700be4090008140e900314798000f
:100d18002e019000ae089000810051004107980014
:100d2800be4090000181fb00ce009000810f510071
:100d380005003600fe0090000130a0007107980001
:100d4800ce009000314798003e0190009e00780048
:100d58008100510041079800be4090000181fb00ce
:100d6800ce009000810f510005003600fe00900073
:100d78000110a00071079800ce009000314798003c
:100d8800be4090002147980013003700ae0890003d
:100d980011417800224f9800ae0890008100e800c9
:100da800210f9800ae4890000104e00003003a00cb
:100db800fe0090000120a000710798009e007800b6
:100dc800ae499000834878001e0fe800ae409000be
:100dd8008140e90021479800ae4090000104e000fe
:100de800eaff3a002e099000ae009000810f5100f2
:100df80010003100be409000e2cf4000b3ff320047
:100e0800be0090001e017800810f510004003900d7
:100e1800fe0090000110a00071079800060037003e
:100e28009e0078000041eb00824878001e0fe80021
:100e3800a7ff3700000000001e0178008e08900010
:100e480081005100610798006e019000fe0190003a
:100e58000288be000080fa00000006000000fa00c8
:100e68002002a9000111800090ff2f00008060007f
:100e78000011880020a2a9009003200040118800da
:100e880011118000f0f32f00008060000060a000c6
:100e98001011880011118000f0f32f00008060000d
:100ea800101188008560a9008580a9009560a800b8
:100eb8009580a8004082200006000700208f2000af
:100ec8000400070021e2a8002342a8000080fa00dd
:100ed800000006000200fa00000f7800e20c200073
:100ee8008000eb001e007800bafd07000080fa00c1
:100ef800000006000400fa00000f7800214798005f
:100f08001e007800e0a09000700c2000808f500038
:100f180012003c001e00780040a090009e0078005f
:100f28002e419000827078001e00780040a090004a
:100f3800810c200055000700800078001e00780012
:100f480041a098001e00780060a090008000e80092
:100f58001e00780061a09800130037001e0078007a
:100f680040a090009e0078002e419000827078008a
:100f78001e00780040a09000810c2000430007006c
:100f8800800078001e00780041a098001e007800bc
:100f980050a09000810c20003c00070080007800e1
:100fa8001e00780051a098000080fa00000006009a
:100fb8000400fa00100798001e00900060a090003e
:100fc8000000e000110034001e00900050a09000c6
:100fd8009e009000614f78001e00900050a0900085
:100fe800810c200029000700800078001e00900076
:100ff80051a098001e00900060a090008000e900b9
:101008001e00900061a09800020037000040eb002d
:10101800004f78001e4078000080fa0000000600ab
:101028000400fa00000f7800110798001e007800ed
:101038008000eb0061a098001e0078008000eb00a3
:1010480041a098001e0078008000eb0051a0980095
:101058001e0090000000e000040032001e0078002e
:10106800820c20008000eb005afd07000080fa0087
:10107800000006000200fa00000f78001e00780049
:1010880060a090000080fa00000006000600fa0048
:1010980010079800210798001e009000000fe80034
:1010a8002e0090009e007800808f500002003900ca
:1010b8000000eb00000f78001e0078000080fa00a6
:1010c800000006000200fa00000f78001e007800f9
:1010d80050a090009e007800614078000080fa00df
:1010e800000006000000fa0040822000f5ff07001b
:1010f8000080fa00000006000000fa00408220008c
:10110800dcff07000080fa00000006000000fa007b
:1011180040822000a6ff07000080fa0000000600b9
:101128000200fa00004f78009e407800208f2000cf
:1011380070ff070020c8bf000004e000050032006f
:101148002068ef00208f200099ff07000080fb0037
:10115800201188000080fa00000006003600f80020
:10116800809fbe00829fbe00849fbe00869fbe00f7
:101178000200fa0010118000620060000000e00028
:10118800010032002222a9001011800061006000d5
:101198000000e0000500320030118000004f7800a8
:1011a8009e4078004082200052ff07008560a90019
:1011b8000080fa004f03be004f02be004f01be0080
:1011c8004f00be003600f900004006003600f80067
:1011d800809fbe00829fbe00849fbe00869fbe0087
:1011e8000000fa00208f2000a2ff07000000e000a6
:1011f80005003400208f20006dff07000080fb00f1
:10120800201188000200370010c0b30020e8b700a2
:101218008580a9000080fa004f03be004f02be007f
:101228004f01be004f00be003600f9000040060026
:101238000000fa0051000700213a800000fe2f004c
:1012480000806000203a8800213a8000f0ff2800e2
:1012580000806000203a880060012000303a880051
:10126800213a8000f0f32f0000806000203a8800c7
:101278003200200080072000a109200033742000dc
:10128800804978008149780082497800103a8000c6
:10129800000178000200a000600420007105200011
:1012a80023742000804978008149780082497800b9
:1012b80000000000113a80000000270080806000d4
:1012c80000002300808f5000faff3a000000000061
:1012d800113a800000022000008060000000e00059
:1012e800fbff320081e0a800050007006700070047
:1012f800dafe0700e70107000080fa000000060098
:101308000000fa0005e1a9000421a90021088000d5
:10131800f0fc2f00008060000050a000200888002a
:10132800a0242000100888008460a9009460a80008
:1013380005e1a8000080fa00000006000000fa009d
:101348001061a90011e1a9001021a90010c1a9008c
:1013580081088000000320000100700080088800d8
:10136800005327006008880084e0a90094e0a800e2
:1013780011e1a8000080fa00000006000000fa0051
:10138800c922a900cb22a800d102a900d502a90030
:10139800d0c2a800d4c2a800c002a800c022a800d9
:1013a800c842a800d502a900113a8000f00b20001d
:1013b8000081600060042000710520002374200073
:1013c800804978008149780082497800b1368000e8
:1013d800f00f2e00808060000030200001007000b7
:1013e800b03688002135800000fe2f0000806000a4
:1013f8006001b300203588003135800000fe2f00e1
:10140800008060000030a000303588003136800050
:10141800f00f2e0080806000005020000100700056
:1014280030368800103a8000000178000260a00081
:101438006004200071052000237420008049780092
:1014480081497800824978000080fa00000006008f
:101458000400fa00100798000000eb00000f780065
:101468000400370000ca280001002000b901070065
:101478001e0fe8001e0090009e007800808f50002c
:10148800f8ff35000080fa00000006000000fa00ae
:10149800001980002023ef00001980002223ef00ac
:1014a800001980002423ef00001980003223ef0088
:1014b80021a3a90001198000f0cf2f00008060004f
:1014c8000019880001198000000e2000010070003a
:1014d800001988002143a8002063a9001119800081
:1014e80000002e0001007000101988002223a900b6
:1014f80011198000f0cf2f000080600010198800bb
:1015080025e3a900f0c3b30024e3b7004119800024
:1015180000fe2f00008060004019880028e3a90021
:101528001119800030fc2f0000806000101988001d
:1015380000fc2f00601988002823ef00f00320002a
:101548008019880085a0a90095a0a80021e3a8001b
:101558002003a9002023a8000080fa00000006004c
:10156800809fbe00821f78000000fa0000c8bf00fc
:101578000004a2000004e00009003200804080005e
:101588000118800000014000c0ba2000000041009e
:1015980001087800804080000000e8008040880052
:1015a80080408000e40f500003003a0010c0b300f0
:1015b80000e8b7001028ef008040800081bb2000c1
:1015c800614078007f4060000080fb007f00600081
:1015d8004219800001fe2f008100610001007000a7
:1015e800401988002023a80085a0a9000080fa00df
:1015f8004f0178004f00be00004006000000fa00ce
:10160800625d8000104080006300b900000078002f
:10161800000041004200de0010408800725d80003a
:10162800204080006300b9000000780000004100fd
:101638004200de0020408800825d8000304080004b
:101648006300b90000007800000041004200de009d
:1016580030408800925d8000404080006300b900ff
:1016680000007800000041004200de004040880091
:101678000080fa00000006000200fa00000f78005f
:101688001e007800e10f500009003200e10f500001
:1016980005003900e20f500007003200e30f500048
:1016a80007003200080037001040800007003700ac
:1016b80020408000050037003040800003003700dc
:1016c80040408000010037000080eb000080fa00f5
:1016d800000006000a00fa004047980051479800a9
:1016e80032079800034f98000040eb00004f780045
:1016f8000040eb00204798000040eb00104798009e
:101708004e4090000080fb000000e0000300320023
:10171800e20f50001a00320032003700de4090001d
:101728000e48900000c04000204798000f00370086
:101738001e4090000080fb00be009000008040002a
:10174800de4090008180fb0082b92000e2c0780072
:10175800014878001e4090000040e80010479800bb
:101768005e4090000040e80050479800de4090003e
:101778002e40900080cf5000edff39001b0037004d
:10178800de4090000e48900000c0400020479800be
:101798000f0037001e4090000080fb00be00900044
:1017a80000804000de4090008180fb0042ba2000ab
:1017b800e2c07800014878001e4090000040e80030
:1017c800104798005e4090000040e800504798009d
:1017d800de4090002e40900080cf5000edff390091
:1017e8000200370000c0eb00004f78001e40780070
:1017f8000080fa00000006000a00fa00404798003e
:101808005147980032079800034f98000040eb00ba
:10181800004f78000040eb00204798000040eb00a4
:10182800104798004e4090000080fb000000e00048
:1018380003003200e20f50001a0032003200370075
:10184800de4090000e48900000c0400020479800fd
:101858000f0037005e4090000080fb009e40900023
:101868008180fb003e019000810041001141780019
:1018780081b92000827078001e4090000040e80086
:10188800104798005e4090000040e80050479800dc
:10189800de4090002e40900080cf5000edff3900d0
:1018a8001b003700de4090000e48900000c040004a
:1018b800204798000f0037005e4090000080fb0032
:1018c8009e4090008180fb003e0190008100410015
:1018d8001141780041ba2000827078001e409000c3
:1018e8000040e800104798005e4090000040e80083
:1018f80050479800de4090002e40900080cf500066
:10190800edff39000200370000c0eb00004f7800ff
:101918001e4078000080fa00000006000800fa0067
:10192800adfb07000000e000290032000000eb00da
:1019380051ff070000407800004f78000000eb00de
:101948004dff07004800de0000407800104798006f
:101958001000200048ff070000407800204798004a
:101968001000200044ff07004800de000040780017
:1019780030479800200020003fff07000040780013
:1019880040479800200020003bff07004800de0089
:1019980000407800504798003000200036ff0700cc
:1019a80000407800604798003000200032ff0700b0
:1019b8004800de000040780070479800830020004f
:1019c8000e01780011002000200020008aff070087
:0819d8000080fa000000060087
:020000040000fa
:1019e000120800000800000000000000b80b000012
:1019f00004000000020000000405000001000000d7
:101a0000ac0b00000c000000000000001e080000ed
:101a100002000000020000000100000000080000b9
:101a20001200000000000000240800009c010000db
:101a3000000000002008000002000000000000007c
:101a4000c00900009c010000000000002208000006
:101a50000200000002000000010000005c0b00001a
:101a60003c000000000000001a0800000400000014
:101a7000020000001e001e0000000000980b000085
:101a80001400000000000000bc0b00000200000079
:0c1a900002000000010000000000000047
:020000040000fa
:101a9c000000fa003002a9008111800090ff2f0095
:101aac00008060008011880030a2a9009003200003
:101abc00c011880091118000f0f32f0000806000ad
:101acc000060a0009011880091118000f0f32f00ad
:101adc00008060009011880087c0a90087e0a900f1
:101aec0031e2a8003342a80020002000e05d88000d
:101afc000080fa00000006000000fa00cbfd070091
:101b0c00cd22a800010037000000000008000700eb
:101b1c0081ff070000c8bf000004e000faff32009c
:101b2c00b5fe07000068ef0095a0a800f7ff37008e
:101b3c000000fa00a1408000803e2000808f500001
:101b4c00010036001428ef000080fa0000000600a7
:020000040000fa
:101b5c00f03fb1000180b10006003500ee03090032
:101b6c0000000000403fb1000180b100fbff3d00d0
:101b7c001000b000203fb0000200350000800900ca
:081b8c0000000000000006004b
:020000040000fa
:0200000401f009
:04000000ffff0000fe
:020000040000fa
:0200000401f009
:04000400ffff0000fa
:020000040000fa
:0200000401f009
:04000800ffff0000f6
:020000040000fa
:0200000401f009
:04000c008000000070
:020000040000fa
:0200000401f009
:0400100002000000ea
:020000040000fa
:0200000401f009
:040014005f00000089
:020000040000fa
:0200000401f009
:04001800f7000000ed
:020000040000fa
:0200000401f009
:04001c00deff000003
:00000001FF
