:0400000056EF00F0C7
:100008004282FACF0FF0FBCF10F0E9CF11F0EACF20
:1000180012F0E1CF13F0E2CF14F0D9CF15F0DACF18
:1000280016F0F3CF17F0F4CF18F0F6CF19F0F7CF9A
:100038001AF0F8CF1BF0F5CF1CF09DBA9EAA03D09A
:100048008DEC10F011D09DB89EA803D099EC0FF05C
:100058000BD09DBC9EAC03D027EC11F005D09DB011
:100068009EA002D080EC0FF01CC0F5FF1BC0F8FF6B
:100078001AC0F7FF19C0F6FF18C0F4FF17C0F3FF46
:1000880016C0DAFF15C0D9FF14C0E2FF13C0E1FFA4
:1000980012C0EAFF11C0E9FF10C0FBFF0FC0FAFF52
:1000A80042921100E5EF0DF00E6E0E04D8A488D030
:1000B800000E026E010E016E000E046E040E036E39
:1000C800000E066E010E056E69EC0EF0000E026E53
:1000D800010E016E000E046E030E036E000E066E16
:1000E800000E056E69EC0EF0000E026E010E016E38
:1000F800000E046E020E036E000E066E000E056EF4
:1001080069EC0EF0000E026E020E016E000E046E17
:10011800040E036E000E066E000E056E69EC0EF0FE
:10012800000E026E020E016E000E046E030E036EC8
:10013800000E066E000E056E69EC0EF0000E026EE3
:10014800020E016E000E046E020E036E000E066EA5
:10015800000E056E69EC0EF0000E026E030E016EC5
:10016800000E046E040E036E000E066E000E056E81
:1001780069EC0EF0000E026E030E016E000E046EA6
:10018800030E036E000E066E000E056E69EC0EF08F
:10019800000E026E030E016E000E046E020E036E58
:1001A800000E066E000E056E69EC0EF020EC11F0E4
:1001B800170ECAEC0FF001C0D1F002C0D2F0120045
:1001C800020E0E18D8A488D0000E026E010E016E21
:1001D800000E046E040E036E000E066E000E056E11
:1001E80069EC0EF0000E026E010E016E000E046E38
:1001F800030E036E000E066E000E056E69EC0EF01F
:10020800000E026E010E016E000E046E020E036EE9
:10021800000E066E000E056E69EC0EF0000E026E02
:10022800020E016E000E046E040E036E000E066EC2
:10023800010E056E69EC0EF0000E026E020E016EE4
:10024800000E046E030E036E000E066E010E056EA0
:1002580069EC0EF0000E026E020E016E000E046EC6
:10026800020E036E000E066E000E056E69EC0EF0AF
:10027800000E026E030E016E000E046E040E036E75
:10028800000E066E000E056E69EC0EF0000E026E92
:10029800030E016E000E046E030E036E000E066E52
:1002A800000E056E69EC0EF0000E026E030E016E74
:1002B800000E046E020E036E000E066E000E056E32
:1002C80069EC0EF020EC11F0160ECAEC0FF001C02C
:1002D800CBF002C0CCF01200030E0E18D8A488D0C0
:1002E800000E026E010E016E000E046E040E036E07
:1002F800000E066E000E056E69EC0EF0000E026E22
:10030800010E016E000E046E030E036E000E066EE3
:10031800000E056E69EC0EF0000E026E010E016E05
:10032800000E046E020E036E000E066E000E056EC1
:1003380069EC0EF0000E026E020E016E000E046EE5
:10034800040E036E000E066E000E056E69EC0EF0CC
:10035800000E026E020E016E000E046E030E036E96
:10036800000E066E000E056E69EC0EF0000E026EB1
:10037800020E016E000E046E020E036E000E066E73
:10038800000E056E69EC0EF0000E026E030E016E93
:10039800000E046E040E036E000E066E010E056E4E
:1003A80069EC0EF0000E026E030E016E000E046E74
:1003B800030E036E000E066E000E056E69EC0EF05D
:1003C800000E026E030E016E000E046E020E036E26
:1003D800000E066E000E056E69EC0EF020EC11F0B2
:1003E800100ECAEC0FF001C0C9F002C0CAF012002A
:1003F800040E0E18D8A488D0000E026E010E016EED
:10040800000E046E040E036E000E066E010E056EDD
:1004180069EC0EF0000E026E010E016E000E046E05
:10042800030E036E000E066E010E056E69EC0EF0EB
:10043800000E026E010E016E000E046E020E036EB7
:10044800000E066E000E056E69EC0EF0000E026ED0
:10045800020E016E000E046E040E036E000E066E90
:10046800000E056E69EC0EF0000E026E020E016EB3
:10047800000E046E030E036E000E066E000E056E6F
:1004880069EC0EF0000E026E020E016E000E046E94
:10049800020E036E000E066E000E056E69EC0EF07D
:1004A800000E026E030E016E000E046E040E036E43
:1004B800000E066E000E056E69EC0EF0000E026E60
:1004C800030E016E000E046E030E036E000E066E20
:1004D800000E056E69EC0EF0000E026E030E016E42
:1004E800000E046E020E036E000E066E000E056E00
:1004F80069EC0EF020EC11F0170ECAEC0FF001C0F9
:10050800CFF002C0D0F01200050E0E18D8A488D083
:10051800000E026E010E016E000E046E040E036ED4
:10052800000E066E000E056E69EC0EF0000E026EEF
:10053800010E016E000E046E030E036E000E066EB1
:10054800000E056E69EC0EF0000E026E010E016ED3
:10055800000E046E020E036E000E066E000E056E8F
:1005680069EC0EF0000E026E020E016E000E046EB3
:10057800040E036E000E066E010E056E69EC0EF099
:10058800000E026E020E016E000E046E030E036E64
:10059800000E066E000E056E69EC0EF0000E026E7F
:1005A800020E016E000E046E020E036E000E066E41
:1005B800000E056E69EC0EF0000E026E030E016E61
:1005C800000E046E040E036E000E066E000E056E1D
:1005D80069EC0EF0000E026E030E016E000E046E42
:1005E800030E036E000E066E000E056E69EC0EF02B
:1005F800000E026E030E016E000E046E020E036EF4
:10060800000E066E000E056E69EC0EF020EC11F07F
:10061800160ECAEC0FF001C0CDF002C0CEF01200E9
:10062800060E0E18D8A41200000E026E010E016EFE
:10063800000E046E040E036E000E066E000E056EAC
:1006480069EC0EF0000E026E010E016E000E046ED3
:10065800030E036E000E066E000E056E69EC0EF0BA
:10066800000E026E010E016E000E046E020E036E85
:10067800000E066E000E056E69EC0EF0000E026E9E
:10068800020E016E000E046E040E036E000E066E5E
:10069800000E056E69EC0EF0000E026E020E016E81
:1006A800000E046E030E036E000E066E000E056E3D
:1006B80069EC0EF0000E026E020E016E000E046E62
:1006C800020E036E000E066E000E056E69EC0EF04B
:1006D800000E026E030E016E000E046E040E036E11
:1006E800000E066E010E056E69EC0EF0000E026E2D
:1006F800030E016E000E046E030E036E000E066EEE
:10070800010E056E69EC0EF0000E026E030E016E0E
:10071800000E046E020E036E000E066E000E056ECD
:1007280069EC0EF020EC11F0100ECAEC0FF001C0CD
:10073800C7F002C0C8F01200000120EE01F0BA5163
:10074800D926BB51DA22DE04D8A457D0000120EE06
:1007580003F0BA51D926BB51DA22DF501D6EE60EDE
:100768001E6E010E1F6E000120EE04F0BA51D9264C
:10077800BB51DA22DF50206E000120EE02F0BA51A0
:10078800D926BB51DA22DF507AEC0BF08B8A050EA2
:100798001D6E000E1E6E000E1F6E000E206EDAEC2F
:1007A8000EF0020E00016D6F010E00016E6F010E5A
:1007B80000016F6FE60E0001706F010E0001716F8E
:1007C800000120EE04F0BA51D926BB51DA22DF50DD
:1007D8000001BE6F0001BE510001726F736B010E04
:1007E80096EC04F0030E1D6E000E1E6E000E1F6EBA
:1007F800000E206EDAEC0EF08B9A000120EE01F06C
:10080800BA51D926BB51DA22020EDE18D8A412003A
:10081800000E0101EE6F21D00101EE510001BE6F03
:10082800BF6B050E0001BE27000EBF230001BE519D
:100838000001BA25D96E0001BF510001BB21DA6E53
:100848000101EE51010DE20EF324E16E010EF420D8
:10085800E26EDFCFE7FF0101EE2B000120EE04F08E
:10086800BA51D926BB51DA22DE500101EE5DD8A07B
:10087800D3D7000120EE03F0BA51D926BB51DA22B2
:10088800DF501D6EE20E1E6E010E1F6E000120EE7F
:1008980004F0BA51D926BB51DA22DF50206E00018C
:1008A80020EE02F0BA51D926BB51DA22DF502EECE5
:1008B8000BF0020E1D6EEA0E1E6E010E1F6E010E6B
:1008C800206E040E7AEC0BF08B8A020E1D6E000E61
:1008D8001E6E000E1F6E000E206EDAEC0EF0020E79
:1008E80000016D6F040E00016E6F020E00016F6F44
:1008F800EA0E0001706F010E0001716F000E000119
:10090800736F010E726F010E96EC04F0050E1D6EEA
:10091800000E1E6E000E1F6E000E206EDAEC0EF03A
:100928008B9A12000001B06F000E0001B66F000E26
:10093800B56F0001B65113E11E0E0001B55DD8B0C8
:100948000ED0920E0001B525D96E000E0001B62119
:10095800DA6E000EDF6E0001B54BB62BEAD7000148
:100968007251050F0001926F6DC093F06EC094F044
:100978006FC095F072C096F0000E0001B96F000EBE
:100988000001B86F050EB76F20D00001B951010DF5
:10099800F35000017025D96EF45000017121DA6E10
:1009A8000001B951296E2A6A050E2926000E2A224D
:1009B800920E2924E16E000E2A20E26EDFCFE7FFB7
:1009C8000001B74BB82B0001B92B0001B951296EB2
:1009D8002A6A00017251295C000173512A58D8A073
:1009E800D4D7920E1D6E000E1E6EB7C01FF0B5EC68
:1009F8000EF00001B16F920E0001B725D96E000EFE
:100A08000001B821DA6EB1C0DFFF0001B74BB82B87
:100A1800740E1D6E000E1E6E000E206E1E0E1F6ED2
:100A2800920E216E000E226EB7C023F0B8C024F0DB
:100A38005FEC06F01DC0B2F01EC0B3F01FC0B4F0EA
:100A4800B0C092F0010E0001B96F1FD0FF0E296EE1
:100A5800FF0E2A6E0001B9512B6E2C6A29502B26E5
:100A68002A502C22740E2B24D96E000E2C20DA6EFC
:100A78000001B951010D920EF324E16E000EF4202D
:100A8800E26EDFCFE7FF0001B92B010E0001B225AE
:100A9800296E000E0001B3212A6E0001B9512B6E98
:100AA8002C6A29502B5C2A502C58D8A0CFD7000E7E
:100AB8000001B96F0ED00001B951010D920EF32457
:100AC800D96E000EF420DA6EDF50E2EC0FF0000170
:100AD800B92B020E0001B225296E000E0001B321C8
:100AE8002A6E0001B9512B6E2C6A29502B5C2A50B2
:100AF8002C58D8B01200DFD730C06BF031C06CF082
:100B080032C06DF0235021240001606F2450222050
:100B18000001616F1F501D240001626F20501E20CC
:100B28000001636F1DC068F01EC069F01D501E10E3
:100B3800D8B404D021502210D8A40AD0010E000144
:100B48006D6F6BC01DF06CC01EF06DC01FF0120001
:100B580023502410D8B496D021C0D9FF22C0DAFF80
:100B6800DF5000016A6F214A222A00016A51000100
:100B7800D8A403D000016D8585D000016A0721C083
:100B880025F022C026F0251E261E254A262A000109
:100B9800605125240001666F000161512620000183
:100BA800676F00016A510001665D000E6759D8B091
:100BB80004D000016D8766C06AF068C025F069C07E
:100BC80026F0251E261E254A262A000162512524C4
:100BD8000001666F0001635126200001676F000164
:100BE8006A510001665D000E6759D8B004D0000153
:100BF8006D8366C06AF06AC065F000016551000146
:100C0800D8B41CD021C0D9FF22C0DAFFDF500001C0
:100C1800646F214A222A000164510001D8A402D03D
:100C280000016D8568C0D9FF69C0DAFF64C0DFFFC5
:100C38000001684B692B00016507DFD7000160518F
:100C4800215C000161512258D8B01CD0FE0E000171
:100C58006A19D8B481D7000162510001685D0001AA
:100C6800635100016959D8A003D000016D830AD0EF
:100C780068C0D9FF69C0DAFF000EDF6E0001684B5B
:100C8800692B6AD71DC025F01EC026F0251E261E1A
:100C9800254A262A00016851252400016B6F0001AE
:100CA8006951262000016C6F6BC01DF06CC01EF0EE
:100CB8006DC01FF0120033C06AF034C06BF035C04D
:100CC8006CF0235021240001606F24502220000181
:100CD800616F1F501D240001636F20501E2000010A
:100CE800646F1DC066F01EC067F0010E0001662526
:100CF8000001686F000E000167210001696F000E96
:100D08000001626F010E0001656F1D501E10D8B4FE
:100D180004D021502210D8A40AD0010E00016C6F13
:100D28006AC01DF06BC01EF06CC01FF0120023508B
:100D38002410D8B45CD0000163510001685D000143
:100D4800645100016959D8A003D000016C834FD0C9
:100D580021C0D9FF22C0DAFFDF500001626F214AAB
:100D6800222A000162510001D8A419D066C0D9FF17
:100D780067C0DAFF65C0DFFF68C066F069C067F06A
:100D88000001684B692B010E0001656F000160517D
:100D9800215C000161512258D8B029D0CCD768C055
:100DA800D9FF69C0DAFF62C0DFFF0001684B692B19
:100DB8000001652B00016051215C0001615122583E
:100DC800D8B015D000016529D8A4B5D766C0D9FF19
:100DD80067C0DAFF65C0DFFF68C066F069C067F00A
:100DE8000001684B692B010E0001656FA4D7000153
:100DF80063510001665D0001645100016759D8A084
:100E080007D000016C8363C068F064C069F006D045
:100E180066C0D9FF67C0DAFF65C0DFFF1DC025F0D7
:100E28001EC026F0251E261E254A262A00016851C6
:100E3800252400016A6F00016951262000016B6FAB
:100E48006AC01DF06BC01EF06CC01FF012002C6E43
:100E58002CC02AF0D8902A322AA008D0000E286E7A
:100E6800010E276E040EEAEC09F007D0000E286E7A
:100E7800000E276E040EEAEC09F02CC02AF0D89078
:100E88002A32D8902A322AA008D0000E286E010EE5
:100E9800276E020EEAEC09F007D0000E286E000E4D
:100EA800276E020EEAEC09F02CC02AF0D8902A32FC
:100EB800D8902A32D8902A322AA008D0000E286E5C
:100EC800010E276E010EEAEC09F007D0000E286E1D
:100ED800000E276E010EEAEC09F02CC02AF02A3A1F
:100EE8000F0E2A162AA008D0000E286E010E276EB3
:100EF800030EEAEC09F007D0000E286E000E276EEC
:100F0800030EEAEC09F02CC02AF0050E2B6ED890DF
:100F18002A322B2EFCD72AA008D0000E286E010EEC
:100F2800276E050EEAEC09F007D0000E286E000EB9
:100F3800276E050EEAEC09F02CC02AF0060E2B6E7F
:100F4800D8902A322B2EFCD72AA008D0000E286E63
:100F5800010E276E060EEAEC09F007D0000E286E87
:100F6800000E276E060EEAEC09F02A6A2CAE01D0B4
:100F78002A2A2AA003D06FEC10F002D0FDEC10F062
:100F88001DEC11F0120020EE68F02350D9262450F1
:100F9800DA22010EDBBE07D0010EDB503AE1640E07
:100FA800DE5CD8B036D020EE64F02350D926245029
:100FB800DA22DECF26F0DDCF27F026502324D96EA3
:100FC80027502420DA6E25C0DFFF20EE64F023507E
:100FD800D9262450DA22DECF1DF0DDCF1EF0000E18
:100FE800206E640E1F6E0FEC10F020EE64F023509C
:100FF800D9262450DA221DC0DEFF1EC0DDFF20EEF8
:1010080068F02350D9262450DA22DE2A000EDD2289
:10101800120020EE64F02350D9262450DA22DECFC5
:1010280026F0DDCF27F026502324D96E2750242020
:10103800DA6E25C0DFFF20EE64F02350D926245055
:10104800DA22DECF1DF0DDCF1EF0000E206E640E1A
:101058001F6E0FEC10F020EE64F02350D9262450B8
:10106800DA221DC0DEFF1EC0DDFF20EE66F0235031
:10107800D9262450DA22DECF1DF0DDCF1EF0000E77
:10108800206E640E1F6E0FEC10F020EE66F02350F9
:10109800D9262450DA221DC0DEFF1EC0DDFF120053
:1010A80020EE68F00750D9260850DA22010EDBBE80
:1010B80007D0010EDB503AE1640EDE5CD8B036D0C2
:1010C80020EE64F00750D9260850DA22DECF0AF065
:1010D800DDCF0BF00A500724D96E0B500820DA6ECA
:1010E80009C0DFFF20EE64F00750D9260850DA2245
:1010F800DECF01F0DDCF02F0000E046E640E036E49
:1011080024EC10F020EE64F00750D9260850DA22BB
:1011180001C0DEFF02C0DDFF20EE68F00750D926CF
:101128000850DA22DE2A000EDD22120020EE64F0DA
:101138000750D9260850DA22DECF0AF0DDCF0BF0AF
:101148000A500724D96E0B500820DA6E09C0DFFF59
:1011580020EE64F00750D9260850DA22DECF01F0DD
:10116800DDCF02F0000E046E640E036E24EC10F066
:1011780020EE64F00750D9260850DA2201C0DEFFBD
:1011880002C0DDFF20EE66F00750D9260850DA22AB
:10119800DECF01F0DDCF02F0000E046E640E036EA8
:1011A80024EC10F020EE66F00750D9260850DA2219
:1011B80001C0DEFF02C0DDFF1200A8EC10F020BE67
:1011C80085D0205004E1060E1F5CD8A07FD006EC25
:1011D80011F0050AD8A47AD0000E0101F16F000EB3
:1011E800F06F000E0101F26F06EC11F00101F26FD1
:1011F800C40E0101F025D96E010E0101F121DA6E4C
:10120800F2C1DFFF850EE82EFED700F00101F04B9A
:10121800F12B0101F2510101D8A4E6D7BEEC10F080
:10122800A60E1D6E010E1E6E000E206E1E0E1F6E87
:10123800C40E216E010E226EF0C123F0F1C124F01C
:1012480080EC05F01DC0F3F11EC0F4F11FC0F5F1EC
:10125800A60E1D6E010E1E6E0101F351FE0F1F6ECC
:10126800B5EC0EF00101EF6FFE0E0001C06FFF0E2E
:101278000001C16FF3C1C2F0F4C1C3F00001C05155
:101288000001C2270001C1510001C323A60E0001BD
:10129800C225D96E010E0001C321DA6E0101EF519A
:1012A800DE18D8A413D089B602D0898601D08996D1
:1012B800A60E0001BA6F010E0001BB6FF3C1BCF0AE
:1012C800F4C1BDF0A0EC03F0010E1200000E1200F4
:1012D80026C064F027C065F08A9A00016451365C24
:1012E8003750800A286E00016551800A2858D8B006
:1012F80013D08A8636C028F037C029F0281E291E48
:10130800284A292A0001645128240001606F00013D
:10131800655129200001616F36500001645D0001AC
:101328006551800A286E3750800A2858D8B011D0E5
:101338008A9664C028F065C029F0281E291E284A0C
:10134800292A365028240001606F375029200001CF
:10135800616F010E1D6E000E1E6E000E1F6E000ED8
:10136800206EDAEC0EF0000E0001636F000E626F63
:1013780019D08A88010E1D6E000E1E6E000E1F6E9B
:10138800000E206EDAEC0EF08A98010E1D6E000E2B
:101398001E6E000E1F6E000E206EDAEC0EF00001BD
:1013A800624B632B000160510001625D00016351D3
:1013B800800A286E00016151800A2858D8A0D9D720
:1013C8008A8A64C036F065C037F01200296E5CD096
:1013D800000E1E6E020E1D6E000E206E060E1F6E93
:1013E80027C021F028C022F042EC0EF01200000EB7
:1013F8001E6E010E1D6E000E206E010E1F6E27C0A0
:1014080021F028C022F042EC0EF01200000E1E6EF1
:10141800010E1D6E000E206E060E1F6E27C021F0F5
:1014280028C022F042EC0EF027C03AF01200000E5D
:101438001E6E020E1D6E000E206E010E1F6E27C05E
:1014480021F028C022F042EC0EF01200000E1E6EB1
:10145800030E1D6E000E206E060E1F6E27C021F0B3
:1014680028C022F042EC0EF01200000E1E6E030E91
:101478001D6E000E206E010E1F6E27C021F028C0C1
:1014880022F042EC0EF012002950010AD8B4CFD74E
:10149800030AD8B4BBD7010AD8B49AD7070AD8B474
:1014A800A6D7010AD8B4D2D7030AD8A41200DDD728
:1014B800000E216E000E206E21BE06D0215011E1D3
:1014C8000C0E205CD8B00DD0D30E2024D96E000E9F
:1014D8002120DA6E2050F3EC10F0DF6E204A212A2A
:1014E800EBD70001D451D3C01EF01F6A1EC01FF0F5
:1014F8001E6A1E100001DF6F1F500001E06F00011F
:10150800D651D5C01EF01F6A1EC01FF01E6A1E10DD
:101518000001E16F1F500001E26F0001D851D7C0F0
:101528001EF01F6A1EC01FF01E6A1E100001E36F26
:101538001F500001E46F0001DA51D9C01EF01F6A84
:101548001EC01FF01E6A1E100001E56F1F5000012B
:10155800E66F0001DC51DBC01EF01F6A1EC01FF0E1
:101568001E6A1E100001E76F1F500001E86F00019E
:10157800DE51DDC01EF01F6A1EC01FF01E6A1E105D
:101588000001E96F1F500001EA6F1200010E1D6E85
:10159800000E1E6E000E1F6E000E206EDAEC0EF0AE
:1015A8008A9A010E1D6E000E1E6E000E1F6E000E32
:1015B800206EDAEC0EF08A96010E1D6E000E1E6E7D
:1015C800000E1F6E000E206EDAEC0EF0000E276E75
:1015D800000E266E27BE06D0275021E1200E265C7D
:1015E800D8B01DD08A88010E1D6E000E1E6E000E2A
:1015F8001F6E000E206EDAEC0EF08A98010E1D6E3A
:10160800000E1E6E000E1F6E000E206EDAEC0EF03D
:10161800264A272A27BEE6D7275001E1DFD78A883E
:10162800010E1D6E000E1E6E000E1F6E000E206E47
:10163800DAEC0EF08A8A000E376E000E366E010E56
:101648001D6E000E1E6E000E1F6E000E206EDAEC70
:101658000EF01200226E000E216E000E236E000E98
:10166800246E3CD01D502024236E14D02450010D2C
:10167800F3501E24D96EF4501F20DA6E1D50010D50
:10168800EB0EF324E16E000EF420E26EDFCFE7FFED
:10169800242A1D2A23501D5CD8B01200E7D71D50FC
:1016A8002024236E14D02450010DF3501E24D96E2B
:1016B800F4501F20DA6E1D50010D2D0EF324E16E3B
:1016C800000EF420E26EDFCFE7FF242A1D2A235004
:1016D8001D5CD8B01200E7D7216812002250000A1A
:1016E800D8B4C0D7040AD8B4DAD7F6D7226E000E19
:1016F800216E000E236E000E246E3CD01D50202457
:10170800236E14D01D50010DEB0EF324D96E000E7C
:10171800F420DA6E2450010DF3501E24E16EF450CB
:101728001F20E26EDFCFE7FF242A1D2A23501D5C0D
:10173800D8B01200E7D71D502024236E14D01D50B6
:10174800010D2D0EF324D96E000EF420DA6E24500C
:10175800010DF3501E24E16EF4501F20E26EDFCF1E
:10176800E7FF242A1D2A23501D5CD8B01200E7D7B2
:10177800216812002250000AD8B4C0D7040AD8B48D
:10178800DAD7F6D720EE68F02350D9262450DA228B
:10179800010EDBBE3CD0010EDB5003E1DE04D8A015
:1017A80036D020EE66F02350D9262450DA22DECF38
:1017B80025F0DDCF26F025502324D96E265024208D
:1017C800DA6EDF50276E20EE66F02350D9262450BB
:1017D800DA22DECF1DF0DDCF1EF0000E206E640E83
:1017E8001F6E0FEC10F020EE66F02350D92624501F
:1017F800DA221DC0DEFF1EC0DDFF20EE68F0235098
:10180800D9262450DA22DE06000EDD5A02D0000E58
:10181800276E2750120020EE68F00750D92608508E
:10182800DA22010EDBBE3CD0010EDB5003E1DE0400
:10183800D8A036D020EE66F00750D9260850DA2214
:10184800DECF09F0DDCF0AF009500724D96E0A501F
:101858000820DA6EDF500B6E20EE66F00750D926AE
:101868000850DA22DECF01F0DDCF02F0000E046E60
:10187800640E036E24EC10F020EE66F00750D926B3
:101888000850DA2201C0DEFF02C0DDFF20EE68F05A
:101898000750D9260850DA22DE06000EDD5A02D09B
:1018A800000E0B6E0B501200000E276E000E266EF7
:1018B800000E296E170E286E29BE1DD08C9ED8905A
:1018C8002834D96E2934DA6E000ED926010EDA22B0
:1018D800DECF26F0DDCF27F026042710D8A402D0CB
:1018E8008C8804D026502710D8B48C988C8E280663
:1018F800D8A02906E1D78C9E010E1D6E000E1E6E23
:10190800000E1F6E000E206EDAEC0EF08C8C010EAD
:101918001D6E000E1E6E000E1F6E000E206EDAEC9D
:101928000EF08C9C1200000E0B6E000E0A6E000E5C
:101938000D6E170E0C6E0DBE1DD08C9ED8900C34FB
:10194800D96E0D34DA6E000ED926010EDA22DECFFA
:101958000AF0DDCF0BF00A040B10D8A402D08C8853
:1019680004D00A500B10D8B48C988C8E0C06D8A0D2
:101978000D06E1D78C9E010E016E000E026E000E60
:10198800036E000E046EFFEC0EF08C8C010E016EDF
:10199800000E026E000E036E000E046EFFEC0EF0D9
:1019A8008C9C1200000E0A6E000E096E0ABE06D04C
:1019B8000A5027E1060E095CD8B023D0D890093424
:1019C800D96E0A34DA6EC70ED926000EDA22DECFB7
:1019D80001F0DDCF02F0000E046E300E036E39EC1C
:1019E80010F0D8900934D96E0A34DA6E300ED92640
:1019F800010EDA2201C0DEFF02C0DDFF094A0A2A11
:101A0800D5D7000E086E000E076E08BE06D0085027
:101A180007E1060E075CD8B01200074A082AF5D776
:101A28001200000E896EF70E926E270E0F01386FA6
:101A3800010E8A6EFE0E936E3E0E0F01396F000E78
:101A4800616E000E8B6EDF0E946E1C0E0F013A6FE6
:101A5800000E8C6E0F0E956E0F0E0F013B6F000E71
:101A68008D6E070E966E070E0F013C6F948C948E48
:101A7800949A8B8A8B8C8B8E0F013A9B0F013A9D1F
:101A88000F013A9FF18E93989396939A95920F012E
:101A980039970F013B9F0F013999120020EE68F02A
:101AA8002550D9262650DA22000EDE6E000EDD6E95
:101AB80020EE64F02550D9262650DA22000EDE6E7C
:101AC800000EDD6E20EE66F02550D9262650DA226B
:101AD800000EDE6E000EDD6E27502810D8B41200FE
:101AE80025C01DF026C01EF0000E206E000E1F6ED1
:101AF800000E226E640E216EF9EC0FF01200B4ECA9
:101B08000DF0000E286E010E276E030EEAEC09F0A8
:101B1800000E286E010E276E010EEAEC09F0000E89
:101B2800286E000E276E020EEAEC09F0000E286EF1
:101B3800010E276E040EEAEC09F0000E286E000E66
:101B4800276E050EEAEC09F0000E286E000E276ECF
:101B5800060EEAEC09F01DEC11F05CEC0AF012003C
:101B68008C8A8A80020E1D6E000E1E6E000E1F6E7D
:101B7800000E206EDAEC0EF08C9A020E1D6E000E2E
:101B88001E6E000E1F6E000E206EDAEC0EF08A90AC
:101B9800020E1D6E000E1E6E000E1F6E000E206ED1
:101BA800DAEC0EF08C8A020E1D6E000E1E6E000E10
:101BB8001F6E000E206EDAEC0EF08A8066EC0FF0D5
:101BC8001200320EF66E220EF76E000EF86E00EE60
:101BD8003BF010EE07F00900F5CFEEFFE550E150BD
:101BE800FAE102EE00F06A0EEE6AE806FDE101EEA7
:101BF80000F0E20EEE6AE806FDE100EEC7F0360EF0
:101C0800EE6AE806FDE100EE2DF00E0EEE6AE8063B
:101C1800FDE142904292000EF86E000190EF0EF046
:101C2800000E226E000E216E000E246E000E236E32
:101C3800000E246E000E236E24BE06D024501CE134
:101C4800050E235CD8B018D023C01EF02350C9EC71
:101C580010F0010B1F6E206A1E2A03D0D8901F3681
:101C680020361E2EFBD721501F10216E2250201027
:101C7800226E234A242AE0D721501200F00E236E48
:101C8800FF0E246E1DC025F01EC026F0D890253604
:101C98002636D89025362636D890253626361F5033
:101CA800252620502622D89025362636235025264C
:101CB80024502622000E2524D96E010E2620DA6E25
:101CC80021C0DEFF22C0DDFF1200F00E076EFF0EFE
:101CD800086E01C009F002C00AF0D89009360A3629
:101CE800D89009360A36D89009360A36035009269C
:101CF80004500A22D89009360A3607500926085097
:101D08000A22000E0924D96E010E0A20DA6E05C0D7
:101D1800DEFF06C0DDFF12004CEC10F083EC0DF086
:101D2800F28EF28C000E276E000E266E6CEC09F017
:101D3800000E1E6E000E1D6EB2EC0FF08B9A000E98
:101D48000101F76F000EF66F000E0101FA6F5CECEF
:101D58000AF0000E0101F96F010EF86F24EC0FF084
:101D6800FDD7000E236E1CD01DC0D9FF1EC0DAFFA0
:101D7800DF50216E1D4A1E2A080E226E0ED02350F7
:101D88002118010B206ED89023322050D8B402D0ED
:101D98008C0E231AD890213222062250D8A4EFD7CD
:101DA8001F061F28D8A4E0D723501200000E226E69
:101DB800000E236E000E246E000E256E0DD0030E4D
:101DC800216E980EE82EFED7212EFCD7010E222672
:101DD800000E2322242225221D50225C1E50235847
:101DE8001F5024582550800A216E2050800A2158FF
:101DF800D8B01200E4D7000E066E000E076E000E73
:101E0800086E000E096E0DD0030E056E980EE82EB2
:101E1800FED7052EFCD7010E0626000E0722082243
:101E280009220150065C025007580350085809500F
:101E3800800A056E0450800A0558D8B01200E4D70D
:101E4800E1EC08F00009D8B41200010E1D6EC50EB1
:101E58001E6E000E1F6E010E206E040E7AEC0BF043
:101E68000001C5512BEC07F014EC0EF00001C56F12
:101E7800020E1D6EC50E1E6E000E1F6E010E206E28
:101E8800040E2EEC0BF012009D9A9D98480EB86E29
:101E9800980EAB6E260EAC6E670EAF6E000EB06E6F
:101EA800000EAD6E000EAE6E3C0E256E010E266E57
:101EB8007EEC10F0000E256E020E266E7EEC10F001
:101EC8009D8A1200000E2B6E170E2A6E2BBE11D0A3
:101ED800D8902A34D96E2B34DA6E000ED926010E2A
:101EE800DA22000EDE6E000EDD6E2A06D8A02B0662
:101EF800EDD758EC0CF012009E903950CF6E38C0D8
:101F0800CEFF3F4A402A40BE0CD0405004E1080EA4
:101F18003F5CD8A006D0000E406E010E3F6ED6EC96
:101F28000CF03F5058EC00F01200000E016E020E4B
:101F3800026ED4EC10F002BE0DD0025003E1010491
:101F4800D8A008D0000E076E020E086E0FEC0CF039
:101F5800AD6E1200010E416E9D9812001DC01FF05B
:101F68001EC020F0D89020321F32D89020321F3265
:101F78001F50676E1DC01FF0030E1F161F3AF00E8C
:101F88001F166650CF0B1F10666E1200056E05C037
:101F980003F003460346C2500318830B0318C26EAE
:101FA800C280C282C2B2FED7C450046E036AC35054
:101FB8000324016E000E0420026E1200286E000E2B
:101FC800236E020E246E28C025F0C7EC07F04104EA
:101FD800D8A41200000E416E000E236E020E246E6D
:101FE800C6EC0BF0AD6E9D8812001DC023F01EC01C
:101FF80024F008D023C0D9FF24C0DAFF1FC0DFFFB8
:10200800234A242A2106D8A022062128F3E12228DF
:10201800D8B41200EFD7010E1D24216E000E1E2029
:10202800226E1F50215C20502258D8A004D0000EE8
:10203800226E000E216E21C01DF022C01EF012007B
:10204800010E0124056E000E0220066E0350055C89
:1020580004500658D8A004D0000E066E000E056E77
:1020680005C001F006C002F0120001500302F3CFD0
:1020780005F0F4CF06F001500402F3500626025092
:102088000302F350062605C001F006C002F0120054
:102098000DEC11F015EC0DF014EC11F048EC0FF00C
:1020A800E9EC10F05EEC10F0DFEC10F08A889CECA4
:1020B80010F01200000ECD6E000ECC6E000ECF6E2A
:1020C800000ECE6E000E396E000E386E9E909D800A
:1020D80025EC11F01200CAEC0AF0000E276E280E4B
:1020E800266E6CEC09F0030E1E6EE80E1D6EB2EC47
:1020F8000FF0120025C01DF026C01EF0000E206E45
:10210800000E1F6E000E226E6A0E216EF9EC0FF0A3
:102118001200ABA202D0AB98AB88AECF0CF03C0E4D
:10212800076E010E086E0CC009F054EC08F012009E
:10213800010EC26E800EC16E120EC06EC08E000EF1
:10214800C36E000EC46E12003C0E1D6E010E1E6E94
:10215800B3EC10F01DC01FF01EC020F0120020EEDE
:1021680068F01D50D9261E50DA22DECF1DF0DDCFD3
:102178001EF012003C0E256E010E266E000E286E13
:10218800010E276E52EC0DF012001D6E1D50010D50
:10219800F50EF324D96E000EF420DA6EDF5012002B
:1021A80020EE68F00150D9260250DA22DECF01F085
:1021B800DDCF02F012001A0EBA6E7C0EBB6E000E56
:1021C800BC6E9E9223EC11F012001C0E666E3E0E41
:1021D800676E000E686EFC0E0F01481712001D6E28
:1021E8001DC0A9FFA69CA69EA68000F000F0A850DE
:1021F8001200CAEC0AF0000E1E6E000E1D6EB2EC44
:102208000FF012003C0E236E010E246EC6EC0BF08C
:102218001200720ED36E040ED26E000E9B6E120068
:10222800D09E9F9A9F989F9C12001E001E0001003E
:0122380001A4
:10223A0058EC0CF0120097EC0CF01200BA84120061
:08224A00CD8012009E9C1200E1
:020000040020DA
:08000000FFFFFFFFFFFFFFFF00
:020000040030CA
:0E000000FF081F3CFFBF81FF0FC00FE00F4045
:00000001FF
