:0400000050EF00F0CD
:100008004582FACF0DF0FBCF0EF0E9CF0FF0EACF23
:1000180010F0E1CF11F0E2CF12F0D9CF13F0DACF20
:1000280014F0F3CF15F0F4CF16F0F6CF17F0F7CFA2
:1000380018F0F8CF19F0F5CF1AF09DBA9EAA03D0A0
:10004800A4EC06F00BD09DB89EA803D015EC06F0E2
:1000580005D0F2BAF2A402D0BFEC06F01AC0F5FF40
:1000680019C0F8FF18C0F7FF17C0F6FF16C0F4FF55
:1000780015C0F3FF14C0DAFF13C0D9FF12C0E2FFA6
:1000880011C0E1FF10C0EAFF0FC0E9FF0EC0FBFF7F
:100098000DC0FAFF4592110074EF05F036C06BF001
:1000A80037C06CF038C06DF021501F240001606F1C
:1000B800225020200001616F1D501B240001626F37
:1000C8001E501C200001636F1BC068F01CC069F043
:1000D8001B501C10D8B404D01F502010D8A40AD02C
:1000E800010E00016D6F6BC01BF06CC01CF06DC081
:1000F8001DF0120021502210D8B496D01FC0D9FF8D
:1001080020C0DAFFDF5000016A6F1F4A202A000171
:100118006A510001D8A403D000016D8585D0000183
:100128006A071FC023F020C024F0231E241E234A80
:10013800242A0001605123240001666F00016151E7
:1001480024200001676F00016A510001665D000EFE
:100158006759D8B004D000016D8766C06AF068C0DE
:1001680023F069C024F0231E241E234A242A0001F8
:10017800625123240001666F0001635124200001AD
:10018800676F00016A510001665D000E6759D8B0BB
:1001980004D000016D8366C06AF06AC065F0000192
:1001A80065510001D8B41CD01FC0D9FF20C0DAFFA8
:1001B800DF500001646F1F4A202A000164510001CA
:1001C800D8A402D000016D8568C0D9FF69C0DAFFE4
:1001D80064C0DFFF0001684B692B00016507DFD7AA
:1001E800000160511F5C000161512058D8B01CD03B
:1001F800FE0E00016A19D8B481D7000162510001CE
:10020800685D0001635100016959D8A003D000015D
:100218006D830AD068C0D9FF69C0DAFF000EDF6EAF
:100228000001684B692B6AD71BC023F01CC024F05F
:10023800231E241E234A242A000168512324000176
:100248006B6F00016951242000016C6F6BC01BF0BB
:100258006CC01CF06DC01DF0120039C06AF03AC0C5
:100268006BF03BC06CF021501F240001606F2250DE
:1002780020200001616F1D501B240001636F1E5078
:100288001C200001646F1BC066F01CC067F0010EE3
:10029800000166250001686F000E0001672100015A
:1002A800696F000E0001626F010E0001656F1B503F
:1002B8001C10D8B404D01F502010D8A40AD0010EA6
:1002C80000016C6F6AC01BF06BC01CF06CC01DF0A5
:1002D800120021502210D8B45CD0000163510001F3
:1002E800685D0001645100016959D8A003D000017C
:1002F8006C834FD01FC0D9FF20C0DAFFDF50000148
:10030800626F1F4A202A000162510001D8A419D047
:1003180066C0D9FF67C0DAFF65C0DFFF68C066F056
:1003280069C067F00001684B692B010E0001656F19
:10033800000160511F5C000161512058D8B029D0DC
:10034800CCD768C0D9FF69C0DAFF62C0DFFF0001FF
:10035800684B692B0001652B000160511F5C00018F
:1003680061512058D8B015D000016529D8A4B5D757
:1003780066C0D9FF67C0DAFF65C0DFFF68C066F0F6
:1003880069C067F00001684B692B010E0001656FB9
:10039800A4D7000163510001665D000164510001AA
:1003A8006759D8A007D000016C8363C068F064C0A7
:1003B80069F006D066C0D9FF67C0DAFF65C0DFFF05
:1003C8001BC023F01CC024F0231E241E234A242A09
:1003D80000016851232400016A6F0001695124203B
:1003E80000016B6F6AC01BF06BC01CF06CC01DF085
:1003F80012000001B06F010E0001B36F050E00017D
:10040800926F6DC093F06EC094F06FC095F0B3C05A
:1004180096F0000E0001B26F050EB16FB1C0B8F0D2
:10042800B2C0B9F0000ECBEC06F00001976F010ED8
:10043800CBEC06F00001986F920E1B6E000E1C6E3E
:10044800070E1D6E9DEC05F00001B46FB4C099F065
:10045800740E1B6E000E1C6E000E1E6E1E0E1D6EA0
:10046800920E1F6E000E206E000E226E080E216E78
:1004780031EC01F01BC0B5F01CC0B6F01DC0B7F0E0
:10048800B0C092F0000E0001B96F010EB86F27D00E
:10049800FF0E0001706FFF0E0001716FB8C072F09F
:1004A800B9C073F000017051000172270001715149
:1004B80000017323740E00017225D96E000E00012D
:1004C8007321DA6E920E0001B825E16E000E00016C
:1004D800B921E26EDFCFE7FF0001B84BB92B010E5F
:1004E8000001B5250001706F000E0001B621000162
:1004F800716F000170510001B85D00017151000178
:10050800B959D8A0C5D7000E0001B96F000EB86F51
:100518000ED0920E0001B825D96E000E0001B92147
:10052800DA6EDF502EEC06F00001B84BB92B020E44
:100538000001B5250001706F000E0001B621000111
:10054800716F000170510001B85D00017151000127
:10055800B959D8B01200DDD720EE68F02150D9265D
:100568002250DA22010EDBBE07D0010EDB503CE13F
:10057800640EDE5CD8B038D020EE64F02150D92665
:100588002250DA22DECF60F0DDCF61F00001605149
:100598002124D96E000161512220DA6E23C0DFFFC9
:1005A80020EE64F02150D9262250DA22DECF1BF04B
:1005B800DDCF1CF0000E1E6E640E1D6E5CEC06F0A6
:1005C80020EE64F02150D9262250DA221BC0DEFF2B
:1005D8001CC0DDFF20EE68F02150D9262250DA2217
:1005E800DE2A000EDD22120020EE64F02150D9260A
:1005F8002250DA22DECF60F0DDCF61F000016051D9
:100608002124D96E000161512220DA6E23C0DFFF58
:1006180020EE64F02150D9262250DA22DECF1BF0DA
:10062800DDCF1CF0000E1E6E640E1D6E5CEC06F035
:1006380020EE64F02150D9262250DA221BC0DEFFBA
:100648001CC0DDFF20EE66F02150D9262250DA22A8
:10065800DECF1BF0DDCF1CF0000E1E6E640E1D6E8B
:100668005CEC06F020EE66F02150D9262250DA2202
:100678001BC0DEFF1CC0DDFF120020EE68F0075033
:10068800D9260850DA22010EDBBE07D0010EDB5056
:100698003AE1640EDE5CD8B036D020EE64F0075044
:1006A800D9260850DA22DECF0AF0DDCF0BF00A5047
:1006B8000724D96E0B500820DA6E09C0DFFF20EE40
:1006C80064F00750D9260850DA22DECF01F0DDCFDA
:1006D80002F0000E046E640E036E71EC06F020EE5C
:1006E80064F00750D9260850DA2201C0DEFF02C0A4
:1006F800DDFF20EE68F00750D9260850DA22DE2AFE
:10070800000EDD22120020EE64F00750D9260850B2
:10071800DA22DECF0AF0DDCF0BF00A500724D96EBB
:100728000B500820DA6E09C0DFFF20EE64F0075096
:10073800D9260850DA22DECF01F0DDCF02F0000E14
:10074800046E640E036E71EC06F020EE64F0075040
:10075800D9260850DA2201C0DEFF02C0DDFF20EEF4
:1007680066F00750D9260850DA22DECF01F0DDCF37
:1007780002F0000E046E640E036E71EC06F020EEBB
:1007880066F00750D9260850DA2201C0DEFF02C001
:10079800DDFF1200D6EC06F01EBE72D01E5004E13A
:1007A800060E1D5CD8A06CD012EC07F0080AD8A47D
:1007B80067D0000E0001786F000E776F000E000101
:1007C800796F12EC07F00001796FE20E00017725CE
:1007D800D96E000E00017821DA6E79C0DFFF850E30
:1007E800E82EFED700F00001774B782B00017951F5
:1007F8000001D8A4E6D7C40E1B6E000E1C6E000EB6
:100808001E6E1E0E1D6EE20E1F6E000E206E77C04D
:1008180021F078C022F052EC00F01BC074F01CC02C
:1008280075F01DC076F0C40E1B6E000E1C6E000124
:1008380074051D6E9DEC05F00001736FFF0E00013D
:100848006E6FFF0E00016F6F74C070F075C071F0AD
:1008580000016E510001702700016F5100017123E2
:10086800C40E00017025D96E000E00017121DA6EE8
:1008780000017351DE18D8A403D08976010E120046
:10088800000E120082A402D0010E01D0000E3F100B
:100898003F6E82A803D01B6A1B2A01D01B6AD8901E
:1008A8001B343F103F6E83A603D01B6A1B2A01D05E
:1008B8001B6AD8901B36D8901B343F103F6E83A418
:1008C80003D01B6A1B2A01D01B6AD8901B36D8900C
:1008D8001B36D8901B343F103F6E83A203D01B6A8F
:1008E8001B2A01D01B6A1B38F00B3F103F6E83A0F8
:1008F80003D0200E1B6E01D01B6A1B503F103F6EA9
:1009080082A603D0400E1B6E01D01B6A1B503F10FD
:100918003F6E82AA03D0800E1B6E01D01B6A1B504B
:100928003F103F6E82A402D0010E01D0000E3E108F
:100938003E6E80AE03D01B6A1B2A01D01B6AD8907A
:100948001B343E103E6E82A003D01B6A1B2A01D0C6
:100958001B6AD8901B36D8901B343E103E6E12008E
:1009680020EE68F02150D9262250DA22010EDBBE93
:100978003DD0010EDB5003E1DE04D8A037D020EED5
:1009880066F02150D9262250DA22DECF23F0DDCFBF
:1009980024F023502124D96E24502220DA6EDF500F
:1009A8000001606F20EE66F02150D9262250DA222D
:1009B800DECF1BF0DDCF1CF0000E1E6E640E1D6E28
:1009C8005CEC06F020EE66F02150D9262250DA229F
:1009D8001BC0DEFF1CC0DDFF20EE68F02150D926C9
:1009E8002250DA22DE06000EDD5A03D0000E000186
:1009F800606F00016051120020EE68F00750D926A0
:100A08000850DA22010EDBBE3CD0010EDB5003E1B8
:100A1800DE04D8A036D020EE66F00750D92608505C
:100A2800DA22DECF09F0DDCF0AF009500724D96EAB
:100A38000A500820DA6EDF500B6E20EE66F0075081
:100A4800D9260850DA22DECF01F0DDCF02F0000E01
:100A5800046E640E036E71EC06F020EE66F007502B
:100A6800D9260850DA2201C0DEFF02C0DDFF20EEE1
:100A780068F00750D9260850DA22DE06000EDD5A43
:100A880002D0000E0B6E0B501200948A9488958643
:100A9800958495829580948694849482928E94808D
:100AA8009288928C92969598000E0F01386F000EDE
:100AB8000F01396F000E0F013A6F000E0F013B6FE7
:100AC800000E0F013C6F720ED36E040ED26E000E34
:100AD8009B6E19EC07F0B3EC06F086EC06F01200FA
:100AE800380EF66E0E0EF76E000EF86E00EE40F041
:100AF80010EE05F00900F5CFEEFFE550E150FAE100
:100B080001EE00F0D40EEE6AE806FDE100EEBAF060
:100B1800460EEE6AE806FDE100EE25F01B0EEE6AD1
:100B2800E806FDE145904592000EF86E0001F7EFEA
:100B380006F0000E216E1CD01BC0D9FF1CC0DAFFC6
:100B4800DF501F6E1B4A1C2A080E206E0ED0215043
:100B58001F18010B1E6ED89021321E50D8B402D037
:100B68008C0E211AD8901F3220062050D8A4EFD717
:100B78001D061D28D8A4E0D7215012009D9A9D98E3
:100B8800480EB86E980EAB6E260EAC6E670EAF6E42
:100B9800000EB06E000EAD6E000EAE6E6A0E236EC5
:100BA800010E246E95EC06F0000E236E010E246EE5
:100BB80095EC06F09D8A12008C88000E1C6E050EBE
:100BC8001B6EFBEC05F0010E00016D6F010E0001BC
:100BD8006E6F010E00016F6F010EFDEC01F0000E4B
:100BE8001C6E030E1B6EFBEC05F08C981200000EB9
:100BF8001F6E000E1E6E0AD0060E1D6E300EE82EF9
:100C0800FED71D2EFCD700D01E4A1F2A1B501E5C83
:100C18001F50800A1D6E1C50800A1D58D8B0120043
:100C2800EBD7000E016E010E026EECEC06F002BE70
:100C38000DD0025003E10104D8A008D0000E076EC1
:100C4800010E086E00EC05F0AD6E1200010E446E48
:100C58009D9812000001626F000E216E010E226E37
:100C680062C023F0B0EC02F04404D8A41200000ED5
:100C7800446E000E216E010E226EB4EC04F0AD6ECF
:100C88009D8812001BC021F01CC022F008D021C092
:100C9800D9FF22C0DAFF1DC0DFFF214A222A1F0622
:100CA800D8A020061F28F3E12028D8B41200EFD7D7
:100CB800010E1B241F6E000E1C20206E1D501F5C91
:100CC8001E502058D8A004D0000E206E000E1F6EB3
:100CD8001FC01BF020C01CF01200010E0124056E7D
:100CE800000E0220066E0350055C04500658D8A07A
:100CF80004D0000E066E000E056E05C001F006C099
:100D080002F01200940ED56ECF0ED76E2C0ED66E52
:100D1800CF0E3D6E2C0E3C6EF294F28A1FEC07F05B
:100D2800120023C01BF024C01CF0000E1E6E000E23
:100D38001D6E000E206E6A0E1F6E46EC06F0120045
:100D4800ABA202D0AB98AB88AECF0CF06A0E076EA0
:100D5800010E086E0CC009F041EC03F01200F28C91
:100D6800F28ED09E9F9A9F98F294F28A9F9C9F96AB
:100D7800A2969F9212003D50D76E3CC0D6FF010E3E
:100D88002F26000E302231223222F29412001B6EDE
:100D98001B04D8A402D03F5012001B50D8A4120044
:100DA8003E5012006A0E1B6E010E1C6EE1EC06F03E
:100DB8001BC01DF01CC01EF0120020EE68F01B5076
:100DC800D9261C50DA22DECF1BF0DDCF1CF0120032
:100DD80020EE68F00150D9260250DA22DECF01F069
:100DE800DDCF02F0120049EC05F08C980AEC07F010
:100DF80046EC04F001EC07F0F9D7000E2F6E000E58
:100E0800306E000E316E000E326E1200CEEC03F022
:100E18000009D8B41200E0EC05F012006A0E216E49
:100E2800010E226EB4EC04F01200C2EC05F01200C0
:050E38001E001E000178
:040E3E00D58E12003B
:020000040020DA
:08000000FFFFFFFFFFFFFFFF00
:020000040030CA
:0E000000FF081F3CFFBF81FF0FC00FE00F4045
:00000001FF
