:0400000050EF00F0CD
:100008004582FACF0DF0FBCF0EF0E9CF0FF0EACF23
:1000180010F0E1CF11F0E2CF12F0D9CF13F0DACF20
:1000280014F0F3CF15F0F4CF16F0F6CF17F0F7CFA2
:1000380018F0F8CF19F0F5CF1AF09DBA9EAA03D0A0
:1000480074EC07F00BD09DB89EA803D0D0EC06F056
:1000580005D0F2BAF2A402D08FEC07F01AC0F5FF6F
:1000680019C0F8FF18C0F7FF17C0F6FF16C0F4FF55
:1000780015C0F3FF14C0DAFF13C0D9FF12C0E2FFA6
:1000880011C0E1FF10C0EAFF0FC0E9FF0EC0FBFF7F
:100098000DC0FAFF4592110009EF06F036C06BF06B
:1000A80037C06CF038C06DF021501F240001606F1C
:1000B800225020200001616F1D501B240001626F37
:1000C8001E501C200001636F1BC068F01CC069F043
:1000D8001B501C10D8B404D01F502010D8A40AD02C
:1000E800010E00016D6F6BC01BF06CC01CF06DC081
:1000F8001DF0120021502210D8B496D01FC0D9FF8D
:1001080020C0DAFFDF5000016A6F1F4A202A000171
:100118006A510001D8A403D000016D8585D0000183
:100128006A071FC023F020C024F0231E241E234A80
:10013800242A0001605123240001666F00016151E7
:1001480024200001676F00016A510001665D000EFE
:100158006759D8B004D000016D8766C06AF068C0DE
:1001680023F069C024F0231E241E234A242A0001F8
:10017800625123240001666F0001635124200001AD
:10018800676F00016A510001665D000E6759D8B0BB
:1001980004D000016D8366C06AF06AC065F0000192
:1001A80065510001D8B41CD01FC0D9FF20C0DAFFA8
:1001B800DF500001646F1F4A202A000164510001CA
:1001C800D8A402D000016D8568C0D9FF69C0DAFFE4
:1001D80064C0DFFF0001684B692B00016507DFD7AA
:1001E800000160511F5C000161512058D8B01CD03B
:1001F800FE0E00016A19D8B481D7000162510001CE
:10020800685D0001635100016959D8A003D000015D
:100218006D830AD068C0D9FF69C0DAFF000EDF6EAF
:100228000001684B692B6AD71BC023F01CC024F05F
:10023800231E241E234A242A000168512324000176
:100248006B6F00016951242000016C6F6BC01BF0BB
:100258006CC01CF06DC01DF0120039C06AF03AC0C5
:100268006BF03BC06CF021501F240001606F2250DE
:1002780020200001616F1D501B240001636F1E5078
:100288001C200001646F1BC066F01CC067F0010EE3
:10029800000166250001686F000E0001672100015A
:1002A800696F000E0001626F010E0001656F1B503F
:1002B8001C10D8B404D01F502010D8A40AD0010EA6
:1002C80000016C6F6AC01BF06BC01CF06CC01DF0A5
:1002D800120021502210D8B45CD0000163510001F3
:1002E800685D0001645100016959D8A003D000017C
:1002F8006C834FD01FC0D9FF20C0DAFFDF50000148
:10030800626F1F4A202A000162510001D8A419D047
:1003180066C0D9FF67C0DAFF65C0DFFF68C066F056
:1003280069C067F00001684B692B010E0001656F19
:10033800000160511F5C000161512058D8B029D0DC
:10034800CCD768C0D9FF69C0DAFF62C0DFFF0001FF
:10035800684B692B0001652B000160511F5C00018F
:1003680061512058D8B015D000016529D8A4B5D757
:1003780066C0D9FF67C0DAFF65C0DFFF68C066F0F6
:1003880069C067F00001684B692B010E0001656FB9
:10039800A4D7000163510001665D000164510001AA
:1003A8006759D8A007D000016C8363C068F064C0A7
:1003B80069F006D066C0D9FF67C0DAFF65C0DFFF05
:1003C8001BC023F01CC024F0231E241E234A242A09
:1003D80000016851232400016A6F0001695124203B
:1003E80000016B6F6AC01BF06BC01CF06CC01DF085
:1003F80012000001B16F010E0001B06F050E00017F
:10040800926F6DC093F06EC094F06FC095F072C09B
:1004180096F0000E0001B36F050EB26FB2C0B8F0CF
:10042800B3C0B9F070C0D9FF71C0DAFFDF50000166
:10043800976F000120EE01F07051D9267151DA2230
:10044800DF500001986F920E1B6E000E1C6E070E97
:100458001D6E73EC06F00001B46FB4C099F0740E11
:100468001B6E000E1C6E000E1E6E1E0E1D6E920E72
:100478001F6E000E206E000E226E080E216E31ECEB
:1004880001F01BC0B5F01CC0B6F01DC0B7F0B1C07C
:1004980092F0000E0001B96F010EB86F1FD0FF0E69
:1004A800276EFF0E286EB8C029F0B9C02AF0275071
:1004B800292628502A22740E2924D96E000E2A20B3
:1004C800DA6E920E0001B825E16E000E0001B92126
:1004D800E26EDFCFE7FF0001B84BB92B010E000138
:1004E800B525276E000E0001B621286E27500001A1
:1004F800B85D28500001B959D8A0D1D7000E000125
:10050800B96F000EB86F0ED0920E0001B825D96EE3
:10051800000E0001B921DA6EDF50E9EC06F00001A7
:10052800B84BB92B020E0001B525276E000E00014D
:10053800B621286E27500001B85D28500001B9592E
:10054800D8B01200E1D720EE68F02150D926225009
:10055800DA22010EDBBE07D0010EDB503AE1640E51
:10056800DE5CD8B036D020EE64F02150D926225077
:10057800DA22DECF24F0DDCF25F024502124D96EF5
:1005880025502220DA6E23C0DFFF20EE64F02150D0
:10059800D9262250DA22DECF1BF0DDCF1CF0000E68
:1005A8001E6E640E1D6E2CEC07F020EE64F02150D8
:1005B800D9262250DA221BC0DEFF1CC0DDFF20EE48
:1005C80068F02150D9262250DA22DE2A000EDD22D8
:1005D800120020EE64F02150D9262250DA22DECF14
:1005E80024F0DDCF25F024502124D96E2550222077
:1005F800DA6E23C0DFFF20EE64F02150D9262250A6
:10060800DA22DECF1BF0DDCF1CF0000E1E6E640E6A
:100618001D6E2CEC07F020EE64F02150D9262250F4
:10062800DA221BC0DEFF1CC0DDFF20EE66F0215081
:10063800D9262250DA22DECF1BF0DDCF1CF0000EC7
:100648001E6E640E1D6E2CEC07F020EE66F0215035
:10065800D9262250DA221BC0DEFF1CC0DDFF1200A3
:1006680020EE68F00750D9260850DA22010EDBBECA
:1006780007D0010EDB503AE1640EDE5CD8B036D00C
:1006880020EE64F00750D9260850DA22DECF0AF0AF
:10069800DDCF0BF00A500724D96E0B500820DA6E14
:1006A80009C0DFFF20EE64F00750D9260850DA228F
:1006B800DECF01F0DDCF02F0000E046E640E036E93
:1006C80041EC07F020EE64F00750D9260850DA22F2
:1006D80001C0DEFF02C0DDFF20EE68F00750D9261A
:1006E8000850DA22DE2A000EDD22120020EE64F025
:1006F8000750D9260850DA22DECF0AF0DDCF0BF0FA
:100708000A500724D96E0B500820DA6E09C0DFFFA3
:1007180020EE64F00750D9260850DA22DECF01F027
:10072800DDCF02F0000E046E640E036E41EC07F09C
:1007380020EE64F00750D9260850DA2201C0DEFF07
:1007480002C0DDFF20EE66F00750D9260850DA22F5
:10075800DECF01F0DDCF02F0000E046E640E036EF2
:1007680041EC07F020EE66F00750D9260850DA224F
:1007780001C0DEFF02C0DDFF12009BEC07F01EBEC9
:100788007DD01E5004E1060E1D5CD8A077D0D5ECB4
:1007980007F0080AD8A472D0000E0101F46F000E09
:1007A800F36F000E0101F56FD5EC07F00101F56F4D
:1007B800D40E0101F325D96E010E0101F421DA6E80
:1007C800F5C1DFFF850EE82EFED700F00101F34BDF
:1007D800F42B0101F5510101D8A4E6D7DC0E1B6EFC
:1007E800000E1C6E000E1E6E1E0E1D6ED40E1F6EA9
:1007F800010E206EF3C121F0F4C122F052EC00F09A
:100808001BC0F6F11CC0F7F11DC0F8F1DC0E1B6E21
:10081800000E1C6E0101F6051D6E73EC06F0010159
:10082800F26FFF0E0001C36FFF0E0001C46FF6C127
:10083800C5F0F7C1C6F00001C3510001C52700018A
:10084800C4510001C623DC0E0001C525D96E000E77
:100858000001C621DA6E0101F251DE18D8A40ED0CB
:10086800DC0E0001BA6F000E0001BB6FF6C1BCF0D0
:10087800F7C1BDF044EC04F0010E1200000E1200A6
:10088800000120EE01F0BA51D926BB51DA22DE046C
:10089800D8A41200000120EE03F0BA51D926BB51AA
:1008A800DA22DF501B6EBF0E1C6E000E1D6E00019B
:1008B80020EE04F0BA51D926BB51DA22DF501E6E61
:1008C800000120EE02F0BA51D926BB51DA22DF50DE
:1008D8009EEC04F08C88000E1C6E050E1B6EB6ECA8
:1008E80006F0010E00016D6F010E00016E6F010E22
:1008F80000016F6FBF0E0001706F000E0001716F75
:10090800000120EE04F0BA51D926BB51DA22DF509B
:100918000001BE6F0001BE510001726F736B010EC2
:10092800FDEC01F0000E1C6E030E1B6EB6EC06F01B
:100938008C981200206E000E1F6E000E216E000EA5
:10094800226E3CD01B501E24216E14D01B50010D6A
:10095800C80EF324D96E000EF420DA6E2250010D71
:10096800F3501C24E16EF4501D20E26EDFCFE7FF48
:10097800222A1B2A21501B5CD8B01200E7D71B5033
:100988001E24216E14D01B50010D330EF324D96E92
:10099800000EF420DA6E2250010DF3501C24E16E93
:1009A800F4501D20E26EDFCFE7FF222A1B2A2150D8
:1009B8001B5CD8B01200E7D71F6812002050000A4D
:1009C800D8B4C0D7010AD8B4DAD7F6D7206E000E4B
:1009D8001F6E000E216E000E226E3CD01B501E248E
:1009E800216E14D02250010DF3501C24D96EF450FE
:1009F8001D20DA6E1B50010DC80EF324E16E000EA7
:100A0800F420E26EDFCFE7FF222A1B2A21501B5C6D
:100A1800D8B01200E7D71B501E24216E14D02250E4
:100A2800010DF3501C24D96EF4501D20DA6E1B50B2
:100A3800010D330EF324E16E000EF420E26EDFCFD9
:100A4800E7FF222A1B2A21501B5CD8B01200E7D7E7
:100A58001F6812002050000AD8B4C0D7010AD8B4C1
:100A6800DAD7F6D720EE68F02150D9262250DA22BC
:100A7800010EDBBE3CD0010EDB5003E1DE04D8A042
:100A880036D020EE66F02150D9262250DA22DECF69
:100A980023F0DDCF24F023502124D96E24502220C6
:100AA800DA6EDF50256E20EE66F02150D9262250EE
:100AB800DA22DECF1BF0DDCF1CF0000E1E6E640EB6
:100AC8001D6E2CEC07F020EE66F02150D92622503E
:100AD800DA221BC0DEFF1CC0DDFF20EE68F02150CB
:100AE800D9262250DA22DE06000EDD5A02D0000E88
:100AF800256E2550120020EE68F00750D9260850C0
:100B0800DA22010EDBBE3CD0010EDB5003E1DE042D
:100B1800D8A036D020EE66F00750D9260850DA2241
:100B2800DECF09F0DDCF0AF009500724D96E0A504C
:100B38000820DA6EDF500B6E20EE66F00750D926DB
:100B48000850DA22DECF01F0DDCF02F0000E046E8D
:100B5800640E036E41EC07F020EE66F00750D926CC
:100B68000850DA2201C0DEFF02C0DDFF20EE68F087
:100B78000750D9260850DA22DE06000EDD5A02D0C8
:100B8800000E0B6E0B501200948A948895869584FB
:100B980095829580948694849482928E948092888B
:100BA800928C0F013A8592969598000E0F01386F36
:100BB800000E0F01396F000E0F013A6F000E0F0182
:100BC8003B6F000E0F013C6F720ED36E040ED26E97
:100BD800000E9B6EDCEC07F083EC07F056EC07F098
:100BE80020EEFAF010EE25F0040EDBCFE3FFE80666
:100BF800FCE2000E1B6E250E1C6E000E1D6E020E12
:100C08001E6E000EEAEC04F01200C30EF66E0F0E14
:100C1800F76E000EF86E00EEFAF010EE05F009001F
:100C2800F5CFEEFFE550E150FAE1BE0EF66E0F0E7D
:100C3800F76E000EF86E00EE40F010EE05F00900B9
:100C4800F5CFEEFFE550E150FAE101EE00F0F20ECB
:100C5800EE6AE806FDE100EEC8F0320EEE6AE8063C
:100C6800FDE100EE2BF0150EEE6AE806FDE1459079
:100C78004592000EF86E000100EF07F0000E82B4F6
:100C8800010E3F6E82A402D0010E01D0000E3E106C
:100C98003E6E80AE03D0236A232A01D0236AD890FF
:100CA80023343E103E6E82A003D0236A232A01D04B
:100CB800236AD8902336D89023343E103E6E3FC026
:100CC80024F03EC025F0000E1B6E240E1C6E000E94
:100CD8001D6E020E1E6E010EEAEC04F01200000EEC
:100CE800216E1CD01BC0D9FF1CC0DAFFDF501F6E5D
:100CF8001B4A1C2A080E206E0ED021501F18010B0B
:100D08001E6ED89021321E50D8B402D08C0E211AF3
:100D1800D8901F3220062050D8A4EFD71D061D28D2
:100D2800D8A4E0D7215012009D9A9D98480EB86E1D
:100D3800980EAB6E260EAC6E670EAF6E000EB06EE0
:100D4800000EAD6E000EAE6E6A0E236E010E246E9E
:100D580065EC07F0000E236E010E246E65EC07F0BB
:100D68009D8A1200000E1F6E000E1E6E0AD0060E1F
:100D78001D6E300EE82EFED71D2EFCD700D01E4A61
:100D88001F2A1B501E5C1F50800A1D6E1C50800AB3
:100D98001D58D8B01200EBD7000E016E010E026E7E
:100DA800B1EC07F002BE0DD0025003E10104D8A057
:100DB80008D0000E076E010E086E7FEC05F0AD6ED0
:100DC8001200010E446E9D981200266E000E216ED0
:100DD800010E226E26C023F0A7EC02F04404D8A42A
:100DE8001200000E446E000E216E010E226E36ECCB
:100DF80005F0AD6E9D881200C8EC05F08C98CEEC1D
:100E080007F0C5EC07F01EBEFAD71E501D101C10C7
:100E180004E1060E1B5CD8A0F2D742EC06F0BCEC4D
:100E280007F0EDD71BC021F01CC022F008D021C06C
:100E3800D9FF22C0DAFF1DC0DFFF214A222A1F0680
:100E4800D8A020061F28F3E12028D8B41200EFD735
:100E5800010E1B241F6E000E1C20206E1D501F5CEF
:100E68001E502058D8A004D0000E206E000E1F6E11
:100E78001FC01BF020C01CF01200010E0124056EDB
:100E8800000E0220066E0350055C04500658D8A0D8
:100E980004D0000E066E000E056E05C001F006C0F7
:100EA80002F01200940ED56ECF0ED76E2C0ED66EB1
:100EB800CF0E3D6E2C0E3C6EF294F28AE4EC07F0F5
:100EC800120023C01BF024C01CF0000E1E6E000E82
:100ED8001D6E000E206E6A0E1F6E16EC07F01200D3
:100EE800ABA202D0AB98AB88AECF0CF06A0E076EFF
:100EF800010E086E0CC009F034EC03F01200F28CFD
:100F0800F28ED09E9F9A9F98F294F28A9F9C9F9609
:100F1800A2969F9212003D50D76E3CC0D6FF010E9C
:100F28002F26000E302231223222F29412006A0E4D
:100F38001B6E010E1C6EA6EC07F01BC01DF01CC03A
:100F48001EF0120020EE68F01B50D9261C50DA2241
:100F5800DECF1BF0DDCF1CF0120020EE68F0015050
:100F6800D9260250DA22DECF01F0DDCF02F01200DE
:100F7800000E2F6E000E306E000E316E000E326EB7
:100F880012002FC01BF030C01CF031C01DF032C061
:100F98001EF01200C1EC03F00009D8B412008976E3
:100FA80012006A0E216E010E226E36EC05F0120058
:100FB80098EC06F012001E001E000104020000005A
:040FC800D58E1200B0
:020000040020DA
:08000000FFFFFFFFFFFFFFFF00
:020000040030CA
:0E000000FF081F3CFFBF81FF0FC00FE00F4045
:00000001FF
