:0400000050EF00F0CD
:100008004582FACF0DF0FBCF0EF0E9CF0FF0EACF23
:1000180010F0E1CF11F0E2CF12F0D9CF13F0DACF20
:1000280014F0F3CF15F0F4CF16F0F6CF17F0F7CFA2
:1000380018F0F8CF19F0F5CF1AF09DBA9EAA03D0A0
:10004800E4EC06F00BD09DB89EA803D055EC06F062
:1000580005D0F2BAF2A402D0F3EC06F01AC0F5FF0C
:1000680019C0F8FF18C0F7FF17C0F6FF16C0F4FF55
:1000780015C0F3FF14C0DAFF13C0D9FF12C0E2FFA6
:1000880011C0E1FF10C0EAFF0FC0E9FF0EC0FBFF7F
:100098000DC0FAFF4592110042EF05F064C0B2F0BE
:1000A80065C0B3F066C0B4F021501F240001A76FEB
:1000B800225020200001A86F1D501B240001A96FA9
:1000C8001E501C200001AA6F1BC0AFF01CC0B0F06E
:1000D8001B501C10D8B404D01F502010D8A40AD02C
:1000E800010E0001B46FB2C01BF0B3C01CF0B4C065
:1000F8001DF0120021502210D8B496D01FC0D9FF8D
:1001080020C0DAFFDF500001B16F1F4A202A00012A
:10011800B1510001D8A403D00001B48585D00001F5
:10012800B1071FC023F020C024F0231E241E234A39
:10013800242A0001A75123240001AD6F0001A85112
:1001480024200001AE6F0001B1510001AD5D000E29
:10015800AE59D8B004D00001B487ADC0B1F0AFC07B
:1001680023F0B0C024F0231E241E234A242A0001B1
:10017800A95123240001AD6F0001AA5124200001D8
:10018800AE6F0001B1510001AD5D000EAE59D8B09F
:1001980004D00001B483ADC0B1F0B1C0ACF000012F
:1001A800AC510001D8B41CD01FC0D9FF20C0DAFF61
:1001B800DF500001AB6F1F4A202A0001AB5100013C
:1001C800D8A402D00001B485AFC0D9FFB0C0DAFF0F
:1001D800ABC0DFFF0001AF4BB02B0001AC07DFD78E
:1001E8000001A7511F5C0001A8512058D8B01CD0AD
:1001F800FE0E0001B119D8B481D70001A951000140
:10020800AF5D0001AA510001B059D8A003D0000188
:10021800B4830AD0AFC0D9FFB0C0DAFF000EDF6EDA
:100228000001AF4BB02B6AD71BC023F01CC024F0D1
:10023800231E241E234A242A0001AF51232400012F
:10024800B26F0001B05124200001B36FB2C01BF09F
:10025800B3C01CF0B4C01DF0120067C0B1F068C094
:10026800B2F069C0B3F021501F240001A76F2250DB
:1002780020200001A86F1D501B240001AA6F1E50EA
:100288001C200001AB6F1BC0ADF01CC0AEF0010E0E
:100298000001AD250001AF6F000E0001AE21000185
:1002A800B06F000E0001A96F010E0001AC6F1B506A
:1002B8001C10D8B404D01F502010D8A40AD0010EA6
:1002C8000001B36FB1C01BF0B2C01CF0B3C01DF089
:1002D800120021502210D8B45CD00001AA510001AC
:1002E800AF5D0001AB510001B059D8A003D00001A7
:1002F800B3834FD01FC0D9FF20C0DAFFDF50000101
:10030800A96F1F4A202A0001A9510001D8A419D0B9
:10031800ADC0D9FFAEC0DAFFACC0DFFFAFC0ADF0F3
:10032800B0C0AEF00001AF4BB02B010E0001AC6FB6
:100338000001A7511F5C0001A8512058D8B029D04E
:10034800CCD7AFC0D9FFB0C0DAFFA9C0DFFF00012A
:10035800AF4BB02B0001AC2B0001A7511F5C000173
:10036800A8512058D8B015D00001AC29D8A4B5D7C9
:10037800ADC0D9FFAEC0DAFFACC0DFFFAFC0ADF093
:10038800B0C0AEF00001AF4BB02B010E0001AC6F56
:10039800A4D70001AA510001AD5D0001AB510001D5
:1003A800AE59D8A007D00001B383AAC0AFF0ABC044
:1003B800B0F006D0ADC0D9FFAEC0DAFFACC0DFFFE9
:1003C8001BC023F01CC024F0231E241E234A242A09
:1003D8000001AF5123240001B16F0001B051242066
:1003E8000001B26FB1C01BF0B2C01CF0B3C01DF069
:1003F800120005013C6F010E05013F6F050E050156
:100408001E6FB4C01FF5B5C020F5B6C021F53FC5B5
:1004180022F5000E05013E6F050E3D6F3DC544F502
:100428003EC545F5000E0CEC07F00501236F010EE3
:100438000CEC07F00501246F1E0E1B6E050E1C6EDA
:10044800070E1D6EDDEC05F00501406F40C525F572
:10045800000E1B6E050E1C6E000E1E6E1E0E1D6E0F
:100468001E0E1F6E050E206E000E226E080E216EE7
:1004780031EC01F01BC041F51CC042F51DC043F52D
:100488003CC51EF5000E0501456F010E446F27D0CF
:10049800FF0E0001B76FFF0E0001B86F44C5B9F039
:1004A80045C5BAF00001B7510001B9270001B8519C
:1004B8000001BA23000E0001B925D96E050E00010E
:1004C800BA21DA6E1E0E05014425E16E050E0501FE
:1004D8004521E26EDFCFE7FF0501444B452B010EB6
:1004E800050141250001B76F000E050142210001F9
:1004F800B86F0001B7510501445D0001B85105010D
:100508004559D8A0C5D7000E0501456F000E446FA8
:100518000ED01E0E05014425D96E050E0501452194
:10052800DA6EDF506EEC06F00501444B452B020EE7
:10053800050141250001B76F000E050142210001A8
:10054800B86F0001B7510501445D0001B8510501BC
:100558004559D8B01200DDD720EECCF02150D9266D
:100568002250DA22010EDBBE07D0010EDB503AE141
:10057800C80EDE5CD8B036D020EEC8F02150D9269F
:100588002250DA22DECF24F0DDCF25F024502124BA
:10059800D96E25502220DA6E23C0DFFF20EEC8F086
:1005A8002150D9262250DA22DECF1BF0DDCF1CF0F5
:1005B800000E1E6EC80E1D6E9CEC06F020EEC8F0F4
:1005C8002150D9262250DA221BC0DEFF1CC0DDFFD5
:1005D80020EECCF02150D9262250DA22DE2A000E55
:1005E800DD22120020EEC8F02150D9262250DA224E
:1005F800DECF24F0DDCF25F024502124D96E2550FC
:100608002220DA6E23C0DFFF20EEC8F02150D92661
:100618002250DA22DECF1BF0DDCF1CF0000E1E6E5A
:10062800C80E1D6E9CEC06F020EEC8F02150D926AD
:100638002250DA221BC0DEFF1CC0DDFF20EECAF00C
:100648002150D9262250DA22DECF1BF0DDCF1CF054
:10065800000E1E6EC80E1D6E9CEC06F020EECAF051
:100668002150D9262250DA221BC0DEFF1CC0DDFF34
:10067800120020EECCF00750D9260850DA22010EDD
:10068800DBBE07D0010EDB503AE1C80EDE5CD8B005
:1006980036D020EEC8F00750D9260850DA22DECF2F
:1006A8000AF0DDCF0BF00A500724D96E0B50082052
:1006B800DA6E09C0DFFF20EEC8F00750D9260850CF
:1006C800DA22DECF01F0DDCF02F0000E046EC80E94
:1006D800036EB1EC06F020EEC8F00750D92608509A
:1006E800DA2201C0DEFF02C0DDFF20EECCF00750A9
:1006F800D9260850DA22DE2A000EDD22120020EE6A
:10070800C8F00750D9260850DA22DECF0AF0DDCF2C
:100718000BF00A500724D96E0B500820DA6E09C076
:10072800DFFF20EEC8F00750D9260850DA22DECFC6
:1007380001F0DDCF02F0000E046EC80E036EB1ECBE
:1007480006F020EEC8F00750D9260850DA2201C07A
:10075800DEFF02C0DDFF20EECAF00750D9260850A0
:10076800DA22DECF01F0DDCF02F0000E046EC80EF3
:10077800036EB1EC06F020EECAF00750D9260850F7
:10078800DA2201C0DEFF02C0DDFF120017EC07F01D
:100798001EBE72D01E5004E1060E1D5CD8A06CD09F
:1007A80054EC07F0080AD8A467D0000E0001BF6F08
:1007B800000EBE6F000E0001C06F54EC07F0000180
:1007C800C06FCE0E0001BE25D96E010E0001BF21FB
:1007D800DA6EC0C0DFFF850EE82EFED700F00001FC
:1007E800BE4BBF2B0001C0510001D8A4E6D76E0E46
:1007F8001B6E000E1C6E000E1E6E1E0E1D6ECE0EA3
:100808001F6E010E206EBEC021F0BFC022F052EC58
:1008180000F01BC0BBF01CC0BCF01DC0BDF06E0ECC
:100828001B6E000E1C6E0001BB051D6EDDEC05F095
:100838000001BA6FFF0E0001B56FFF0E0001B66F21
:10084800BBC0B7F0BCC0B8F00001B5510001B72774
:100858000001B6510001B8236E0E0001B725D96E0C
:10086800000E0001B821DA6E0001BA51DE18D8A4D2
:1008780003D08976010E1200000E120082A402D065
:10088800010E01D0000E3B103B6E82A803D01B6AFC
:100898001B2A01D01B6AD8901B343B103B6E83A6E1
:1008A80003D01B6A1B2A01D01B6AD8901B36D8902C
:1008B8001B343B103B6E83A403D01B6A1B2A01D058
:1008C8001B6AD8901B36D8901B36D8901B343B1027
:1008D8003B6E83A203D01B6A1B2A01D01B6A1B38FC
:1008E800F00B3B103B6E83A003D0200E1B6E01D093
:1008F8001B6A1B503B103B6E82A603D0400E1B6E3A
:1009080001D01B6A1B503B103B6E82AA03D0800E9D
:100918001B6E01D01B6A1B503B103B6E82A402D099
:10092800010E01D0000E3A103A6E80AE03D01B6A59
:100938001B2A01D01B6AD8901B343A103A6E82A049
:1009480003D01B6A1B2A01D01B6AD8901B36D8908B
:100958001B343A103A6E120020EECCF02150D92602
:100968002250DA22010EDBBE3CD0010EDB5003E13F
:10097800DE04D8A036D020EECAF02150D926225065
:10098800DA22DECF23F0DDCF24F023502124D96EE4
:1009980024502220DA6EDF50256E20EECAF0215056
:1009A800D9262250DA22DECF1BF0DDCF1CF0000E54
:1009B8001E6EC80E1D6E9CEC06F020EECAF021508B
:1009C800D9262250DA221BC0DEFF1CC0DDFF20EE34
:1009D800CCF02150D9262250DA22DE06000EDD5A4C
:1009E80002D0000E256E2550120020EECCF00750E4
:1009F800D9260850DA22010EDBBE3CD0010EDB50AE
:100A080003E1DE04D8A036D020EECAF00750D9267C
:100A18000850DA22DECF09F0DDCF0AF009500724AA
:100A2800D96E0A500820DA6EDF500B6E20EECAF03D
:100A38000750D9260850DA22DECF01F0DDCF02F0C8
:100A4800000E046EC80E036EB1EC06F020EECAF07C
:100A58000750D9260850DA2201C0DEFF02C0DDFFA8
:100A680020EECCF00750D9260850DA22DE06000E18
:100A7800DD5A02D0000E0B6E0B501200B60EF66E49
:100A88000E0EF76E000EF86E00EEC1F010EE04F0D8
:100A98000900F5CFEEFFE550E150FAE1C00EF66E21
:100AA8000E0EF76E000EF86E0900F5CF44F004EE56
:100AB80000F0CE0EEE6AE806FDE103EE00F0C80E87
:100AC800EE6AE806FDE102EE00F0CE0EEE6AE806F8
:100AD800FDE101EE00F0EC0EEE6AE806FDE100EE45
:100AE80060F0470EEE6AE806FDE100EE26F01E0E05
:100AF800EE6AE806FDE145904592000EF86E0001A9
:100B080038EF07F002EC06F09D0E0001A76F000E0B
:100B18000001A86F0A0E0001A96F080E0001AA6F54
:100B2800000E0001AB6FDC0E0001AC6F0C0E000173
:100B3800AD6FA80E0001AE6F0E0E0001AF6F2E0E46
:100B48000001B06F0E0E0001B16F000E0001B26F10
:100B5800000E0001B36F5FEC07F01200948A9488CE
:100B68009586958495829580948694849482928EB5
:100B780094809288928C92969598000E0F01386F07
:100B8800000E0F01396F000E0F013A6F000E0F01B2
:100B98003B6F000E0F013C6F720ED36E040ED26EC7
:100BA800000E9B6E86EC05F000EC07F0C6EC06F034
:100BB8001200000E216E1CD01BC0D9FF1CC0DAFF2A
:100BC800DF501F6E1B4A1C2A080E206E0ED02150C3
:100BD8001F18010B1E6ED89021321E50D8B402D0B7
:100BE8008C0E211AD8901F3220062050D8A4EFD797
:100BF8001D061D28D8A4E0D7215012009D9A9D9863
:100C0800480EB86E980EAB6E260EAC6E670EAF6EC1
:100C1800000EB06E000EAD6E000EAE6E000E236EAE
:100C2800010E246ED5EC06F0000E236E020E246E23
:100C3800D5EC06F09D8A12008C88000E1C6E050EFD
:100C48001B6E3BEC06F0010E0001B46F010E0001B3
:100C5800B56F010E0001B66F010EFDEC01F0000E3C
:100C68001C6E030E1B6E3BEC06F08C981200000EF7
:100C78001F6E000E1E6E0AD0060E1D6E300EE82E78
:100C8800FED71D2EFCD700D01E4A1F2A1B501E5C03
:100C98001F50800A1D6E1C50800A1D58D8B01200C3
:100CA800EBD7000E016E020E026E2DEC07F002BEAD
:100CB8000DD0025003E10104D8A008D0000E076E41
:100CC800020E086EF9EC04F0AD6E1200010E446ECF
:100CD8009D9812000001A76F000E216E020E226E71
:100CE800A7C023F0B0EC02F04404D8A41200000E10
:100CF800446E000E216E020E226EB0EC04F0AD6E52
:100D08009D8812001BC021F01CC022F008D021C011
:100D1800D9FF22C0DAFF1DC0DFFF214A222A1F06A1
:100D2800D8A020061F28F3E12028D8B41200EFD756
:100D3800010E1B241F6E000E1C20206E1D501F5C10
:100D48001E502058D8A004D0000E206E000E1F6E32
:100D58001FC01BF020C01CF01200010E0124056EFC
:100D6800000E0220066E0350055C04500658D8A0F9
:100D780004D0000E066E000E056E05C001F006C018
:100D880002F01200940ED56ECF0ED76E2C0ED66ED2
:100D9800CF0E276E2C0E266EF294F28A5DEC07F0C9
:100DA800120023C01BF024C01CF0000E1E6E000EA3
:100DB8001D6E000E206ECE0E1F6E86EC06F0120021
:100DC800ABA202D0AB98AB88AECF0CF0000E076E8A
:100DD800010E086E0CC009F03DEC03F0120027501C
:100DE800D76E26C0D6FF010E00016027000E6123D2
:100DF80062236323F2941200F28CF28ED09E9F9AA3
:100E08009F98F294F28A9F9C9F96A2969F921200B6
:100E18001B6E1B04D8A402D03B5012001B50D8A450
:100E280012003A501200000E1B6E010E1C6E22ECCE
:100E380007F01BC01DF01CC01EF0120020EECCF005
:100E48001B50D9261C50DA22DECF1BF0DDCF1CF058
:100E5800120020EECCF00150D9260250DA22DECF63
:100E680001F0DDCF02F01200B2EC05F08C984CECEA
:100E780007F042EC04F042EC07F0F9D7000E00014D
:100E8800606F000E616F000E626F000E636F1200DC
:100E9800CAEC03F00009D8B4120020EC06F01200E6
:100EA800000E216E010E226EB0EC04F012001E003E
:090EB8001E00D58E12001200018B
:020000040020DA
:08000000FFFFFFFFFFFFFFFF00
:020000040030CA
:0E000000FF081F3CFFBF81FF0FC00FE00F4045
:00000001FF
