:0400000050EF00F0CD
:100008004582FACF0DF0FBCF0EF0E9CF0FF0EACF23
:1000180010F0E1CF11F0E2CF12F0D9CF13F0DACF20
:1000280014F0F3CF15F0F4CF16F0F6CF17F0F7CFA2
:1000380018F0F8CF19F0F5CF1AF09DBA9EAA03D0A0
:10004800A3EC07F00BD09DB89EA803D0FFEC06F0F8
:1000580005D0F2BAF2A402D0BEEC07F01AC0F5FF40
:1000680019C0F8FF18C0F7FF17C0F6FF16C0F4FF55
:1000780015C0F3FF14C0DAFF13C0D9FF12C0E2FFA6
:1000880011C0E1FF10C0EAFF0FC0E9FF0EC0FBFF7F
:100098000DC0FAFF4592110079EF06F00001B46F28
:1000A80000017251050F0001966F6DC097F06EC088
:1000B80098F06FC099F072C09AF0000E0001BB6F03
:1000C800000E0001BA6F050EB96F24D00001BB51B4
:1000D800010DF35000017025D96EF4500001712113
:1000E800DA6E0001BB510001746F756B050E0001DB
:1000F8007427000E7523960E00017425E16E000E1C
:1001080000017521E26EDFCFE7FF0001B94BBA2B82
:100118000001BB2B0001BB510001746F756B00011E
:1001280072510001745D0001735100017559D8A026
:10013800CDD7960E1B6E000E1C6EB9C01DF0A2EC3A
:1001480006F00001B56F960E0001B925D96E000EB4
:100158000001BA21DA6EB5C0DFFF0001B94BBA2B36
:10016800780E1B6E000E1C6E000E1E6E1E0E1D6E8F
:10017800960E1F6E000E206EB9C021F0BAC022F094
:100188001EEC02F01BC0B6F01CC0B7F01DC0B8F0E2
:10019800B4C096F0010E0001BB6F28D0FF0E00011D
:1001A800746FFF0E0001756F0001BB510001766F7F
:1001B800776B000174510001762700017551000129
:1001C8007723780E00017625D96E000E000177217D
:1001D800DA6E0001BB51010D960EF324E16E000E9C
:1001E800F420E26EDFCFE7FF0001BB2B010E000118
:1001F800B6250001746F000E0001B7210001756F6C
:100208000001BB510001766F776B0001745100014A
:10021800765D0001755100017759D8A0BFD7000E4F
:100228000001BB6F0ED00001BB51010D960EF324E7
:10023800D96E000EF420DA6EDF5018EC07F00001DA
:10024800BB2B020E0001B6250001746F000E0001E1
:10025800B7210001756F0001BB510001766F776B04
:10026800000174510001765D000175510001775954
:10027800D8B01200D8D735C06BF036C06CF037C094
:100288006DF021501F240001606F225020200001D2
:10029800616F1D501B240001626F1E501C2000015D
:1002A800636F1BC068F01CC069F01B501C10D8B4E9
:1002B80004D01F502010D8A40AD0010E00016D6F81
:1002C8006BC01BF06CC01CF06DC01DF012002150FB
:1002D8002210D8B496D01FC0D9FF20C0DAFFDF5053
:1002E80000016A6F1F4A202A00016A510001D8A440
:1002F80003D000016D8585D000016A071FC023F077
:1003080020C024F0231E241E234A242A0001605101
:1003180023240001666F0001615124200001676FEA
:1003280000016A510001665D000E6759D8B004D01B
:1003380000016D8766C06AF068C023F069C024F0C8
:10034800231E241E234A242A00016251232400016B
:10035800666F0001635124200001676F00016A5134
:100368000001665D000E6759D8B004D000016D83A6
:1003780066C06AF06AC065F0000165510001D8B432
:100388001CD01FC0D9FF20C0DAFFDF500001646F06
:100398001F4A202A000164510001D8A402D000019C
:1003A8006D8568C0D9FF69C0DAFF64C0DFFF00014E
:1003B800684B692B00016507DFD7000160511F5C9E
:1003C800000161512058D8B01CD0FE0E00016A19F6
:1003D800D8B481D7000162510001685D0001635102
:1003E80000016959D8A003D000016D830AD068C004
:1003F800D9FF69C0DAFF000EDF6E0001684B692B78
:100408006AD71BC023F01CC024F0231E241E234AD5
:10041800242A00016851232400016B6F00016951EF
:10042800242000016C6F6BC01BF06CC01CF06DC009
:100438001DF0120038C06AF039C06BF03AC06CF099
:1004480021501F240001606F225020200001616F9D
:100458001D501B240001636F1E501C200001646F97
:100468001BC066F01CC067F0010E00016625000184
:10047800686F000E000167210001696F000E00011E
:10048800626F010E0001656F1B501C10D8B404D0B8
:100498001F502010D8A40AD0010E00016C6F6AC04A
:1004A8001BF06BC01CF06CC01DF012002150221014
:1004B800D8B45CD0000163510001685D000164514B
:1004C80000016959D8A003D000016C834FD01FC028
:1004D800D9FF20C0DAFFDF500001626F1F4A202ACF
:1004E800000162510001D8A419D066C0D9FF67C0C5
:1004F800DAFF65C0DFFF68C066F069C067F0000119
:10050800684B692B010E0001656F000160511F5C8B
:10051800000161512058D8B029D0CCD768C0D9FF84
:1005280069C0DAFF62C0DFFF0001684B692B000178
:10053800652B000160511F5C000161512058D8B043
:1005480015D000016529D8A4B5D766C0D9FF67C002
:10055800DAFF65C0DFFF68C066F069C067F00001B8
:10056800684B692B010E0001656FA4D70001635128
:100578000001665D0001645100016759D8A007D0E9
:1005880000016C8363C068F064C069F006D066C07F
:10059800D9FF67C0DAFF65C0DFFF1BC023F01CC0AE
:1005A80024F0231E241E234A242A000168512324F0
:1005B80000016A6F00016951242000016B6F6AC055
:1005C8001BF06BC01CF06CC01DF0120020EE68F030
:1005D8002150D9262250DA22010EDBBE07D0010EA7
:1005E800DB503AE1640EDE5CD8B036D020EE64F021
:1005F8002150D9262250DA22DECF24F0DDCF25F093
:1006080024502124D96E25502220DA6E23C0DFFF22
:1006180020EE64F02150D9262250DA22DECF1BF0DA
:10062800DDCF1CF0000E1E6E640E1D6E5BEC07F035
:1006380020EE64F02150D9262250DA221BC0DEFFBA
:100648001CC0DDFF20EE68F02150D9262250DA22A6
:10065800DE2A000EDD22120020EE64F02150D92699
:100668002250DA22DECF24F0DDCF25F024502124D9
:10067800D96E25502220DA6E23C0DFFF20EE64F009
:100688002150D9262250DA22DECF1BF0DDCF1CF014
:10069800000E1E6E640E1D6E5BEC07F020EE64F01B
:1006A8002150D9262250DA221BC0DEFF1CC0DDFFF4
:1006B80020EE66F02150D9262250DA22DECF1BF038
:1006C800DDCF1CF0000E1E6E640E1D6E5BEC07F095
:1006D80020EE66F02150D9262250DA221BC0DEFF18
:1006E8001CC0DDFF120020EE68F00750D926085024
:1006F800DA22010EDBBE07D0010EDB503AE1640EB0
:10070800DE5CD8B036D020EE64F00750D926085009
:10071800DA22DECF0AF0DDCF0BF00A500724D96EBB
:100728000B500820DA6E09C0DFFF20EE64F0075096
:10073800D9260850DA22DECF01F0DDCF02F0000E14
:10074800046E640E036E70EC07F020EE64F0075040
:10075800D9260850DA2201C0DEFF02C0DDFF20EEF4
:1007680068F00750D9260850DA22DE2A000EDD226A
:10077800120020EE64F00750D9260850DA22DECFA6
:100788000AF0DDCF0BF00A500724D96E0B50082071
:10079800DA6E09C0DFFF20EE64F00750D926085052
:1007A800DA22DECF01F0DDCF02F0000E046E640E17
:1007B800036E70EC07F020EE64F00750D92608505D
:1007C800DA2201C0DEFF02C0DDFF20EE66F007502E
:1007D800D9260850DA22DECF01F0DDCF02F0000E74
:1007E800046E640E036E70EC07F020EE66F007509E
:1007F800D9260850DA2201C0DEFF02C0DDFF120050
:10080800CAEC07F01EBE7BD01E5004E1060E1D5C2C
:10081800D8A075D0FDEC07F0080AD8A470D0000E57
:100828000101F46F000EF36FFDEC07F00001DD6FBE
:10083800D40E0101F325D96E010E0101F421DA6EFF
:10084800DDC0DFFF850EE82EFED700F00101F34B77
:10085800F42B0001DD510001D8A4E6D7DE0E1B6E93
:10086800000E1C6E000E1E6E1E0E1D6ED40E1F6E28
:10087800010E206EF3C121F0F4C122F03FEC01F02B
:100888001BC0F5F11CC0F6F11DC0F7F1DE0E1B6EA2
:10089800000E1C6E0101F5051D6EA2EC06F00101AB
:1008A800F26FFF0E0001C46FFF0E0001C56FF5C1A6
:1008B800C6F0F6C1C7F00001C4510001C627000107
:1008C800C5510001C723DE0E0001C625D96E000EF2
:1008D8000001C721DA6E0101F251DE18D8A40FD049
:1008E8008976DE0E0001BC6F000E0001BD6FF5C1F8
:1008F800BEF0F6C1BFF085EC04F0010E1200000E48
:100908001200000120EE01F0BC51D926BD51DA22B7
:10091800DE04D8A41200000120EE03F0BC51D92651
:10092800BD51DA22DF501B6EC00E1C6E000E1D6E0C
:10093800000120EE04F0BC51D926BD51DA22DF5067
:100948001E6E000120EE02F0BC51D926BD51DA22FC
:10095800DF50DDEC04F08C88000E1C6E050E1B6E5B
:10096800E5EC06F0020E00016D6F010E00016E6FDE
:10097800010E00016F6FC00E0001706F000E0001C4
:10098800716F000120EE04F0BC51D926BD51DA2266
:10099800DF50276E27500001726F736B010E52EC07
:1009A80000F0000E1C6E030E1B6EE5EC06F08C9832
:1009B8001200206E000E1F6E000E216E000E226EB9
:1009C8003CD01B501E24216E14D01B50010DC90EA3
:1009D800F324D96E000EF420DA6E2250010DF35084
:1009E8001C24E16EF4501D20E26EDFCFE7FF222ABF
:1009F8001B2A21501B5CD8B01200E7D71B501E24BD
:100A0800216E14D01B50010D320EF324D96E000E46
:100A1800F420DA6E2250010DF3501C24E16EF450DC
:100A28001D20E26EDFCFE7FF222A1B2A21501B5C24
:100A3800D8B01200E7D71F6812002050000AD8B4B7
:100A4800C0D7010AD8B4DAD7F6D7206E000E1F6EC9
:100A5800000E216E000E226E3CD01B501E24216E0B
:100A680014D02250010DF3501C24D96EF4501D20CF
:100A7800DA6E1B50010DC90EF324E16E000EF4204E
:100A8800E26EDFCFE7FF222A1B2A21501B5CD8B079
:100A98001200E7D71B501E24216E14D02250010DDE
:100AA800F3501C24D96EF4501D20DA6E1B50010D32
:100AB800320EF324E16E000EF420E26EDFCFE7FF82
:100AC800222A1B2A21501B5CD8B01200E7D71F68C6
:100AD80012002050000AD8B4C0D7010AD8B4DAD717
:100AE800F6D720EE68F02150D9262250DA22010EDE
:100AF800DBBE3CD0010EDB5003E1DE04D8A036D0CB
:100B080020EE66F02150D9262250DA22DECF23F0DB
:100B1800DDCF24F023502124D96E24502220DA6E10
:100B2800DF50256E20EE66F02150D9262250DA22B9
:100B3800DECF1BF0DDCF1CF0000E1E6E640E1D6EA6
:100B48005BEC07F020EE66F02150D9262250DA221D
:100B58001BC0DEFF1CC0DDFF20EE68F02150D92647
:100B68002250DA22DE06000EDD5A02D0000E256E73
:100B78002550120020EE68F00750D9260850DA22D6
:100B8800010EDBBE3CD0010EDB5003E1DE04D8A031
:100B980036D020EE66F00750D9260850DA22DECF8C
:100BA80009F0DDCF0AF009500724D96E0A50082051
:100BB800DA6EDF500B6E20EE66F00750D92608502B
:100BC800DA22DECF01F0DDCF02F0000E046E640EF3
:100BD800036E70EC07F020EE66F00750D926085037
:100BE800DA2201C0DEFF02C0DDFF20EE68F0075008
:100BF800D9260850DA22DE06000EDD5A02D0000E91
:100C08000B6E0B501200948A948895869584958271
:100C18009580948694849482928E94809288928C03
:100C28000F013A8592969598000E0F01386F000EC5
:100C38000F01396F000E0F013A6F000E0F013B6F65
:100C4800000E0F013C6F720ED36E040ED26E000EB2
:100C58009B6E0AEC08F0B2EC07F085EC07F020EE8A
:100C68003FF010EE25F0040EDBCFE3FFE806FCE2D0
:100C7800000E1B6E250E1C6E000E1D6E020E1E6EE3
:100C8800000E29EC05F01200000E82B4010E3E6E33
:100C980082A402D0010E01D0000E3D103D6E80AE40
:100CA80003D0236A232A01D0236AD89023343D1025
:100CB8003D6E82A003D0236A232A01D0236AD890EC
:100CC8002336D89023343D103D6E3EC024F03DC0FD
:100CD80025F0000E1B6E240E1C6E000E1D6E020EFB
:100CE8001E6E010E29EC05F01200080EF66E100EAD
:100CF800F76E000EF86E00EE3FF010EE06F00900F9
:100D0800F5CFEEFFE550E150FAE101EE00F0F20E0A
:100D1800EE6AE806FDE100EEC9F0330EEE6AE80679
:100D2800FDE100EE2AF0150EEE6AE806FDE14590B9
:100D38004592000EF86E00012FEF07F0000E216EAD
:100D48001CD01BC0D9FF1CC0DAFFDF501F6E1B4A26
:100D58001C2A080E206E0ED021501F18010B1E6E83
:100D6800D89021321E50D8B402D08C0E211AD890B7
:100D78001F3220062050D8A4EFD71D061D28D8A45E
:100D8800E0D7215012009D9A9D98480EB86E980E93
:100D9800AB6E260EAC6E670EAF6E000EB06E000E18
:100DA800AD6E000EAE6E6A0E236E010E246E94ECCC
:100DB80007F0000E236E010E246E94EC07F09D8A56
:100DC8001200000E1F6E000E1E6E0AD0060E1D6E5B
:100DD800300EE82EFED71D2EFCD700D01E4A1F2A43
:100DE8001B501E5C1F50800A1D6E1C50800A1D5827
:100DF800D8B01200EBD7000E016E010E026EE0ECC7
:100E080007F002BE0DD0025003E10104D8A008D0BB
:100E1800000E076E010E086EBEEC05F0AD6E1200F6
:100E2800010E446E9D981200266E000E216E010E72
:100E3800226E26C023F0EAEC02F04404D8A4120083
:100E4800000E446E000E216E010E226E75EC05F048
:100E5800AD6E9D88120007EC06F08C9807EC08F040
:100E6800F4EC07F01EBEFAD71E501D101C1004E14A
:100E7800060E1B5CD8A0F2D748EC06F0EBEC07F0A6
:100E8800EDD71BC021F01CC022F008D021C0D9FF2B
:100E980022C0DAFF1DC0DFFF214A222A1F06D8A080
:100EA80020061F28F3E12028D8B41200EFD7010E3E
:100EB8001B241F6E000E1C20206E1D501F5C1E5030
:100EC8002058D8A004D0000E206E000E1F6E1FC040
:100ED8001BF020C01CF01200010E0124056E000E4C
:100EE8000220066E0350055C04500658D8A004D0B2
:100EF800000E066E000E056E05C001F006C002F079
:100F08001200940ED56ECF0ED76E2C0ED66ECF0E65
:100F18003C6E2C0E3B6EF294F28A0DEC08F0120037
:100F280023C01BF024C01CF0000E1E6E000E1D6EA8
:100F3800000E206E6A0E1F6E45EC07F01200ABA281
:100F480002D0AB98AB88AECF0CF06A0E076E010EDC
:100F5800086E0CC009F077EC03F01200F28CF28EE8
:100F6800D09E9F9A9F98F294F28A9F9C9F96A296F1
:100F78009F9212003C50D76E3BC0D6FF010E2E2622
:100F8800000E2F2230223122F29412006A0E1B6EBC
:100F9800010E1C6ED5EC07F01BC01DF01CC01EF026
:100FA800120020EE68F01B50D9261C50DA22DECF42
:100FB8001BF0DDCF1CF0120020EE68F00150D9269E
:100FC8000250DA22DECF01F0DDCF02F01200000E6F
:100FD8002E6E000E2F6E000E306E000E316E120057
:100FE8002EC01BF02FC01CF030C01DF031C01EF009
:100FF80012006A0E216E010E226E75EC05F01200C9
:1010080004020000000104EC04F01200C7EC06F032
:061018001200D58E12004B
:020000040020DA
:08000000FFFFFFFFFFFFFFFF00
:020000040030CA
:0E000000FF081F3CFFBF81FF0FC00FE00F4045
:00000001FF
