:0400000068EF00F0B5
:100008004582FACF0DF0FBCF0EF0E9CF0FF0EACF23
:1000180010F0E1CF11F0E2CF12F0D9CF13F0DACF20
:1000280014F0F3CF15F0F4CF16F0F6CF17F0F7CFA2
:1000380018F0F8CF19F0F5CF1AF09DBA9EAA03D0A0
:1000480047EC13F023D09DB89EA803D05DEC12F0C6
:100058001DD0F2BAF2A403D027EC12F017D09DB24B
:100068009EA203D0B2EC13F011D09DBC9EAC03D07D
:10007800C0EC13F00BD09DB69EA603D06DEC02F039
:1000880005D0A0B6A1A602D0C3EC13F01AC0F5FFA4
:1000980019C0F8FF18C0F7FF17C0F6FF16C0F4FF25
:1000A80015C0F3FF14C0DAFF13C0D9FF12C0E2FF76
:1000B80011C0E1FF10C0EAFF0FC0E9FF0EC0FBFF4F
:1000C8000DC0FAFF45921100EEEF10F024BE06D0E5
:1000D80024500FE10C0E235CD8B00BD023C01BF0CA
:1000E80024C01CF0000E1E6E040E1D6ECEEC0FF028
:1000F8000CD0F40E23241B6EFF0E24201C6E000E61
:100108001E6E040E1D6ECEEC0FF01BC027F01CC037
:1001180028F0030E2314296E2A6A24BE0AD024501C
:1001280004E10C0E235CD8A004D0040E2926000E8E
:100138002A2225042610D8A47DD029C0ABF0010EB0
:100148000001AC6F000E0001AD6F0001AB2B04D0B5
:10015800D8900001AC37AD370001AB2FF9D7ACC050
:10016800AEF0ADC0AFF0000E0001AFBFFF0EB06F34
:10017800B16F600E0001B26F000E0001B36FD8902E
:100188002734D96E2834DA6ED890D936DA36000199
:10019800B251D9260001B351DA220001AE51DE1264
:1001A800AF51DE12B051DE12B151DE1229C0ABF0F0
:1001B800080E0001AB27010E0001AC6F000E000114
:1001C800AD6F0001AB2B04D0D8900001AC37AD3730
:1001D8000001AB2FF9D70001AC1D0001AE6F000183
:1001E800AD1D0001AF6F0001B06B0001AFBFB007DC
:1001F8000001B0510001B16F600E0001B26F000E36
:100208000001B36FD8902734D96E2834DA6ED890AD
:10021800D936DA360001B251D9260001B351DA22B3
:100228000001AE51DE16AF51DE16B051DE16B151E7
:10023800DE161200020E25182610D8A45AD029C09E
:10024800ABF0080E0001AB27010E0001AC6F000EE9
:100258000001AD6F0001AB2B04D0D8900001AC3782
:10026800AD370001AB2FF9D729C0AEF0010E000160
:10027800AF6F000E0001B06F0001AE2B04D0D89014
:100288000001AF37B0370001AE2FF9D70001AC51EC
:100298000001AF110001B16F0001AD510001B011B3
:1002A8000001B26F0001B36B0001B2BFB3070001D8
:1002B800B3510001B46F600E0001B56F000E00016C
:1002C800B66FD8902734D96E2834DA6ED890D936DC
:1002D800DA360001B551D9260001B651DA220001FB
:1002E800B151DE12B251DE12B351DE12B451DE1238
:1002F800120025502610D8A46AD029C0ABF0080EE9
:100308000001AB27010E0001AC6F000E0001AD6FBC
:100318000001AB2B04D0D8900001AC37AD370001F9
:10032800AB2FF9D70001AC1D0001AE6F0001AD1D68
:100338000001AF6F29C0B0F0010E0001B16F000ECF
:100348000001B26F0001B02B04D0D8900001B13782
:10035800B2370001B02FF9D70001B11D0001B36F0A
:100368000001B21D0001B46F0001AE510001B315C8
:100378000001B56F0001AF510001B4150001B66F5F
:100388000001B76B0001B6BFB7070001B751000104
:10039800B86F600E0001B96F000E0001BA6FD890F7
:1003A8002734D96E2834DA6ED890D936DA36000177
:1003B800B951D9260001BA51DA220001B551DE1629
:1003C800B651DE16B751DE16B851DE161200030E0E
:1003D80025182610D8A4120029C0ABF0080E000179
:1003E800AB27010E0001AC6F000E0001AD6F0001DC
:1003F800AB2B04D0D8900001AC37AD370001AB2F40
:10040800F9D7ACC0AEF0ADC0AFF0000E0001AFBF81
:10041800FF0EB06FB16F600E0001B26F000E0001E9
:10042800B36FD8902734D96E2834DA6ED890D9367D
:10043800DA360001B251D9260001B351DA2200019F
:10044800AE51DE12AF51DE12B051DE12B151DE12E2
:1004580029C0ABF0010E0001AC6F000E0001AD6FBA
:100468000001AB2B04D0D8900001AC37AD370001A8
:10047800AB2FF9D70001AC1D0001AE6F0001AD1D17
:100488000001AF6F0001B06B0001AFBFB007000102
:10049800B0510001B16F600E0001B26F000E000193
:1004A800B36FD8902734D96E2834DA6ED890D936FD
:1004B800DA360001B251D9260001B351DA2200011F
:1004C800AE51DE16AF51DE16B051DE16B151DE1652
:1004D80012009E96C6AE2DD1C69E000E3F6E20EE2F
:1004E80003F03750D9263850DA22DECFF6FFDECFB8
:1004F800F7FF050EF76404D0010EF56E0C0006D068
:10050800F6CFE9FFF7CFEAFF010EEF6E000E376E68
:10051800000E386E120030B212002EC037F02FC015
:1005280038F02EC0D9FF2FC0DAFFDF50046E045018
:100538003B6E3C6A20EE01F02E50D9262F50DA226D
:10054800DECF39F0DDCF3AF0050E2E26000E2F2231
:10055800A90E2E1808E1000E2F18D8A404D0A40E56
:100568002E6E000E2F6E30902C502E1804E12D5058
:100578002F18D8B43082C580020E3F6E1200C58293
:10058800020E3F6E1200C5AC05D0322A040E9CEC58
:1005980011F01200D8904130056E4030046E0450BE
:1005A800C96E40A003D00B0E3F6E1200030E3F6EC3
:1005B8001200C5AC05D0322A040E9CEC11F01200D2
:1005C800C58240C004F041C005F005C004F0056ACA
:1005D800060E0416000E0516F00E0410406E0550A7
:1005E800416E4080010E3E6E020E3F6E12003E04C8
:1005F800D8B41DD039C0D9FF3AC0DAFFDECF40F0F9
:10060800DDCF41F020EE03F03950D9263A50DA22F6
:10061800DECF35F0DDCF36F020EE02F03950D926A6
:100628003A50DA22DF50046E0450336E346A40C008
:10063800C9FF40A003D0050E3F6E1200030E3F6EA7
:100648001200C5AC06D0322AC59C050E9CEC11F0F0
:1006580012003350046E3450056E010E335E000EE6
:10066800345A04500510D8A413D0050E3926000EAC
:100678003A223B06D8A03C063B503C10D8A404D0F4
:10068800000E9CEC11F01200C582020E3F6E1200A3
:1006980035C0F6FF36C0F7FFF86A050EF76403D0D9
:1006A8000800F55005D0F6CFE9FFF7CFEAFFEF5085
:1006B800C96E354A362A1200C5AC06D0322A040E55
:1006C8009CEC11F0C59C1200C586080E3F6E120006
:1006D800080E3F6EC586120035C0F6FF36C0F7FF1C
:1006E800F86A050EF76404D0C9CFF5FF0C0006D0F0
:1006F800F6CFE9FFF7CFEAFFC9CFEFFF354A362A31
:100708003306D8A0340633503410D8B404D0C59A70
:10071800060E3F6E03D0C58A18EC13F0C588120088
:10072800000E9CEC11F01200322A060E9CEC11F01F
:1007380012003F50000AD8B4EED6010AD8B41FD729
:10074800030AD8B454D7010AD8B47BD7070AD8B457
:10075800E7D7010AD8B4B0D7030AD8B4B9D7010A81
:10076800D8B4DED70F0AD8B4B7D7020AD8B40BD793
:10077800010AD8B41ED7D8D7000E046E000E036E37
:10078800C3D0D8900334D96E0434DA6E100ED9264B
:10079800010EDA22DE04DE10D8B498D0AFD08BB2C6
:1007A80002D08B823BD08B9239D089BC02D0898C05
:1007B80035D0899C33D089BE02D0898E2FD0899EAE
:1007C8002DD08DB402D08D8429D08D9427D08DB2B0
:1007D80002D08D8223D08D9221D08DB002D08D8011
:1007E8001DD08D901BD003C001F004C002F0025050
:1007F800000AD8A413D00150000AD8B4D0D7010AEF
:10080800D8B4D3D7030AD8B4D6D7010AD8B4D9D71D
:10081800070AD8B4DCD7010AD8B4DFD7D890033494
:10082800D96E0434DA6E880ED926000EDA22010E4B
:1008380049D08BB202D08B823BD08B9239D089BC05
:1008480002D0898C35D0899C33D089BE02D0898E5C
:100858002FD0899E2DD08DB402D08D8429D08D942F
:1008680027D08DB202D08D8223D08D9221D08DB029
:1008780002D08D801DD08D901BD003C001F004C024
:1008880002F00250000AD8A413D00150000AD8B4CC
:10089800D0D7010AD8B4D3D7030AD8B4D6D7010A17
:1008A800D8B4D9D7070AD8B4DCD7010AD8B4DFD767
:1008B800D8900334D96E0434DA6E880ED926000E27
:1008C800DA22000EDE6E000EDD6E18D0D8900334EA
:1008D800D96E0434DA6E880ED926000EDA22DECFFD
:1008E80001F0DDCF02F00250000AD8A407D0015071
:1008F800000AD8B478D7010AD8B4BFD7010E0324A8
:10090800036E000E0420046E04BE3BD7045004E1BD
:10091800060E035CD8A035D70001D2510001D311CF
:10092800D8B4120001D8120005000001FA6ED251A5
:10093800FD6ED351FE6EF850FF6EFA50120031C1B1
:10094800B6F032C1B7F033C1B8F021501F2400010E
:10095800AB6F225020200001AC6F1D501B240001FA
:10096800AD6F1E501C200001AE6F1BC0B3F01CC041
:10097800B4F01B501C10D8B404D01F502010D8A4B9
:100988000AD0010E0001B86FB6C01BF0B7C01CF04A
:10099800B8C01DF0120021502210D8B496D01FC044
:1009A800D9FF20C0DAFFDF500001B56F1F4A202AA7
:1009B8000001B5510001D8A403D00001B88585D045
:1009C8000001B5071FC023F020C024F0231E241EF9
:1009D800234A242A0001AB5123240001B16F0001EE
:1009E800AC5124200001B26F0001B5510001B15D86
:1009F800000EB259D8B004D00001B887B1C0B5F024
:100A0800B3C023F0B4C024F0231E241E234A242A92
:100A18000001AD5123240001B16F0001AE51242023
:100A28000001B26F0001B5510001B15D000EB2596D
:100A3800D8B004D00001B883B1C0B5F0B5C0B0F0EB
:100A48000001B0510001D8B41CD01FC0D9FF20C08C
:100A5800DAFFDF500001AF6F1F4A202A0001AF51B3
:100A68000001D8A402D00001B885B3C0D9FFB4C032
:100A7800DAFFAFC0DFFF0001B34BB42B0001B007B2
:100A8800DFD70001AB511F5C0001AC512058D8B032
:100A98001CD0FE0E0001B519D8B481D70001AD51A4
:100AA8000001B35D0001AE510001B459D8A003D0D4
:100AB8000001B8830AD0B3C0D9FFB4C0DAFF000E72
:100AC800DF6E0001B34BB42B6AD71BC023F01CC0E8
:100AD80024F0231E241E234A242A0001B351232470
:100AE8000001B66F0001B45124200001B76FB6C0F1
:100AF8001BF0B7C01CF0B8C01DF012000101B66FA2
:100B08000001BD51050F0101986FB8C099F1B9C036
:100B18009AF1BAC09BF1BDC09CF1000E0101BD6FF6
:100B2800000E0101BC6F050EBB6F20D00101BD5145
:100B3800010DF3500001BB25D96EF4500001BC2112
:100B4800DA6E0101BD51276E286A050E2726000EB0
:100B58002822980E2724E16E010E2820E26EDFCFAE
:100B6800E7FF0101BB4BBC2B0101BD2B0101BD51AE
:100B7800276E286A0001BD51275C0001BE51285824
:100B8800D8A0D4D7980E1B6E010E1C6EBBC11DF0E9
:100B9800C2EC11F00101B76F980E0101BB25D96EA7
:100BA800010E0101BC21DA6EB7C1DFFF0101BB4BA9
:100BB800BC2B7A0E1B6E010E1C6E000E1E6E1E0ED6
:100BC8001D6E980E1F6E010E206EBBC121F0BCC1B8
:100BD80022F051EC06F01BC0B8F11CC0B9F11DC0E1
:100BE800BAF1B6C198F1010E0101BD6F1FD0FF0E19
:100BF800276EFF0E286E0101BD51296E2A6A275003
:100C0800292628502A227A0E2924D96E010E2A2054
:100C1800DA6E0101BD51010D980EF324E16E010E4B
:100C2800F420E26EDFCFE7FF0101BD2B010E0101C9
:100C3800B825276E000E0101B921286E0101BD51AA
:100C4800296E2A6A2750295C28502A58D8A0CFD75D
:100C5800000E0101BD6F0ED00101BD51010D980EAE
:100C6800F324D96E010EF420DA6EDF5076EC12F020
:100C78000101BD2B020E0101B825276E000E0101EE
:100C8800B921286E0101BD51296E2A6A2750295CB5
:100C980028502A58D8B01200DFD794C0B5F095C0B4
:100CA800B6F096C0B7F021501F240001AB6F225058
:100CB80020200001AC6F1D501B240001AE6F1E5098
:100CC8001C200001AF6F1BC0B1F01CC0B2F0010EB8
:100CD8000001B1250001B36F000E0001B22100012F
:100CE800B46F000E0001AD6F010E0001B06F1B5014
:100CF8001C10D8B404D01F502010D8A40AD0010E5C
:100D08000001B76FB5C01BF0B6C01CF0B7C01DF02E
:100D1800120021502210D8B45CD00001AE5100015D
:100D2800B35D0001AF510001B459D8A003D0000150
:100D3800B7834FD01FC0D9FF20C0DAFFDF500001B2
:100D4800AD6F1F4A202A0001AD510001D8A419D067
:100D5800B1C0D9FFB2C0DAFFB0C0DFFFB3C0B1F095
:100D6800B4C0B2F00001B34BB42B010E0001B06F58
:100D78000001AB511F5C0001AC512058D8B029D0FC
:100D8800CCD7B3C0D9FFB4C0DAFFADC0DFFF0001D4
:100D9800B34BB42B0001B02B0001AB511F5C000119
:100DA800AC512058D8B015D00001B029D8A4B5D777
:100DB800B1C0D9FFB2C0DAFFB0C0DFFFB3C0B1F035
:100DC800B4C0B2F00001B34BB42B010E0001B06FF8
:100DD800A4D70001AE510001B15D0001AF5100017F
:100DE800B259D8A007D00001B783AEC0B3F0AFC0E6
:100DF800B4F006D0B1C0D9FFB2C0DAFFB0C0DFFF8F
:100E08001BC023F01CC024F0231E241E234A242ABE
:100E18000001B35123240001B56F0001B45124200F
:100E28000001B66FB5C01BF0B6C01CF0B7C01DF00E
:100E380012000001C76F000E0001B36F020E00011F
:100E4800CA6F000E0001C96F000EC86F2FD0B30E15
:100E58000001AB6F000E0001AC6F000E0001AE6F19
:100E6800010EAD6FC7C0AFF00001B06BCA0E000134
:100E7800B16F000E0001B26F72EC11F0020E0001AA
:100E8800CA19D8B4FBD70001CA510001D8B412D08E
:100E9800040E0001C8190001C911D8B40BD0000113
:100EA800CA05D8B407D00001C84BC92B0001CA0530
:100EB800D8A4CDD7020E0001CA6F000E0001B36F8F
:100EC80060C0B4F061C0B5F064C0B6F065C0B7F0FA
:100ED80068C0B8F069C0B9F06CC0BAF06DC0BBF0BA
:100EE80070C0BCF071C0BDF074C0BEF075C0BFF07A
:100EF80078C0C0F079C0C1F07CC0C2F07DC0C3F03A
:100F080080C0C4F081C0C5F0000E0001C96F000E9A
:100F1800C86F2FD0B30E0001AB6F000E0001AC6F8D
:100F2800000E0001AE6F110EAD6FC7C0AFF000012B
:100F3800B06BCA0E0001B16F000E0001B26F72EC07
:100F480011F0020E0001CA19D8B4FBD70001CA512A
:100F58000001D8B41200040E0001C8190001C9111B
:100F6800D8B412000001CA05D8B412000001C84B59
:100F7800C92B0001CA05D8B41200CCD7B6C0B8F046
:100F88000001B96BBA6B0001B5350001B83701E350
:100F9800B9810001B8510001C26F0001C251D8A443
:100FA8000AD0000E0001B46F000EB56F000EB66FC8
:100FB800000EB76F1200170E0001B86FB4C0B9F079
:100FC800B5C0BAF0B6C0BBF00001B8290001BC6FCB
:100FD80005D00001D890BB33BA33B9330001BC2F18
:100FE800F8D70001B9510001BD6F0001B58FFF0EA0
:100FF8000001B417FF0E0001B517000E0001B61767
:101008000001B4510001BE6F0001B5510001BF6F6E
:101018000001B6510001C06F0001C16B8E0E0001C6
:10102800C25F0001C2AF1AD00001C251800A8F0FFF
:10103800D8B00AD0000E0001B46F000EB56F000ED4
:10104800B66F000EB76F12000001D890C133C033DD
:10105800BF33BE330001C23FF7D71BD0170E0001C4
:10106800C26512D0000E0001B46F000EB56F000EFD
:10107800B66F000EB76F12000001D890BE37BF37A9
:10108800C037C1370001C2070001C2510001D8A40E
:10109800F3D70001BD510001D8B409D00001C11F28
:1010A800C01FBF1FBE6D000EBF23C023C123BEC01B
:1010B800B4F0BFC0B5F0C0C0B6F0C1C0B7F0120000
:1010C80028C0ABF00001AC6BAD6B27340001AB3727
:1010D80001E3AC810001AB510001AE6F0001AE51DC
:1010E800D8A407D0000E266E000E276E000E286EBC
:1010F80012002BC0ABF00001AC6BAD6B2A340001C1
:10110800AB3701E3AC810001AB510001B36F0001C3
:10111800B351D8A407D0000E266E000E276E000E1D
:10112800286E12000001B3517B0F0001AE2728C0C2
:10113800B3F02B500001B31B800E0001B317278EAC
:101148002A8EFF0E2916FF0E2A16000E2B16000EE9
:101158000001AF6F000E0001B06F000E0001B16F0B
:10116800070E0001B26F26A009D029500001AF2751
:101178002A500001B0232B500001B123D890283207
:1011880027322632D89029362A362B360001B22F3C
:10119800EAD7090E0001B26F26A009D02950000134
:1011A800AF272A500001B0232B500001B123D8905B
:1011B8002832273226320001D890B133B033AF330A
:1011C8000001B22FE9D7AFC01BF0B0C01CF0B1C00E
:1011D8001DF0AEC01EF0B3C01FF074EC0CF01BC0C5
:1011E80026F01CC027F01DC028F0120062EC13F096
:1011F8001EBE88D01E5004E1060E1D5CD8A082D009
:101208008CEC13F0030AD8A474D0000E0001CE6F42
:10121800000ECD6F8CEC13F00001A36F520E00018D
:10122800CD25D96E010E0001CE21DA6EA3C0DFFFF5
:10123800850EE82EFED700F00001CD4BCE2B000125
:10124800A3510001D8A4E6D7340E1B6E010E1C6E04
:10125800000E1E6E1E0E1D6E520E1F6E010E206EAB
:10126800CDC021F0CEC022F0A3EC04F01BC0CFF01B
:101278001CC0D0F01DC0D1F0340E1B6E010E1C6EC8
:101288000001CF051D6EC2EC11F00001CC6FFF0EFE
:101298000001C76FFF0E0001C86FCFC0C9F0D0C0F2
:1012A800CAF00001C7510001C9270001C851000157
:1012B800CA23340E0001C925D96E010E0001CA21C6
:1012C800DA6E0001CC51DE18D8A41CD089B602D041
:1012D800898601D08996340E0001BF6F010E000186
:1012E800C06FCFC0C1F0D0C0C2F01CEC0CF0010E32
:1012F80012008CEC13F00001A36F0001A351000150
:10130800D8A4F7D7000E120020EECCF02150D92631
:101318002250DA22010EDBBE07D0010EDB503AE183
:10132800C80EDE5CD8B036D020EEC8F02150D926E1
:101338002250DA22DECF24F0DDCF25F024502124FC
:10134800D96E25502220DA6E23C0DFFF20EEC8F0C8
:101358002150D9262250DA22DECF1BF0DDCF1CF037
:10136800000E1E6EC80E1D6EBAEC12F020EEC8F00C
:101378002150D9262250DA221BC0DEFF1CC0DDFF17
:1013880020EECCF02150D9262250DA22DE2A000E97
:10139800DD22120020EEC8F02150D9262250DA2290
:1013A800DECF24F0DDCF25F024502124D96E25503E
:1013B8002220DA6E23C0DFFF20EEC8F02150D926A4
:1013C8002250DA22DECF1BF0DDCF1CF0000E1E6E9D
:1013D800C80E1D6EBAEC12F020EEC8F02150D926C6
:1013E8002250DA221BC0DEFF1CC0DDFF20EECAF04F
:1013F8002150D9262250DA22DECF1BF0DDCF1CF097
:10140800000E1E6EC80E1D6EBAEC12F020EECAF069
:101418002150D9262250DA221BC0DEFF1CC0DDFF76
:10142800120020EECCF00750D9260850DA22010E1F
:10143800DBBE07D0010EDB503AE1C80EDE5CD8B047
:1014480036D020EEC8F00750D9260850DA22DECF71
:101458000AF0DDCF0BF00A500724D96E0B50082094
:10146800DA6E09C0DFFF20EEC8F00750D926085011
:10147800DA22DECF01F0DDCF02F0000E046EC80ED6
:10148800036ECFEC12F020EEC8F00750D9260850B2
:10149800DA2201C0DEFF02C0DDFF20EECCF00750EB
:1014A800D9260850DA22DE2A000EDD22120020EEAC
:1014B800C8F00750D9260850DA22DECF0AF0DDCF6F
:1014C8000BF00A500724D96E0B500820DA6E09C0B9
:1014D800DFFF20EEC8F00750D9260850DA22DECF09
:1014E80001F0DDCF02F0000E046EC80E036ECFECE3
:1014F80012F020EEC8F00750D9260850DA2201C0B1
:10150800DEFF02C0DDFF20EECAF00750D9260850E2
:10151800DA22DECF01F0DDCF02F0000E046EC80E35
:10152800036ECFEC12F020EECAF00750D92608500F
:10153800DA2201C0DEFF02C0DDFF120068D0260EED
:101548000124D96E010E0220DA6E83AA02D0010EA0
:1015580001D0000EDF6E1200260E0124D96E010E96
:101568000220DA6E81A002D0010E01D0000EDF6EDB
:101578001200260E0124D96E010E0220DA6E81A215
:1015880002D0010E01D0000EDF6E1200260E0124DB
:10159800D96E010E0220DA6E81A402D0010E01D0AC
:1015A800000EDF6E1200260E0124D96E010E0220F5
:1015B800DA6E81A802D0010E01D0000EDF6E120093
:1015C800260E0124D96E010E0220DA6E80A002D008
:1015D800010E01D0000EDF6E1200260E0124D96E16
:1015E800010E0220DA6E80A202D0010E01D0000E98
:1015F800DF6E1200260E0124D96E010E0220DA6E6B
:1016080080A402D0010E01D0000EDF6E120001C0CE
:1016180003F002C004F00450000AD8A412000350DA
:10162800000AD8B48CD7010AD8B496D7030AD8B41C
:10163800A0D7010AD8B4AAD7070AD8B4B4D7010AE0
:10164800D8B4BED7030AD8B4C8D7010AD8A41200A0
:10165800D1D70001BE6F1F0E0001BE6504D07F0EFA
:101668000001BE6503D0200E0001BE6F000E276E7C
:10167800FF0E286E0001BE51296E2A6AD8902936BD
:101688002A36D89029362A36D89029362A3627502D
:10169800292628502A22D30E29240001BC6F7B0E4C
:1016A8002A200001BD6F400E0001B36FB40E1B6EFF
:1016B800000E1C6EBCC01DF0BDC01EF0000E206EDA
:1016C800080E1F6ECBEC0CF0020E0001BF6F000E6F
:1016D8000001986F000E976F30D0B30E0001AB6F0A
:1016E800000E0001AC6F000E0001AE6F090EAD6F69
:1016F800000E0001B06F3C0EAF6FBF0E0001B16F5E
:10170800000E0001B26F72EC11F0020E0001BF1959
:10171800D8B4FBD70001BF510001D8B41200020EA3
:101728000001971900019811D8B412000001BF05F3
:10173800D8B412000001974B982B0001BF05D8B40C
:101748001200CBD7F6EC12F0F28EF28C700E6FEC22
:101758000DF0710E6FEC0DF09AEC13F087EC10F0B1
:101768008986B6EC13F0AEEC13F01CBEFAD71C5009
:1017780004E1030E1B5CD8A0F4D7C30E296E750EC6
:101788002A6E3E0E2B6EA9EC13F01BC023F01CC072
:1017980024F0E4EC12F023C026F024C027F025C082
:1017A80028F064EC08F026C0B4F027C0B5F028C0D3
:1017B800B6F0C2EC07F0B4C0C3F0B5C0C4F0000E78
:1017C8000001C66F010EC56F1DEC0DF0700E1DEC0B
:1017D80007F0C30E296E750E2A6E3E0E2B6EA4EC12
:1017E80013F01BC023F01CC024F0E4EC12F023C05B
:1017F80026F024C027F025C028F064EC08F026C0A5
:10180800B4F027C0B5F028C0B6F0C2EC07F0B4C0F9
:10181800C3F0B5C0C4F0000E0001C66F010EC56F5D
:101828001DEC0DF0710E1DEC07F0B9EC13F099D713
:10183800000120EE01F0BF51D926C051DA22DE04A2
:10184800D8A41200000120EE03F0BF51D926C051E0
:10185800DA22DF501B6EC30E1C6E000E1D6E0001D7
:1018680020EE04F0BF51D926C051DA22DF501E6E97
:10187800000120EE02F0BF51D926C051DA22DF5014
:10188800AAEC0EF08B8A000E1C6E050E1B6E43EC44
:1018980012F0020E0001B86F010E0001B96F010EBF
:1018A8000001BA6FC30E0001BB6F000E0001BC6FD0
:1018B800000120EE04F0BF51D926C051DA22DF50D2
:1018C8002B6E2B500001BD6FBE6B010E82EC05F034
:1018D800000E1C6E030E1B6E43EC12F08B9A120066
:1018E8001E50D8B405D01B501C101D10D8A40CD005
:1018F800000E1B6E000E1C6E000E1D6E12001E2ABE
:10190800D8901D321C321B32000E1B14206E000EA4
:101918001C14216EFE0E1D14226E20502110221060
:10192800D8B40CD0ECD71E2A010E1B26000E1C22A0
:10193800000E1D22D8901D321C321B32000E1B14C3
:10194800206E000E1C14216EFF0E1D14226E2050F6
:1019580021102210D8B406D0E6D71E06D8901B3620
:101968001C361D361CBE03D0020E1E60F6D71EA004
:101978001C9ED8901E321E501D121F50D8A41D8EBA
:101988001BC01BF01CC01CF01DC01DF012001DC0A8
:1019980025F01EC026F01BC023F01CC024F02350E5
:1019A800255C24502658D8B02DD01F502524216EF0
:1019B80020502620226E2150235C22502458D8B073
:1019C80021D01F502526205026221F502326205084
:1019D80024222506D8A0260625C0F6FF26C0F7FF34
:1019E8002306D8A0240623C0D9FF24C0DAFF0800A4
:1019F800F5CFDFFF1F06D8A020061F502010D8B44F
:101A08001200E7D71F502010D8B4120025C0F6FFE7
:101A180026C0F7FF23C0D9FF24C0DAFF0800F5CF9E
:101A2800DFFF254A262A234A242A1F06D8A0200693
:101A3800E9D70001C4BF0DD00001C45105E1190E5A
:101A48000001C35DD8A005D0000E0001C46F180EB8
:101A5800C36F0001C4AF05D0000E0001C46F000EB3
:101A6800C36F000E0001C96F000EC86F0001C9BF27
:101A780008D00001C9512EE1180E0001C85DD8B088
:101A880012000001C3510001C85D0001C951800A5C
:101A98000001C76F0001C451800A0001C759D8B0BE
:101AA8000BD0C8C023F0C9C024F0C5C025F0C6C0FB
:101AB80026F06AEC00F00AD0C8C023F0C9C024F0B0
:101AC800000E266E000E256E6AEC00F00001C84B71
:101AD800C92BCCD712000001BD6F210E0001B86FD1
:101AE800020E0001BE6F000E0001BC6F000EBB6F3E
:101AF8002FD0B80E0001AB6F000E0001AC6F000EC6
:101B08000001AE6F010EAD6FBDC0AFF00001B06B4C
:101B1800BE0E0001B16F000E0001B26F72EC11F041
:101B2800020E0001BE19D8B4FBD70001BE51000156
:101B3800D8B412D0040E0001BB190001BC11D8B4EE
:101B48000BD00001BE05D8B407D00001BB4BBC2B9D
:101B58000001BE05D8A4CDD7000E266E000E256E56
:101B6800BDC027F0C1EC0DF0000E266E0F0E256EDD
:101B7800BDC027F05DEC0EF0120026BE0AD026503C
:101B880004E1040E255CD8A004D0000E266E000ED9
:101B9800256E2550252481090001B56F020E00012C
:101BA800B76F000E0001B46F000EB36F2FD0B50EE3
:101BB8000001AB6F000E0001AC6F000E0001AE6FAC
:101BC800010EAD6F27C0AFF00001B06BB70E00017A
:101BD800B16F000E0001B26F72EC11F0020E00013D
:101BE800B719D8B4FBD70001B7510001D8B4120017
:101BF800040E0001B3190001B411D8B41200000199
:101C0800B705D8B412000001B34BB42B0001B705D7
:101C1800D8B41200CCD730B039D01FC0D9FF20C0FB
:101C2800DAFF020EDF6E20EE01F02C50D9262D507F
:101C3800DA221DC0DEFF1EC0DDFF2CC0D9FF2DC07B
:101C4800DAFF1BC0DFFF20EE03F02C50D9262D5001
:101C5800DA221FC0DEFF20C0DDFF050E2C26000E95
:101C68002D22A90E2C1808E1000E2D18D8A404D096
:101C7800A40E2C6E000E2D6E30922C502E180CE1F6
:101C88002D502F18D8A408D0308006D01FC0D9FFF7
:101C980020C0DAFF010EDF6E1FC0D9FF20C0DAFFB7
:101CA800020EDE18D8A412003F50D8A4FDD79E8695
:101CB800120026BE0AD0265004E1100E255CD8A0DA
:101CC80004D0000E266E0F0E256E2550E009000187
:101CD800B56F020E0001B76F000E0001B46F000E61
:101CE800B36F2FD0B50E0001AB6F000E0001AC6FC3
:101CF800000E0001AE6F010EAD6F27C0AFF00001FE
:101D0800B06BB70E0001B16F000E0001B26F72EC3C
:101D180011F0020E0001B719D8B4FBD70001B75172
:101D28000001D8B41200040E0001B3190001B41167
:101D3800D8B412000001B705D8B412000001B34BA3
:101D4800B42B0001B705D8B41200CCD7206E000E12
:101D58001F6E000E216E000E226E3CD01B501E24FA
:101D6800216E14D01B50010D1C0EF324D96E010EE8
:101D7800F420DA6E2250010DF3501C24E16EF45069
:101D88001D20E26EDFCFE7FF222A1B2A21501B5CB1
:101D9800D8B01200E7D71B501E24216E14D01B5058
:101DA800010D2E0EF324D96E010EF420DA6E2250A6
:101DB800010DF3501C24E16EF4501D20E26EDFCFBC
:101DC800E7FF222A1B2A21501B5CD8B01200E7D754
:101DD8001F6812002050000AD8B4C0D7010AD8B42E
:101DE800DAD7F6D720EECCF02150D9262250DA22C5
:101DF800010EDBBE3CD0010EDB5003E1DE04D8A0AF
:101E080036D020EECAF02150D9262250DA22DECF71
:101E180023F0DDCF24F023502124D96E2450222032
:101E2800DA6EDF50256E20EECAF02150D9262250F6
:101E3800DA22DECF1BF0DDCF1CF0000E1E6EC80EBE
:101E48001D6EBAEC12F020EECAF02150D9262250AD
:101E5800DA221BC0DEFF1CC0DDFF20EECCF02150D3
:101E6800D9262250DA22DE06000EDD5A02D0000EF4
:101E7800256E2550120020EECCF00750D9260850C8
:101E8800DA22010EDBBE3CD0010EDB5003E1DE049A
:101E9800D8A036D020EECAF00750D9260850DA224A
:101EA800DECF09F0DDCF0AF009500724D96E0A50B9
:101EB8000820DA6EDF500B6E20EECAF00750D926E4
:101EC8000850DA22DECF01F0DDCF02F0000E046EFA
:101ED800C80E036ECFEC12F020EECAF00750D926D8
:101EE8000850DA2201C0DEFF02C0DDFF20EECCF090
:101EF8000750D9260850DA22DE06000EDD5A02D035
:101F0800000E0B6E0B501200AE0E10EC10F0A80E67
:101F180010EC10F03F0E10EC10F0D30E10EC10F097
:101F2800000E10EC10F0400E10EC10F0A00E10ECAB
:101F380010F0A10E10EC10F0C00E10EC10F0C80E4E
:101F480010EC10F0DA0E10EC10F0120E10EC10F08D
:101F5800810E10EC10F0FF0E10EC10F0A40E10EC37
:101F680010F0A60E10EC10F0D50E10EC10F0800E4C
:101F780010EC10F08D0E10EC10F0140E10EC10F0A8
:101F8800AF0E10EC10F0200E10EC10F0000E10EC5C
:101F980010F01200000E206E1EAE06D01D6C1E1E24
:101FA800D8B01E2A010E206E1CAE06D01B6C1C1E5B
:101FB800D8B01C2A010E201A000E226E000E216EC7
:101FC8001D501E10D8B41CD0010E1F6E04D0D8901E
:101FD8001D361E361F2A1EAEFAD7D8902136223655
:101FE8001D501B5C1E501C58D8A005D01D501B5EF0
:101FF8001E501C5A2180D8901E321D321F2EEDD73C
:102008002050D8B404D0216C221ED8B0222A21C076
:102018001BF022C01CF01200256E800E0001A96F73
:1020280025C0AAF0020E266E000E0001986F000E61
:10203800976F2CD0A90E0001AB6F000E0001AC6F9A
:10204800000E0001AE6F020EAD6F000E0001B06F02
:102058003C0EAF6F260E0001B16F000E0001B26F8B
:1020680072EC11F0020E2618D8B4FCD72650D8B45A
:102078001200020E0001971900019811D8B412003D
:102088002604D8B412000001974B982B2604D8B424
:102098001200D0D7000E896EF70E926E200E0F0137
:1020A800386F000E8A6ED70E936E000E0F01396FCF
:1020B800000E616E180E8B6EDF0E946E000E8C6E25
:1020C800FD0E956EDD0E0F013B6F000E8D6E000E3E
:1020D800966E000E0F013C6FE40E0F013A6F949A52
:1020E8000F013A9B8B9A949AF18E92960F0138972A
:1020F800949C948E0F013A9D0F013A9F929C949262
:10210800899C8B921200030E276E020EBCEC10F015
:10211800E30E0001C06F7F0E0001C16F48EC11F0A3
:10212800030E276E030EBCEC10F0FC0E0001C06F0E
:102138007F0E0001C16F48EC11F0030E276E040EEC
:10214800BCEC10F0F60E0001C06F7F0E0001C16FED
:1021580048EC11F0030E276E050EBCEC10F0EE0EE5
:102168000001C06F7F0E0001C16F48EC11F0120032
:10217800296E2950B00F10EC10F02950B00F10EC58
:1021880010F02750080DF3500F0B10EC10F02750EB
:10219800080DF3500F0B10EC10F02750080D040E2B
:1021A800286EF434F432F332282EFBD7F3500F0B99
:1021B800100F10EC10F02750080D040E286EF434A0
:1021C800F432F332282EFBD7F3500F0B100F10EC1C
:1021D80010F01200880EF66E270EF76E000EF86EDD
:1021E8000900F5CF44F003EE00F0CE0EEE6AE806E3
:1021F800FDE102EE00F0CE0EEE6AE806FDE101EE2A
:1022080000F07A0EEE6AE806FDE100EE60F04B0E93
:10221800EE6AE806FDE100EE2CF0160EEE6AE8061E
:10222800FDE145904592000EF86E0001A6EF0BF017
:10223800000E0001C16F000EC06F0001C15123E103
:10224800080E0001C05DD8B01200000E0001C36F77
:10225800000EC26F0001C35112E1100E0001C25DF1
:10226800D8B00DD0C2C027F00001C051BCEC10F0AE
:10227800200E2DEC0BF00001C24BC32BEBD7000155
:10228800C04BC12BDAD7120015D0C0C0F6FFC1C0B1
:10229800F7FFF86A050EF76403D00800F55005D07B
:1022A800F6CFE9FFF7CFEAFFEF502DEC0BF0000176
:1022B800C04BC12BC0C0F6FFC1C0F7FFF86A050EBE
:1022C800F76403D00800F55005D0F6CFE9FFF7CF43
:1022D800EAFFEF500009D8B41200D7D730B021D0A8
:1022E800750E1B6E010E1C6EABC01DF0ACC01EF04F
:1022F800ADC01FF0AEC020F0AFC021F0B0C022F0DA
:10230800E7EC11F0000E1C6E010E1B6E750E1D6EB3
:10231800010E1E6EB1C01FF0B2C020F00FEC0EF01F
:102328001200B1C0D9FFB2C0DAFF010EDF6E120091
:10233800036EC58420EE03F03750D9263850DA22D0
:10234800DE50DE10D8B417D020EE03F03750D9266F
:102358003850DA22DECFF6FFDECFF7FF050EF7643E
:1023680004D003C0F5FF0C0006D0F6CFE9FFF7CF85
:10237800EAFF03C0EFFF000E3F6E1200000E216E51
:102388001CD01BC0D9FF1CC0DAFFDF501F6E1B4AD0
:102398001C2A080E206E0ED021501F18010B1E6E2D
:1023A800D89021321E50D8B402D08C0E211AD89061
:1023B8001F3220062050D8A4EFD71D061D28D8A408
:1023C800E0D72150120021C023F022C024F0D89079
:1023D800233624361BC0D9FF1CC0DAFF23C0DEFF1A
:1023E80024C0DDFF20EE02F01B50D9261C50DA2253
:1023F8001FC0DFFF20EE03F01B50D9261C50DA2245
:102408001DC0DEFF1EC0DDFF12009D9A9D98480E7C
:10241800B86E980EAB6E260EAC6E670EAF6E000EE1
:10242800B06E000EAD6E000EAE6E000E236E020E84
:10243800246E38EC13F0000E236E030E246E38EC75
:1024480013F09D8A12004350D76E42C0D6FF000E8B
:10245800066E000E056E06BE06D006500DE1080E8B
:10246800055CD8B009D005C001F006C002F0A2ECA6
:102478000AF0054A062AEFD73D2AF2941200000E08
:102488001F6E000E1E6E0AD0060E1D6E300EE82E50
:10249800FED71D2EFCD700D01E4A1F2A1B501E5CDB
:1024A8001F50800A1D6E1C50800A1D58D8B012009B
:1024B800EBD7000E016E030E026E78EC13F002BE2D
:1024C8000DD0025003E10104D8A008D0000E076E19
:1024D800030E086E3FEC0FF0AD6E1200010E446E55
:1024E8009D981200266E000E216E030E226E26C0E5
:1024F80023F088EC09F04404D8A41200000E446EBE
:10250800000E216E030E226EF6EC0EF0AD6E9D8865
:102518001200A40E2E6E000E2F6EA40E2C6E000E4E
:102528002D6E30823090000E326E800EC76E280EEF
:10253800C66E000ECB6E030EC86E9E969D86120068
:102548001BC021F01CC022F008D021C0D9FF22C036
:10255800DAFF1DC0DFFF214A222A1F06D8A0200665
:102568001F28F3E12028D8B41200EFD7010E1B244E
:102578001F6E000E1C20206E1D501F5C1E50205820
:10258800D8A004D0000E206E000E1F6E1FC01BF0D6
:1025980020C01CF01200010E0124056E000E02205E
:1025A800066E0350055C04500658D8A004D0000EEF
:1025B800066E000E056E05C001F006C002F012009E
:1025C80023C01BF024C01CF01D6A8E0E1E6E000E68
:1025D8001F6E74EC0CF01BC023F01CC024F01DC04F
:1025E80025F0120093EC13F04EEC10F083EC13F08E
:1025F80056EC13F029EC13F007EC13F009EC12F089
:102608008DEC12F012007E0EBA6E300EBB6E000E0C
:10261800BC6E9E929D82840E1B6E270E1C6E9FECD4
:1026280013F0BCEC13F01200050E3926000E3A2206
:102638003B06D8A03C063B503C10D8A403D0040E5F
:102648003F6E1200010E3F6E1200940ED56ECF0E33
:10265800D76E2C0ED66ECF0E436E2C0E426EF294B1
:10266800F28ABEEC13F0120023C01BF024C01CF049
:10267800000E1E6E000E1D6E000E206ECE0E1F6E1A
:10268800A4EC12F01200ABA202D0AB98AB88AECF8C
:102698000CF0000E076E020E086E0CC009F015EC67
:1026A8000AF01200010EC26E800EC16E050EC06ED9
:1026B800000EC36E000EC46E9D8C1200000E1B6EC1
:1026C800020E1C6E6DEC13F01BC01DF01CC01EF03A
:1026D800120020EECCF01B50D9261C50DA22DECF97
:1026E8001BF0DDCF1CF0120020EECCF00150D926F3
:1026F8000250DA22DECF01F0DDCF02F01200D09EC8
:102708009F9A9F98F1949F9C9F96A2969F921200E1
:10271800000E216E020E226EF6EC0EF01200720E02
:10272800D36E040ED26E000E9B6E120088EC0FF072
:102738001CEC11F012001BC0D2F01CC0D3F0120028
:102748009FC01BF0A0C01CF012009FC01BF0A0C0CF
:102758001CF012003DC01BF01C6A12009E92C0ECD7
:1027680003F01200FAEC08F01200000E3D6E1200A1
:10277800BA841200D58E12009E9C1200120012001C
:01278800014F
:107BD20000000000000000000000005F0000000044
:107BE20000000007000700000000147F147F14004B
:107BF2000000242A7F2A1200000023130864620076
:107C02000000364955225000000000050300000024
:107C120000001C2241000000000041221C00000064
:107C22000000082A1C2A0800000008083E08080074
:107C32000000A0600000000000000808080808001A
:107C42000000606000000000000020100804020034
:107C520000003E5149453E00000000427F400000C6
:107C6200000062514949460000002241494936005C
:107C720000001814127F1000000027454545390006
:107C820000003C4A49493000000001710905030027
:107C920000003649494936000000064949291E00BC
:107CA2000000003636000000000000AC6C0000004E
:107CB20000000814224100000000141414141400DF
:107CC20000004122140800000000020151090600D0
:107CD2000000324979413E0000007E0909097E0018
:107CE20000007F494949360000003E4141412200DF
:107CF20000007F4141221C0000007F4949494100A8
:107D020000007F090909010000003E414151720053
:107D120000007F0808087F000000417F410000004A
:107D220000002040413F010000007F081422410072
:107D320000007F404040400000007F020C027F00B4
:107D420000007F0408107F0000003E4141413E00D8
:107D520000007F090909060000003E4151215E0032
:107D620000007F09192946000000264949493200CE
:107D7200000001017F01010000003F4040403F0040
:107D820000001F2040201F0000003F4038403F00FD
:107D92000000631408146300000003047804030065
:107DA200000061514945430000007F41410000004D
:107DB2000000020408102000000041417F00000082
:107DC2000000040201020400000080808080800024
:107DD2000000010204000000000020545454780006
:107DE20000007F4844443800000038444428000022
:107DF2000000384444487F000000385454541800AE
:107E02000000087E09020000000018A4A4A47C005F
:107E120000007F08040478000000007D00000000DC
:107E2200000080847D00000000007F1028440000D4
:107E32000000417F4000000000007C04180478002C
:107E420000007C08047C0000000038444438000034
:107E52000000FC24241800000000182424FC000068
:107E62000000007C08040000000048545424000074
:107E72000000047F4400000000003C40407C000001
:107E820000001C2040201C0000003C4030403C0010
:107E9200000044281028440000001CA0A07C000020
:107EA20000004464544C44000000083641000000C5
:107EB2000000007F000000000000413608000000C2
:107EC200000002010102010000000205050200009B
:107ED20000000000000000000000000000000000A0
:107EE200003F8000C0007FE00030001FFFF803FF6A
:107EF200F8248000A0007FE00078001FFFF8020055
:107F0200081500029000666060FC0017A3180EEED0
:107F1200E80E0101A000666061FE00132DE808EE84
:107F2200E8040500C000666060300014ADE808EEA9
:107F3200E8041501A000666060300017AD9808EEF5
:107F4200E80455029000666060300017A3E808EE6E
:107F5200E8055500A0007FE060300017AFE808EEAA
:107F6200E8055500C0007FE060300017AF180EEE44
:107F7200E800000000000003FC30001FFFF80200D0
:107F82000800000000000001F830001FFFF803FFA6
:107F9200F800000000000000F000000000000000F7
:107FA200000000000000000060000000000000006F
:107FB20000000000000000000000000000000000BF
:107FC20000000000000000000000000000000000AF
:107FD20000398000000000000000000000000000E6
:107FE20000556E6976657273697479005A49505307
:0E7FF2002D455600416B726F6E004F46000029
:020000040020DA
:08000000FFFFFFFFFFFFFFFF00
:020000040030CA
:0E000000FF081F3CFFBF81FF0FC00FE00F4045
:00000001FF
