:020000040000fa
:080000000002040000000000f2
:020000040000fa
:04000800c80200002a
:020000040000fa
:04000c00c802000026
:020000040000fa
:04001000c802000022
:020000040000fa
:04001400c80200001e
:020000040000fa
:04001800c80200001a
:020000040000fa
:04001c00c802000016
:020000040000fa
:04002000c802000012
:020000040000fa
:04002400c80200000e
:020000040000fa
:04002800c80200000a
:020000040000fa
:04002c00c802000006
:020000040000fa
:04003000c802000002
:020000040000fa
:04003400a011000017
:020000040000fa
:04003800c8020000fa
:020000040000fa
:04003c00c8020000f6
:020000040000fa
:04004000c8020000f2
:020000040000fa
:04004400c8020000ee
:020000040000fa
:04004800c8020000ea
:020000040000fa
:04004c00c8020000e6
:020000040000fa
:04005000c8020000e2
:020000040000fa
:04005400320b00006b
:020000040000fa
:04005800620b000037
:020000040000fa
:04005c001810000078
:020000040000fa
:04006000c8020000d2
:020000040000fa
:04006400c8020000ce
:020000040000fa
:04006800c8020000ca
:020000040000fa
:04006c00c8020000c6
:020000040000fa
:04007000c8020000c2
:020000040000fa
:04007400c8020000be
:020000040000fa
:04007800c8020000ba
:020000040000fa
:04007c00c8020000b6
:020000040000fa
:04008000c8020000b2
:020000040000fa
:04008400c8020000ae
:020000040000fa
:04008800c8020000aa
:020000040000fa
:04008c00c8020000a6
:020000040000fa
:04009000c8020000a2
:020000040000fa
:04009400c80200009e
:020000040000fa
:04009800c80200009a
:020000040000fa
:04009c00c802000096
:020000040000fa
:0400a0005209000001
:020000040000fa
:0400a40084090000cb
:020000040000fa
:0400a800c80200008a
:020000040000fa
:0400ac00c802000086
:020000040000fa
:0400b000c802000082
:020000040000fa
:0400b400c80200007e
:020000040000fa
:0400b800c80200007a
:020000040000fa
:0400bc00c802000076
:020000040000fa
:0400c000c802000072
:020000040000fa
:0400c400c80200006e
:020000040000fa
:0400c800c80200006a
:020000040000fa
:0400cc00c802000066
:020000040000fa
:0400d000c802000062
:020000040000fa
:0400d400c80200005e
:020000040000fa
:0400d800c80200005a
:020000040000fa
:0400dc00c802000056
:020000040000fa
:0400e000c802000052
:020000040000fa
:0400e400c80200004e
:020000040000fa
:0400e800c80200004a
:020000040000fa
:0400ec00c802000046
:020000040000fa
:0400f000c802000042
:020000040000fa
:0400f400c80200003e
:020000040000fa
:0400f800c80200003a
:020000040000fa
:0400fc00c802000036
:020000040000fa
:04010000c802000031
:020000040000fa
:04010400c80200002d
:020000040000fa
:04010800c802000029
:020000040000fa
:04010c00c802000025
:020000040000fa
:04011000c802000021
:020000040000fa
:04011400c80200001d
:020000040000fa
:04011800c802000019
:020000040000fa
:04011c00c802000015
:020000040000fa
:04012000c802000011
:020000040000fa
:04012400c80200000d
:020000040000fa
:04012800c802000009
:020000040000fa
:04012c00c802000005
:020000040000fa
:04013000c802000001
:020000040000fa
:04013400c8020000fd
:020000040000fa
:04013800c8020000f9
:020000040000fa
:04013c00c8020000f5
:020000040000fa
:04014000c8020000f1
:020000040000fa
:04014400c8020000ed
:020000040000fa
:04014800c8020000e9
:020000040000fa
:04014c00c8020000e5
:020000040000fa
:04015000c8020000e1
:020000040000fa
:04015400c8020000dd
:020000040000fa
:04015800c8020000d9
:020000040000fa
:04015c00c8020000d5
:020000040000fa
:04016000c8020000d1
:020000040000fa
:04016400c8020000cd
:020000040000fa
:04020800c802000028
:020000040000fa
:04020c00c802000024
:020000040000fa
:04021000c802000020
:020000040000fa
:04021400c80200001c
:020000040000fa
:04021800c802000018
:020000040000fa
:04021c00c802000014
:020000040000fa
:04022000c802000010
:020000040000fa
:04022400c80200000c
:020000040000fa
:04022800c802000008
:020000040000fa
:04022c00c802000004
:020000040000fa
:04023000c802000000
:020000040000fa
:04023400c8020000fc
:020000040000fa
:04023800c8020000f8
:020000040000fa
:04023c00c8020000f4
:020000040000fa
:04024000c8020000f0
:020000040000fa
:04024400c8020000ec
:020000040000fa
:04024800c8020000e8
:020000040000fa
:04024c00c8020000e4
:020000040000fa
:04025000c8020000e0
:020000040000fa
:04025400c8020000dc
:020000040000fa
:04025800c8020000d8
:020000040000fa
:04025c00c8020000d4
:020000040000fa
:04026000c8020000d0
:020000040000fa
:04026400c8020000cc
:020000040000fa
:04026800c8020000c8
:020000040000fa
:04026c00c8020000c4
:020000040000fa
:04027000c8020000c0
:020000040000fa
:04027400c8020000bc
:020000040000fa
:04027800c8020000b8
:020000040000fa
:04027c00c8020000b4
:020000040000fa
:04028000c8020000b0
:020000040000fa
:04028400c8020000ac
:020000040000fa
:04028800c8020000a8
:020000040000fa
:04028c00c8020000a4
:020000040000fa
:04029000c8020000a0
:020000040000fa
:04029400c80200009c
:020000040000fa
:04029800c802000098
:020000040000fa
:04029c00c802000094
:020000040000fa
:0402a000c802000090
:020000040000fa
:0402a400c80200008c
:020000040000fa
:0402a800c802000088
:020000040000fa
:0402ac00c802000084
:020000040000fa
:0402b000c802000080
:020000040000fa
:0402b400c80200007c
:020000040000fa
:0402b800c802000078
:020000040000fa
:0402bc00c802000074
:020000040000fa
:0402c000c802000070
:020000040000fa
:0402c400c80200006c
:020000040000fa
:0402c800c802000068
:020000040000fa
:0402cc00c802000064
:020000040000fa
:0402d000c802000060
:020000040000fa
:0402d400c80200005c
:020000040000fa
:0402d800c802000058
:020000040000fa
:0402dc00c802000054
:020000040000fa
:0402e000c802000050
:020000040000fa
:0402e400c80200004c
:020000040000fa
:0402e800c802000048
:020000040000fa
:0402ec00c802000044
:020000040000fa
:0402f000c802000040
:020000040000fa
:0402f400c80200003c
:020000040000fa
:0402f800c802000038
:020000040000fa
:0402fc00c802000034
:020000040000fa
:04030000c80200002f
:020000040000fa
:04030400c80200002b
:020000040000fa
:04030800c802000027
:020000040000fa
:04030c00c802000023
:020000040000fa
:04031000c80200001f
:020000040000fa
:04031400c80200001b
:020000040000fa
:04031800c802000017
:020000040000fa
:04031c00c802000013
:020000040000fa
:04032000c80200000f
:020000040000fa
:04032400c80200000b
:020000040000fa
:04032800c802000007
:020000040000fa
:04032c00c802000003
:020000040000fa
:04033000c8020000ff
:020000040000fa
:04033400c8020000fb
:020000040000fa
:04033800c8020000f7
:020000040000fa
:04033c00c8020000f3
:020000040000fa
:04034000c8020000ef
:020000040000fa
:04034400c8020000eb
:020000040000fa
:04034800c8020000e7
:020000040000fa
:04034c00c8020000e3
:020000040000fa
:04035000c8020000df
:020000040000fa
:04035400c8020000db
:020000040000fa
:04035800c8020000d7
:020000040000fa
:04035c00c8020000d3
:020000040000fa
:04036000c8020000cf
:020000040000fa
:04036400c8020000cb
:020000040000fa
:10040000efc020000e7f24000e01880000000000d5
:10041000000020000000e000020032000001200087
:1004200020028800140007007a0007000000e000a6
:1004300003003a00202a21000100200002003700ba
:100440000000200001002000810f70000100320038
:1004500014000700000020000000e000020032004d
:1004600000000200000000001e1302000000000057
:100470000040da000000fe004440a9000000200017
:100480000000e0000300320000002000a00188000e
:100490004440a800000006008a1f78008b1f7800e7
:1004a0000000060091018800800478000000eb0045
:1004b0001a003700e284440032a0b4009905ba0063
:1004c000e284440032a0b4009906ba00e2844400f9
:1004d00032a0b4000006eb00476fde00fd07b2005b
:1004e000636ce10003003a00ebff07000000eb0043
:1004f0000a003700606ce10004003a00005deb0088
:100500008b05e900fdff3e00040037006168e10053
:10051000010032000086eb000b00070019c7ba008b
:100520001905ba000e04e00003003a000a00e000da
:10053000e0ff3a0000000600fe07b2009e018800be
:100540008a047800f5ff3700395dba008b05e900b1
:100550000c003200295dba008b05e900080032006a
:100560000c00e00003003a00e284440032a0b40032
:10057000f5ff370019ddba008b05e900faff3a00f4
:100580008904e800e184440032a0b40000000600c1
:100590000040da000000fe000602ab00feff3a0059
:1005a0000642ab00fcff3a000662ab00faff3a00dd
:1005b0000622ab00f8ff3a000682ab00f6ff3a00d5
:1005c00009c2ab00f4ff3a0000000600804078004a
:1005d00000c0eb008180fb001110880008e2ab0036
:1005e00007003a0009c2ab00feff3a00eaff07002d
:1005f0000040eb000802e20001003d00e0cfb30044
:10060000000006000602a800000006000642a8003e
:1006100000000600000005006011b800000037006f
:10062000889fbe008a9fbe00008270000402710095
:1006300004827100260032000004be000200be00e9
:100640006011b8006b092000950220000182cf00e4
:100650000a0039000541b1000082cf0007003900cf
:100660000541b1000982cf00040039000541b10005
:100670000882cf00010039000541b1000542520057
:10068000120032000a003b008281710061016400a7
:100690008100d1000080d3008984d3000884d30076
:1006a0008b05e8000442e800f7ff3a000700370036
:1006b0000804440089844c00000048008180480000
:1006c0008b05e9000442e900f9ff3a000300070046
:1006d0004f05be004f04be00000006008100200050
:1006e000618055000b003d000b00200061fe2f00d3
:1006f0000100e1001d00340082817100610164008d
:100700008904d1000884d3000000e800faff3a0011
:1007100071002000610064000300700002006000ae
:100720000900320061044400e0844c000988a500ff
:10073000050032008b05e8006808e10002003a007d
:100740008904d1000884d300f20f20000258e10090
:1007500005003d00c75ddd00f907b2008980750026
:1007600008007800000006000bf827008b007800d6
:1007700000000500800178000200370081597800f0
:100780000201e9000200e000fcff3a000000060060
:020000040000fa
:100790001800fa00010f9800120f9800230f98001c
:1007a000340f98008000eb00610798008000eb0098
:1007b000710798002e099000be089000810041004a
:1007c000310798000e0990009e08900081004100ba
:1007d000410798008e089000010f78009e00e80005
:1007e000110798008040eb00214f980011c0b30022
:1007f000414798008e0890000100e000030032009d
:10080000ae0890000100e00006003a001100200050
:10081000710798006e019000fe0190000288be00f2
:1008200057003700be0890000100e0004000320091
:100830000300370000000000010037000000000046
:100840001e019000ce009000810f5100040039007d
:10085000fe0090000110a0007107980034003700de
:10086000ae08900091417800234f9800ae089000a8
:100870008100e800210f9800ae4890000104e000dc
:100880000f003a009e0078004e41900082487800a8
:100890009e019000030f78009e0090008100e80008
:1008a0001107980011c0b300414798002e0990002d
:1008b000be009000810f5100deff39001c003700a0
:1008c0009e0090002e499000824878009e00900083
:1008d0008100e80011079800ce4090008140e800b8
:1008e000414798002e099000be009000810f5100f2
:1008f0000e003100ce409000e1cf4000cfff3a0023
:100900009e007800ce419000834878009e009000c1
:10091000010f78009e0090008100e8001107980008
:1009200011c0b30041479800c5ff37000000000028
:10093000ce0090001e017800810f510006003900a2
:10094000fe0090000110a000710798004e01900079
:1009500012079800030037009e007800ce419000f7
:10096000834878001e0190008e089000810051009d
:10097000610798006e019000fe0190000288be00a1
:100980000080fa00000006001800fa00010f98002d
:10099000120f9800230f9800340f98008000eb008e
:1009a000610798008000eb00710798002e09900005
:1009b000be08900081004100210798000e099000b8
:1009c0009e08900081004100310798008e08900039
:1009d000010f78008e0890000100e0000300320053
:1009e000ae0890000100e00006003a00110020006f
:1009f000710798006e019000fe0190000288be0011
:100a000066003700be0890000100e0005c00320084
:100a10000100370000000000ae089000914178000e
:100a200033479800ae0890008100e800210f98003d
:100a3000be4090000104e00004003a00fe00900077
:100a40000120a000710798004d003700be409000c3
:100a50008140e900314798002e019000ae089000d7
:100a60008100510041079800be4090000181fb00c9
:100a7000ce009000810f510005003600fe0090006e
:100a80000130a00071079800ce0090003147980017
:100a90003e0190009e0078008100510041079800bf
:100aa000be4090000181fb00ce009000810f5100fc
:100ab00005003600fe0090000110a00071079800ac
:100ac000ce00900031479800be409000214798002a
:100ad00013003700ae08900011417800224f9800b3
:100ae000ae0890008100e800210f9800ae48900009
:100af0000104e00003003a00fe0090000120a00085
:100b0000710798009e007800ae49900083487800f5
:100b10001e0fe800ae4090008140e9002147980098
:100b2000ae4090000104e000eaff3a002e09900078
:100b3000ae009000810f510010003100be409000c7
:100b4000e2cf4000b3ff3200be0090001e017800eb
:100b5000810f510004003900fe0090000110a00038
:100b600071079800060037009e0078000041eb00f6
:100b7000824878001e0fe800a7ff37000000000041
:100b80001e0178008e0890008100510061079800d6
:100b90006e019000fe0190000288be000080fa0005
:100ba000000006005000fa0000cf980011cf980016
:100bb00022cf980033cf98006427980075279800bb
:100bc0000000eb00000f78000500370067004700c9
:100bd0001e0040008040eb00014878001e0fe80036
:100be0001e007800fd0f5000f8ff36007e209000b8
:100bf0000040780065404000704798009ec8900013
:100c0000014f9800aec89000114f9800bec89000e8
:100c1000214f98007e20900000407800304f9800cf
:100c20000040eb002047980050002000200798006b
:100c3000100037002e4090000080fb00650040004f
:100c4000ae4090008180fb006e2190008100410049
:100c50009140780000004700714098002e009000fd
:100c60000000e800200798002e4090000040e800b7
:100c7000204798002e4090008080fb007e2090004e
:100c8000808f5000ebff39002e00900080407800ec
:100c9000670047009300070060479800e70047009f
:100ca0002e00900000804000ee4090000148780047
:100cb0002e0090000000e80020079800ae01900090
:100cc000400420000e004000670147005102200050
:100cd0008e8040000302780082017800e20120004b
:100ce000abfe07008ec890007147980010c0b3009b
:100cf000204798000c0037002e4090000080fb0039
:100d0000ae4090008180fb008100e9008100470037
:100d1000d160900000004700714098002e40900084
:100d20000040e800204798002e4090008080fb00a3
:100d30002e2090000000e800808f5000eeff390068
:100d40000040eb0020479800080037002e4090003c
:100d50000080fb0000004700704090003102070057
:100d60002e4090000040e800204798002e40900060
:100d70008080fb002e2090000080e800808f5000d3
:100d8000f2ff39000080fa00000006000800fa00b7
:100d90001a020700e50f50002f0034001c02070064
:100da000e44f50002c003a000000eb00000f7800e8
:100db000170207003ee8b7003ec8bf008040780039
:100dc00080b720001e00400001487800809c210070
:100dd00001002000340607001e0fe8003ec8bf00d7
:100de0000004e000f2ff3a009e01780082b7200084
:100df00061b9200064004700030278008201780096
:100e0000e2012000e0fe07002e0090000040780084
:100e10008040e90060b920003200070020479800b8
:100e20002e0090000000e90061b9200061407800c8
:100e30008000fb002e4090000080fb00808f50005f
:100e400005003a00ae00900060b9200005000700e0
:100e500010c0b300010037000040eb000080fa0032
:100e6000000006000c00fa004007980051079800a7
:100e70004e0090000000e80010407800e14f500064
:100e800016003a004e009000630040009040780049
:100e90004e0090000080e8001040780083c0b3004e
:100ea0000e0178009b030700d502a8005000200027
:100eb000ed040700850020000e02780013c0b30087
:100ec00022c0b30021c0b30010c0b30035ff07003b
:100ed00050002000e4040700d502a9000080fa00b9
:100ee000000006000800fa002007980061479800fb
:100ef0000040eb00004f78001f0037002e009000ec
:100f000090407800114798002e0090000000e80003
:100f10002007980080c0b3002047980013003700d6
:100f20001e4090001e4068006140600030479800fd
:100f30001e80fb000000d100004f78003e40900072
:100f40000004e00002003200c0c8b3001e4f680079
:100f50001e4090000080fb000000d1001047980068
:100f60002e4090000040e900204798002e4090005d
:100f70000004e000eaff3a006e4090000080fb00b1
:100f80000000ea004f00de0000407800ee409000d4
:100f90008140e900614798000004e000d7ff3a0073
:100fa0001e4078000080fa00000006000000fa00f1
:100fb0003002a9008111800090ff2f0000806000a6
:100fc0008011880030a2a9003102a9003122a900b5
:100fd00060022000c011880033a2a80033e2a800fc
:100fe00091118000f0f32f000080600090118800c4
:100ff00087c0a90087e0a90031e2a8003342a80019
:10100000c09d200005000700a0aa200003000700e3
:1010100097c0a8000080fa00000006000200fa0055
:10102000000f7800e20c20008000eb001e0078002a
:10103000d0fd07000080fa00000006000400fa005e
:10104000000f7800214798001e007800e0a0900073
:10105000700c2000808f500012003c001e007800b1
:1010600040a090009e0078002e4190008270780091
:101070001e00780040a09000810c20005500070061
:10108000800078001e00780041a098001e007800c3
:1010900060a090008000e8001e00780061a0980029
:1010a000130037001e00780040a090009e007800da
:1010b0002e419000827078001e00780040a09000c1
:1010c000810c200043000700800078001e0078009b
:1010d00041a098001e00780050a09000810c2000d4
:1010e0003c000700800078001e00780051a09800a6
:1010f0000080fa00000006000400fa0010079800c3
:101100001e00900060a090000000e000110034007c
:101110001e00900050a090009e009000614f78004b
:101120001e00900050a09000810c200029000700b4
:10113000800078001e00900051a098001e009000d2
:1011400060a090008000e9001e00900061a098005f
:10115000020037000040eb00004f78001e4078008e
:101160000080fa00000006000400fa00000f78007a
:10117000110798001e0078008000eb0061a0980025
:101180001e0078008000eb0041a098001e0078004f
:101190008000eb0051a098001e0090000000e000cd
:1011a000040032001e007800820c20008000eb005a
:1011b00070fd07000080fa00000006000200fa003f
:1011c000000f78001e00780060a090000080fa00f8
:1011d000000006000600fa0010079800210798009a
:1011e0001e009000000fe8002e0090009e00780086
:1011f000808f5000020039000000eb00000f7800e3
:101200001e0078000080fa00000006000200fa00cc
:10121000000f78001e00780050a090009e0078001b
:10122000614078000080fa00000006000000fa002b
:10123000c09d2000f5ff07000080fa0000000600b6
:101240000000fa00c09d2000dcff07000080fa00cb
:10125000000006000000fa00c09d2000a6ff070065
:101260000080fa00000006000200fa00004f78003b
:101270009e407800a0aa200070ff07003cc8bf0075
:101280000004e000050032003c68ef00a0aa200046
:1012900099ff07000080fb00201188000080fa0001
:1012a000000006003600f800809fbe00829fbe004e
:1012b000849fbe00869fbe000200fa00901180004d
:1012c000620060000000e000010032003222a9004c
:1012d000b0118000004f78009e407800c09d200033
:1012e00056ff070087c0a90097e0a8000080fa0019
:1012f0004f03be004f02be004f01be004f00be00b4
:101300003600f900004006003600f800809fbe005d
:10131000829fbe00849fbe00869fbe000000fa0030
:1013200087e0a900a0aa2000a4ff07000000e000b9
:1013300005003400a0aa20006fff07000080fb001a
:10134000a01188000300370010c0b3003ce8b700cc
:1013500097e0a9000080fa004f03be004f02be00d4
:101360004f01be004f00be003600f90000400600ed
:101370000000fa002002a9000111800090ff2f0058
:10138000008060000011880020a2a90090032000c6
:101390004011880023a2a80023e2a90011118000b7
:1013a000f0f32f0000806000101188008560a90014
:1013b0008580a90021e2a8002342a8000084200023
:1013c00005000700e0902000030007009560a800da
:1013d0000080fa00000006000200fa00000f78000a
:1013e000e20c20008000eb001e007800e1fc07000a
:1013f0000080fa00000006000400fa00000f7800e8
:10140000214798001e007800e0a09000700c20009a
:10141000808f500012003c001e00780040a0900019
:101420009e0078002e419000827078001e007800a7
:1014300040a09000810c200055000700800078003b
:101440001e00780041a098001e00780060a0900067
:101450008000e8001e00780061a0980013003700ab
:101460001e00780040a090009e0078002e41900061
:10147000827078001e00780040a09000810c20004f
:1014800043000700800078001e00780041a098000b
:101490001e00780050a09000810c20003c00070046
:1014a000800078001e00780051a098000080fa00ab
:1014b000000006000400fa00100798001e009000cb
:1014c00060a090000000e000110034001e009000b9
:1014d00050a090009e009000614f78001e00900088
:1014e00050a09000810c20002900070080007800a7
:1014f0001e00900051a098001e00900060a0900077
:101500008000e9001e00900061a0980002003700f2
:101510000040eb00004f78001e4078000080fa0089
:10152000000006000400fa00000f78001107980080
:101530001e0078008000eb0061a098001e0078007b
:101540008000eb0041a098001e0078008000eb00b6
:1015500051a098001e0090000000e000040032003e
:101560001e007800820c20008000eb0081fc070048
:101570000080fa00000006000200fa00000f780068
:101580001e00780060a090000080fa0000000600b5
:101590000600fa0010079800210798001e0090002e
:1015a000000fe8002e0090009e007800808f500011
:1015b000020039000000eb00000f78001e007800e8
:1015c0000080fa00000006000200fa00000f780018
:1015d0001e00780050a090009e00780061407800c6
:1015e0000080fa00000006000000fa0000842000dd
:1015f000f5ff07000080fa00000006000000fa0076
:1016000000842000dcff07000080fa0000000600d4
:101610000000fa0000842000a6ff07000080fa0006
:10162000000006000200fa00004f78009e4078009b
:10163000e090200070ff070036c8bf000004e00003
:10164000060032003668ef00e090200099ff0700a6
:101650000080fb00201188009580a8000080fa001f
:10166000000006003600f800809fbe00829fbe008a
:10167000849fbe00869fbe000200fa001011800009
:10168000620060000000e000010032002222a90098
:1016900030118000004f78009e40780000842000c8
:1016a00055ff07008560a9000080fa004f03be00c7
:1016b0004f02be004f01be004f00be003600f900d1
:1016c000004006003600f800809fbe00829fbe00ea
:1016d000849fbe00869fbe000000fa008580a9009e
:1016e000e0902000a4ff07000000e00005003400a7
:1016f000e09020006fff07000080fb0020118800b1
:101700000300370010c0b30036e8b7009580a90089
:101710000080fa004f03be004f02be004f01be0022
:101720004f00be003600f900004006000000fa003d
:101730001dc8bf000004e00007003a001dc8bf003c
:101740000040e8001de8b7001dc8bf000000fb0016
:10175000720007003a0037001dc8bf00e14f50007b
:1017600007003a001dc8bf000040e8001de8b700b0
:101770001dc8bf000000fb006800070030003700f4
:101780001dc8bf00e24f500007003a001dc8bf004f
:101790000040e8001de8b7001dc8bf000000fb00c6
:1017a0005e000700260037001dc8bf00e34f500051
:1017b0000a003a001cc8bf000004e0000700320025
:1017c0001dc8bf000040e8001de8b7001dc8bf00ed
:1017d0000000fb0051000700190037001dc8bf00c2
:1017e000e44f500007003a001dc8bf000040e80069
:1017f0001de8b7001dc8bf000000fb004700070040
:101800000f0037001dc8bf00e54f50000c0032002c
:101810001dc8bf00e64f500009003a001dc8bf00b8
:101820000000fb003d0007001cc8bf000004e000f2
:10183000030032001dc8bf000000fb003700070096
:101840000080fa00000006000000fa00b7ff070061
:1018500090408000e30f500018003200e30f50006a
:1018600005003e00e10f50000a003200e20f500078
:101870000e00320027003700e50f50002400320030
:10188000e50f500011003900e60f50001b00320038
:1018900020003700cca2a900c522a800c502a900db
:1018a000cc82a900c542a8001a003700d462a80063
:1018b000c502a900cc82a90016003700cca2a9005d
:1018c000c502a900cc82a9001200370034c8bf00ad
:1018d000e14f500002003a00c502a900cc82a800e6
:1018e00034c8bf00e24f500002003a00cc82a90089
:1018f000c502a800cca2a80006003700c522a90096
:10190000cca2a900c542a9000000000001003700d8
:10191000000000000080fa00000006000200fa004b
:10192000000f78001e007800904088000080fa00c8
:10193000000006000000fa00904080000080fa00dd
:10194000000006000200fa00004f78001e417800f7
:1019500041832000824878000080fa0000000600e1
:101960000200fa00000f78009e007800a140880075
:10197000a1408000c0408000808f500004003200f1
:10198000a0408000c0408800a0408000a80207005e
:101990000080fa00000006000200fa00000f780044
:1019a0009e007800b1408800b1408000d0408000a7
:1019b000808f500004003200b0408000d04088008a
:1019c000b0408000b00207000080fa00000006006e
:1019d0000200fa00000f78001e00780000f0a70057
:1019e0000000ea000000ea004f00de00004078003e
:1019f0001ce8b7000080fa00000006000200fa00b0
:101a0000004f78001e4078000004e0000200320021
:101a1000d482a80001003700d482a9000080fa0017
:101a2000000006000000fa00802520002010880039
:101a300000202100301088000022ef000222ef0079
:101a400000202900301088000080fa000000060005
:101a50000200fa00000f78000200370000000000ca
:101a6000000000001e0fe9001e0078000000e000ea
:101a7000faff3a000080fa00000006000a00fa00af
:101a80004047980051479800320798004307980054
:101a90000000eb0010079800ce009000010f7800c6
:101aa000d8fa0700bcfa07005e4090000004e0008e
:101ab000050032004e40900000404000c3fa07008d
:101ac000b5fa0700170037004e4090000000fb00f9
:101ad00000004000004078000004a000bbfa0700ae
:101ae000adfa07000f0037001e009000be00900006
:101af00000804000104078009e0090008100e800c7
:101b000011079800b1fa0700a3fa07001e0fe900b9
:101b10004110800000002800008060000000e0000c
:101b200004003a001e0078000000e000eeff3a00da
:101b30000100370000000000b4fa070096fa070021
:101b40000080fa00000006000000fa0010c0b30098
:101b50000080fa00000006000000fa0010c0b30088
:101b60000080fa00000006000200fa00004f780032
:101b700010c0b3000080fa00000006000200fa0066
:101b8000004f780010c0b3000080fa00000006008b
:101b90000000fa0010c0b3000080fa000000060048
:101ba0000000fa0010c0b3000080fa000000060038
:101bb0000000fa0022c8bf000004e0004b00320021
:101bc00000418000e20f50001d003200e20f500083
:101bd00005003e000000e0000a003200e10f500066
:101be0000f00320041003700e40f500026003200a1
:101bf000e40f500019003900e50f500029003200b1
:101c00003a003700d0ff07000004e0002c0032004b
:101c1000004180000000e8000041880033003700e8
:101c200000c6b300d5ff07000004e0002600320024
:101c3000004180000000e800004188002b003700d0
:101c4000c5ff07000004e0002100320000418000d1
:101c50000000e8000041880024003700f1408000c7
:101c6000204180000080400010407800beff070047
:101c70000004e00018003200004180000000e8008d
:101c80000041880019003700c1ff07000004e00090
:101c900013003200004180000000e800004188008d
:101ca00012003700beff07000004e0000e00320003
:101cb000004180000000e800004188000b00370070
:101cc0000000000009003700000000000700370096
:101cd000000000000500370000000000030037008e
:101ce0000000000001003700000000000080fa0042
:101cf000000006000000fa000080fa000000060064
:101d00000000fa00aaff0700faff07000080fa00af
:101d1000000006000a00fa0040479800514798006a
:101d200032079800034f98000040eb00004f780006
:101d30000040eb00204798000040eb00104798005f
:101d40004e4090000080fb000000e00003003200e5
:101d5000e20f50001a00320032003700de409000df
:101d60000e48900000c04000204798000f00370048
:101d70001e4090000080fb00be00900000804000ec
:101d8000de4090008180fb0082bc2000e2c0780031
:101d9000014878001e4090000040e800104798007d
:101da0005e4090000040e80050479800de40900000
:101db0002e40900080cf5000edff39001b0037000f
:101dc000de4090000e48900000c040002047980080
:101dd0000f0037001e4090000080fb00be00900006
:101de00000804000de4090008180fb0042bd20006a
:101df000e2c07800014878001e4090000040e800f2
:101e0000104798005e4090000040e800504798005e
:101e1000de4090002e40900080cf5000edff390052
:101e20000200370000c0eb00004f78001e40780031
:101e30000080fa00000006000a00fa0040479800ff
:101e40005147980032079800034f98000040eb007c
:101e5000004f78000040eb00204798000040eb0066
:101e6000104798004e4090000080fb000000e0000a
:101e700003003200e20f50001a0032003200370037
:101e8000de4090000e48900000c0400020479800bf
:101e90000f0037005e4090000080fb009e409000e5
:101ea0008180fb003e0190008100410011417800db
:101eb00081bc2000827078001e4090000040e80045
:101ec000104798005e4090000040e800504798009e
:101ed000de4090002e40900080cf5000edff390092
:101ee0001b003700de4090000e48900000c040000c
:101ef000204798000f0037005e4090000080fb00f4
:101f00009e4090008180fb003e01900081004100d6
:101f10001141780041bd2000827078001e40900081
:101f20000040e800104798005e4090000040e80044
:101f300050479800de4090002e40900080cf500027
:101f4000edff39000200370000c0eb00004f7800c1
:101f50001e4078000080fa00000006000000fa0031
:101f6000001980002023ef00001980002223ef00d9
:101f7000001980002423ef00001980003223ef00b5
:101f800021a3a90001198000f0cf2f00008060007c
:101f90000019880001198000000e20000100700067
:101fa000001988002143a8002063a90011198000ae
:101fb00000002e0001007000101988002223a900e3
:101fc00011198000f0cf2f000080600010198800e8
:101fd00025e3a900f0c3b30024e3b7004119800052
:101fe00000fe2f00008060004019880028e3a9004f
:101ff0001119800030fc2f0000806000101988004b
:1020000000fc2f00601988002823ef00f003200057
:102010008019880085a0a90095a0a80021e3a80048
:102020002003a9002023a8000080fa000000060079
:10203000809fbe00821f78000000fa0002c8bf0027
:102040000004a2000004e00009003200804080008b
:102050000118800000014000c0bd200000004100c8
:1020600001087800804080000000e800804088007f
:1020700080408000e20f5000050034000028ef008f
:1020800010c0b30002e8b7001028ef0095a0a90027
:10209000804080008000400080be20000080400022
:1020a00010007800004078007f4060000080fb0056
:1020b0007f0060004219800001fe2f008100610056
:1020c00001007000401988002023a80085a0a90005
:1020d0000080fa004f0178004f00be00004006006b
:1020e0000000fa000080fa00000006000000fa007c
:1020f0000080fa00000006000000fa00e05e8000a8
:102100008000eb0044f9070020408800314088003f
:10211000f05e80008000eb003ff90700404088003f
:1021200051408800005f80008000eb003af9070012
:1021300060408800714088000080fa0000000600be
:102140000000fa00213a800000fe2f0000806000ad
:10215000203a880060012000303a8800213a80004f
:10216000f0f32f0000806000203a88003200200049
:1021700080072000a10920003374200080497800e6
:102180008149780082497800103a80000001780087
:102190000200a000600420007105200023742000cc
:1021a0008049780081497800824978000000000069
:1021b000113a8000000027008080600000002300aa
:1021c000808f5000faff3a0000000000113a8000b2
:1021d00000022000008060000000e000fbff3200f1
:1021e000113a8000f00b20000081600060042000a4
:1021f000710520002374200080497800814978000f
:1022000082497800b136800000fe2f000080600017
:102210003000b300b03688002135800000fe2f006a
:10222000008060007001b30020358800103a800003
:10223000000178000260a000600420007105200009
:102240002374200080497800814978008249780011
:102250001e00070046fc0700f2fd070029000700ea
:102260000080fa00000006000400fa001007980041
:102270000000eb00000f780004003700800e2800fb
:1022800001002000080107001e0fe8001e0090005a
:102290009e007800808f5000f8ff35000080fa0023
:1022a000000006000000fa0010c0b3003a0007006a
:1022b000813e2000810f50000200360010c0b300a4
:1022c000490007000080fa00000006000000fa0044
:1022d000c822a900c142a900c8a2a900d102a90030
:1022e000c882a900c102a900c122a900c082a90018
:1022f000d082a900d062a900c8a2a9000080fa007b
:10230000000006000000fa0005e1a9000421a90070
:1023100021088000f0fc2f00008060000050a00029
:1023200020088800a0242000100888008460a900ec
:102330009460a80005e1a8000080fa0000000600f3
:10234000809fbe000000fa00404180000000e800cd
:102350004041880061418000c0382100808f5000da
:1023600003003e00604180000000e80060418800fa
:10237000304180000000e80030418800504180007a
:102380000000e800504188008460a9000080fa0045
:102390004f00be00004006000200fa00004f780027
:1023a0001e407800e14f500002003a00404180009a
:1023b0000b0037001e407800e24f500002003a0048
:1023c00050418000060037001e407800e44f500066
:1023d00002003a0060418000010037000000370031
:1023e0000080fa00000006000200fa00004f7800aa
:1023f0001e407800e14f500002003a002828ef000c
:10240000090037001e407800e24f500002003a00f9
:102410002a28ef00040037001e407800e44f5000e7
:1024200001003a002c28ef000080fa0000000600ae
:102430000200fa00000f7800f0ff20009e007800f4
:10244000808f50000e003e001e0078004800de0025
:102450008040780040bb2000014878001e007800d2
:102460008040780050bb2000014878002300200005
:1024700042bb200011c0b30010c6b3007ffd0700af
:102480000080fa00000006000200fa00000f780049
:10249000f0ff20009e007800808f50000e003e006c
:1024a0001e0078004800de008040780040bb20001d
:1024b000014878001e0078008040780050bb200062
:1024c000014878002300200042bb200011c0b30067
:1024d00000c6b30069fd07000080fa000000060096
:1024e0000400fa00004f7800110798001e009000c9
:1024f0004800de008040780040bb200001487800a2
:102500001e0090008040780050bb200001487800f9
:1025100040bb20009040780000c7b30080c070002e
:1025200040bb2000014878002300200042bb20006f
:1025300011c0b3001e40780050fd07000080fa0073
:042540000000060091
:020000040000fa
:10254400120800000c000000000000003408000025
:10255400020000000200000001000000b40b0000b3
:1025640014000000000000001e0800000800000025
:1025740000000000400800009c0100000000000072
:102584003608000002000000020000000100000004
:102594002e080000060000000000000038080000bb
:1025a40002000000020000000100000026080000f4
:1025b4000800000000000000e80b00000600000016
:1025c400020000000100020000050000dc0b000016
:1025d4000c000000000000000008000012000000d1
:1025e400000000003a0800000200000002000000a1
:1025f40001000000dc0900009c0100000000000054
:102604003c0800000200000002000000010000007d
:10261400780b00003c000000000000003e080000b1
:102624000200000000000000c80b000014000000bd
:0826340000000000000000009e
:020000040000fa
:10263c000400fa00000f780011079800bdfe070097
:10264c004006200005ff07002200070012ff0700cc
:10265c007afc0700fcff37000200fa000000eb00d8
:10266c00000f78000000eb00000f78000500370029
:10267c001e0078006bff0700a0002000f7fe07008b
:10268c001e0fe800e0ff20009e007800808f5000b5
:0c269c00f7ff34000080fa000000060088
:020000040000fa
:1026a800f03fb1000180b10006003500ee030900db
:1026b80000000000403fb1000180b100fbff3d0079
:1026c8001000b000203fb000020035000080090073
:0826d8000000000000000600f4
:020000040000fa
:1026e0000000fa00a9f907000080fa0000000600c7
:020000040000fa
:0200000401f009
:04000000ffff0000fe
:020000040000fa
:0200000401f009
:04000400ffff0000fa
:020000040000fa
:0200000401f009
:04000800ffff0000f6
:020000040000fa
:0200000401f009
:04000c008000000070
:020000040000fa
:0200000401f009
:0400100001000000eb
:020000040000fa
:0200000401f009
:040014005f00000089
:020000040000fa
:0200000401f009
:04001800f7000000ed
:020000040000fa
:0200000401f009
:04001c00dfff000002
:00000001FF
