:020000040000fa
:080000000002040000000000f2
:020000040000fa
:04000800fa020000f8
:020000040000fa
:04000c00fa020000f4
:020000040000fa
:04001000fa020000f0
:020000040000fa
:04001400fa020000ec
:020000040000fa
:04001800fa020000e8
:020000040000fa
:04001c00fa020000e4
:020000040000fa
:04002000fa020000e0
:020000040000fa
:04002400fa020000dc
:020000040000fa
:04002800fa020000d8
:020000040000fa
:04002c00fa020000d4
:020000040000fa
:04003000fa020000d0
:020000040000fa
:0400340096500000e2
:020000040000fa
:04003800fa020000c8
:020000040000fa
:04003c00fa020000c4
:020000040000fa
:04004000fa020000c0
:020000040000fa
:040044002e52000038
:020000040000fa
:04004800fa020000b8
:020000040000fa
:04004c00fa020000b4
:020000040000fa
:04005000fa020000b0
:020000040000fa
:04005400444600001e
:020000040000fa
:0400580074460000ea
:020000040000fa
:04005c00fa020000a4
:020000040000fa
:04006000fa020000a0
:020000040000fa
:04006400fa0200009c
:020000040000fa
:04006800fa02000098
:020000040000fa
:04006c00fa02000094
:020000040000fa
:04007000fa02000090
:020000040000fa
:04007400fa0200008c
:020000040000fa
:04007800fa02000088
:020000040000fa
:04007c00fa02000084
:020000040000fa
:04008000fa02000080
:020000040000fa
:04008400fa0200007c
:020000040000fa
:04008800fa02000078
:020000040000fa
:04008c00fa02000074
:020000040000fa
:04009000fa02000070
:020000040000fa
:04009400fa0200006c
:020000040000fa
:04009800fa02000068
:020000040000fa
:04009c00fa02000064
:020000040000fa
:0400a00034440000e4
:020000040000fa
:0400a40064440000b0
:020000040000fa
:0400a800fa02000058
:020000040000fa
:0400ac00fa02000054
:020000040000fa
:0400b000fa02000050
:020000040000fa
:0400b400fa0200004c
:020000040000fa
:0400b800fa02000048
:020000040000fa
:0400bc00fa02000044
:020000040000fa
:0400c000fa02000040
:020000040000fa
:0400c400fa0200003c
:020000040000fa
:0400c800fa02000038
:020000040000fa
:0400cc00fa02000034
:020000040000fa
:0400d000fa02000030
:020000040000fa
:0400d400fa0200002c
:020000040000fa
:0400d800fa02000028
:020000040000fa
:0400dc00fa02000024
:020000040000fa
:0400e000fa02000020
:020000040000fa
:0400e400fa0200001c
:020000040000fa
:0400e800fa02000018
:020000040000fa
:0400ec00fa02000014
:020000040000fa
:0400f000fa02000010
:020000040000fa
:0400f400fa0200000c
:020000040000fa
:0400f800fa02000008
:020000040000fa
:0400fc00fa02000004
:020000040000fa
:04010000fa020000ff
:020000040000fa
:04010400fa020000fb
:020000040000fa
:04010800fa020000f7
:020000040000fa
:04010c00fa020000f3
:020000040000fa
:04011000fa020000ef
:020000040000fa
:04011400fa020000eb
:020000040000fa
:04011800fa020000e7
:020000040000fa
:04011c00fa020000e3
:020000040000fa
:04012000fa020000df
:020000040000fa
:04012400fa020000db
:020000040000fa
:04012800fa020000d7
:020000040000fa
:04012c00fa020000d3
:020000040000fa
:04013000fa020000cf
:020000040000fa
:04013400fa020000cb
:020000040000fa
:04013800fa020000c7
:020000040000fa
:04013c00fa020000c3
:020000040000fa
:04014000fa020000bf
:020000040000fa
:04014400fa020000bb
:020000040000fa
:04014800fa020000b7
:020000040000fa
:04014c00fa020000b3
:020000040000fa
:04015000fa020000af
:020000040000fa
:04015400fa020000ab
:020000040000fa
:04015800fa020000a7
:020000040000fa
:04015c00fa020000a3
:020000040000fa
:04016000fa0200009f
:020000040000fa
:04016400fa0200009b
:020000040000fa
:04016800fa02000097
:020000040000fa
:04016c00fa02000093
:020000040000fa
:040170004c4c0000f3
:020000040000fa
:040174007c4c0000bf
:020000040000fa
:04017800fa02000087
:020000040000fa
:04017c00fa02000083
:020000040000fa
:04018000fa0200007f
:020000040000fa
:04018400fa0200007b
:020000040000fa
:04018800584a0000d1
:020000040000fa
:04018c00884a00009d
:020000040000fa
:04019000fa0200006f
:020000040000fa
:04019400fa0200006b
:020000040000fa
:04019800fa02000067
:020000040000fa
:04019c00fa02000063
:020000040000fa
:0401a000fa0200005f
:020000040000fa
:0401a400fa0200005b
:020000040000fa
:0401a800fa02000057
:020000040000fa
:0401ac00fa02000053
:020000040000fa
:0401b000fa0200004f
:020000040000fa
:0401b400fa0200004b
:020000040000fa
:0401b800fa02000047
:020000040000fa
:0401bc00fa02000043
:020000040000fa
:0401c000fa0200003f
:020000040000fa
:0401c400fa0200003b
:020000040000fa
:0401c800fa02000037
:020000040000fa
:0401cc00fa02000033
:020000040000fa
:0401d000fa0200002f
:020000040000fa
:0401d400fa0200002b
:020000040000fa
:0401d800fa02000027
:020000040000fa
:0401dc00fa02000023
:020000040000fa
:0401e000fa0200001f
:020000040000fa
:0401e400fa0200001b
:020000040000fa
:0401e800fa02000017
:020000040000fa
:0401ec00fa02000013
:020000040000fa
:0401f000fa0200000f
:020000040000fa
:0401f400fa0200000b
:020000040000fa
:0401f800fa02000007
:020000040000fa
:0401fc00fa02000003
:020000040000fa
:04020000fa020000fe
:020000040000fa
:04020400fa020000fa
:020000040000fa
:04020800fa020000f6
:020000040000fa
:04020c00fa020000f2
:020000040000fa
:04021000fa020000ee
:020000040000fa
:04021400fa020000ea
:020000040000fa
:04021800fa020000e6
:020000040000fa
:04021c00fa020000e2
:020000040000fa
:04022000fa020000de
:020000040000fa
:04022400fa020000da
:020000040000fa
:04022800fa020000d6
:020000040000fa
:04022c00fa020000d2
:020000040000fa
:04023000fa020000ce
:020000040000fa
:04023400fa020000ca
:020000040000fa
:04023800fa020000c6
:020000040000fa
:04023c00fa020000c2
:020000040000fa
:04024000fa020000be
:020000040000fa
:04024400fa020000ba
:020000040000fa
:04024800fa020000b6
:020000040000fa
:04024c00fa020000b2
:020000040000fa
:04025000fa020000ae
:020000040000fa
:04025400fa020000aa
:020000040000fa
:04025800fa020000a6
:020000040000fa
:04025c00fa020000a2
:020000040000fa
:04026000fa0200009e
:020000040000fa
:04026400fa0200009a
:020000040000fa
:04026800fa02000096
:020000040000fa
:04026c00fa02000092
:020000040000fa
:04027000fa0200008e
:020000040000fa
:04027400fa0200008a
:020000040000fa
:04027800fa02000086
:020000040000fa
:04027c00fa02000082
:020000040000fa
:04028000fa0200007e
:020000040000fa
:10040000cfc021000eff27000e0188000000000071
:10041000000020000000e000020032000001200087
:100420002002880014000700b40007000000e0006c
:1004300003003a00203d25000100200002003700a3
:100440000000200001002000810f70000100320038
:100450000f000700000020000000e0000200320052
:1004600000000200000000007a5c020000000000b2
:100470000040da000000fe0000c920000000e0009b
:1004800002003200002020009001880000000600d9
:10049000a1028800800478000000eb001f003700f4
:1004a000e284440054a0b4009905ba00e2844400f8
:1004b00054a0b4009906ba00e284440054a0b400e9
:1004c0000006eb00476fde00fd07b200ae018800ba
:1004d000636ce10003003a000ad801000000eb0061
:1004e0000e003700606ce10008003a00004deb00a0
:1004f0000a05e800020039003420ec000af0a000f0
:100500008b05e900f9ff3e00040037006168e10057
:10051000010032000086eb000b00070019c7ba008b
:100520001905ba000e04e00003003a000a00e000da
:10053000dbff3a0000000600fe07b200ae028800b2
:100540008a047800f5ff37000cd0a300e20f4d00bd
:100550001c00390089027800354dba000a05e80010
:10056000020039003420ec000af0a0008b05e900fd
:100570000f003200254dba000a05e80002003900dc
:100580003420ec000af0a0008b05e90008003200de
:100590000c00e0000600320015cdba000a05e800a4
:1005a000020039003420ec000af0a0008b05e900bd
:1005b0008984e80054a0b4000b00e000e2ff3a0098
:1005c000000006009902ba00055d78008b05e9007d
:1005d000f7ff3200c82ade00055d78008b05e900d0
:1005e000f3ff32000c00e000f1ff320019ddba0029
:1005f000eeff37000040da000000fe001004b100fa
:10060000070035009001b100040034007000b10013
:10061000030035009001b10001003c00100005000e
:10062000000005006900e100040035006d00e100f4
:10063000030034000002b100010032000000050098
:10064000100005001004b100030035009001b10056
:1006500001003c001000050000000500800078004b
:100660001104b100030035009101b10001003c000c
:100670000050a00000000600889fbe0080047800a3
:1006800050d880000000e00004003a000e0007008f
:100690000084eb000000e0000800350058d880001e
:1006a0000900e000050032000900440006000700d0
:1006b0000000e00001003d000084eb00080078002d
:1006c0004f04be0000000600800078000100e0003a
:1006d00003003a00c0b0210050d888000000050097
:1006e0000080eb00c2c02100828f500002003e005b
:1006f00051d888000000eb00000006000000050053
:100700000001be001b0007000470a70003f0a10059
:1007100003f8a30013003a006509b100100032008d
:10072000090035006928e1000200350001002800b9
:100730000000050000004000818048008502e900bb
:10074000fcff3a0000000600f88f4200050035006b
:100750008100d1000080d3008502e800fcff3a0050
:10076000000006008000eb00000005006011b800ea
:1007700049003700c70ade00f107b200f50fb200ea
:1007800008003200e1cf4200020032000170a000f8
:1007900024000500810f70000100320004080500ec
:1007a00044000500810f700002003a0014000500ab
:1007b0008502e9000000400081c04800fcff3b00ca
:1007c0000170a00024000500889fbe008a9fbe0023
:1007d0008c1f7800850007008c00330003866c00b6
:1007e0006450e100240032006420e1002700320060
:1007f0006150e100220032006120e100210032005e
:100800008b854200eb07b1000134b800003ab80014
:100810000804420089844a00013ab8000030b80058
:100820008880400009014a000400330000004000b5
:1008300081804800020149008b05e900c909dd00fb
:10084000830170000100320013002000c814de0094
:100850004814dd004709de001200b200c808de00bf
:10086000088470003b00070001f0a1000cf0a70015
:1008700001f0a0006e0037006120e100700032003e
:100880000801be000200be00f7ff37006150e10022
:10089000fcff3a006a003700889fbe008a9fbe00b6
:1008a0000082700004027100048271002600320090
:1008b0000004be000200be006011b8006b092000f9
:1008c000950220000182cf000a0039000541b100e5
:1008d0000082cf00070039000541b1000982cf0036
:1008e000040039000541b1000882cf000100390041
:1008f0000541b10005425200120032000a003b00df
:1009000082817100610164008100d1000080d30008
:100910008984d3000884d3008b05e8000442e800f2
:10092000f7ff3a00070037000804440089844c00b0
:1009300000004800818048008b05e9000442e9007e
:10094000f9ff3a00030007004f05be004f04be0048
:100950000000060081002000618055000b003d0072
:100960000b00200061fe2f000100e1001d0034009b
:1009700082817100610164008904d1000884d30080
:100980000000e800faff3a007100200061006400f6
:10099000030070000200600009003200610444009e
:1009a000e0844c000988a500050032008b05e800b2
:1009b0006808e10002003a008904d1000884d300ed
:1009c000f20f20000258e10005003d00c75ddd0088
:1009d000f907b20089807500080078000000060061
:1009e0000bf827008b007800000005000004be0013
:1009f00060ff07000003be000405be000200be0049
:100a00005cff0700844f7500000006000200be0076
:100a10006450e100050036006420e1000200360069
:100a20000968a30001003a000800be000160a000b0
:100a30004f0678004f05be004f04be0000000600c0
:100a4000f0ff2f00f1ff2700f9ff37000c00fa003c
:100a5000a0bf9f00c0bf9f0050030700b0bf9f0012
:100a6000f0bf9f00100c2000d0bf9f007481570082
:100a7000efb097006c805700340007000080fa0048
:100a800000000600881f780040d88000cc010700d5
:100a90000004780008007800e2fe07000000e00093
:100aa000f9ff3a00e10f44000300320041d8800012
:100ab000080078003f0307004f047800000006009c
:100ac000889fbe008a1f7800000478008144780067
:100ad0000205780000fd2f0008004000e90f5000db
:100ae00002003e0000047800100037000800780083
:100af000d4fe07000000e000050032000a00e0001c
:100b00000300320008007800d4fe070000047800db
:100b100008007800b9fe07008000780000c0eb00f4
:100b20000100e000060032007805b1008984fb0076
:100b300000c0eb00890f540001003d000840780020
:100b40004f0578004f04be0000000600f087470004
:100b5000889fbe008a9fbe008c9fbe008e1f7800bb
:100b6000010578008204780040d888000000eb007e
:100b7000c0b79f00e0b79f000044eb006001370062
:100b80000a05e8000b86fb000c007800a5fe0700b4
:100b90000000e00002003200baff070055013700f4
:100ba00050c2b30080cf550043013a008046eb00ad
:100bb00021c0b3000d4678000a0078000147780094
:100bc000040037004ec0b300010037002ec0b30050
:100bd0000a007800ba45780091c6b30081cf55006d
:100be000a30032001c003e00e6c0500081cf55003b
:100bf0007700320011003e00f7c0500081cf550051
:100c00002c00320006003e000b04e000bd00320064
:100c1000a1c2b30081cf550082003a002300370003
:100c200081c5b30081cf55007e003a000e407800a8
:100c3000b0ef9f00110020002500370041c6b3002f
:100c400081cf55008a003200e4c0400081cf5500ba
:100c500074003a00ddff3700f1c6b30081cf5500c4
:100c60008700320007003e00e3c0500081cf5500ee
:100c70001000320081c0e80081cf550069003a00c1
:100c80001600370051c7b30081cf550078003200fd
:100c9000e3c0400081cf55000a003200e5c050009b
:100ca00081cf55005f003a001c0037000c46e80079
:100cb000c7ff3700e24f5700c2ff32008ec0b300bb
:100cc000c3ff37000e407800b0ef9f008000eb00bc
:100cd000c1b79f0000c1b3006c0037008e407800a0
:100ce000b1ef9f000c04e00069003a008984e9003c
:100cf000e4cf500005003a0019007800efb09700eb
:100d00006109b9000288be0061003700190078004f
:100d1000efb09700010878005d00370059ff070029
:100d20000c04e00002003a0049007800b0b79f00d0
:100d300040d880002201070080057800e18f45003f
:100d4000020032006fb79700140037000b007800e4
:100d5000e20037000e07e8001a00fb00808f550004
:100d600002003a000a05e800130037000c04e00016
:100d700003003a00bfb097008b587800b1b79f00ce
:100d8000cfe8970001c046008e4f50000a003200a5
:100d900040d880000a010700800578000b00e800b9
:100da000e10f5000040036000b0078001dfe070024
:100db0000000e000e7ff32000c04e000ce003a0043
:100dc0000844e8003fb097000c487800ca0037009c
:100dd0000c04e00003003a000844e800c900780071
:100de000b1b79f006fb79700bfb5970040d880009c
:100df000f3000700e10f4000b80032000c04e000ef
:100e000002003a000e07e800805d78008d46e90098
:100e10004240a900f5ff3c000b007800b0b79f00ee
:100e2000b50037008b85fb0001fd2f008b80400053
:100e3000e98f500009003e00c2000700804678009c
:100e40008a007800010578003100fb000003b10042
:100e5000e90f5000fbff36005dff370040d88000ef
:100e6000d7000700808f550097003a00a100370097
:100e70008e407800b1ef9f00a0c0b30003003700a0
:100e80008e407800b1ef9f0080c0b300a0ef9f00bc
:100e9000fcfe070040d88000c900070080057800ec
:100ea000efb097008100e800e1b79f000040eb0041
:100eb000d0e79f00d0022000808f550008003a0044
:100ec00040d88000be00070080057800efb0970092
:100ed0008100e800e1b79f0010c0b300d0e79f0099
:100ee0004fb19700afe897000b007800f4fe0700c1
:100ef000e14f40000c003a0041d880000b00780020
:100f00002c0207000804e00080003a0040d880006e
:100f1000b00090000000eb000148a3007c0032000c
:100f20000080eb007a00370000032000808f55001e
:100f300018003a0040d88000a10007008107200077
:100f4000810f500004003a00cfb097000100e0008c
:100f5000070032000d00370081052000810f50008e
:100f60000a003a00cfb097000100e000070032000d
:100f700040d8800092000700800578006fb097008d
:100f80000080e800e0b79f000200370041d88000f1
:100f9000080207006022b800c8e79f000907780030
:100fa0000404be0001003700e3b79f00afe89700dc
:100fb0000181fb008001eb000800be0086050700f0
:100fc0000004be004fb19700afe897000b00780017
:100fd000bbfe07000080fb008000eb000004440023
:100fe00081844c006fb097008001e8008d46e900d5
:100ff0000b00320040d88000f3b79f00700007005c
:10100000800578004fb19700afe897000b0078009b
:10101000abfe0700ffb19700e14f4000e2ff3a004e
:101020000802be004fe497008e04780003077800a2
:101030004fb19700afe897000b007800f4b79f001e
:1010400085bf9f009efe07007fb297008fba970072
:10105000e14f400006003a0041d880000b007800c4
:10106000d40107006fb797008fba97007fb297003f
:10107000dfe097000104e00002003200600212008d
:10108000e0821a000c04e0001b003a000844e8006b
:101090008984e9003fe89700e44f500003003a00dc
:1010a000190078000488be0013003700190078008a
:1010b000040878001000370040d880004000070086
:1010c000800f560008003200e10f4000030032009c
:1010d00041d88000b70107000c0037000804e00089
:1010e0000a003a000a0037006fb097000007e800d6
:1010f000010037006fb797008e007800e1b79f00be
:101100009a4578000b04e0009dfe3a000880fb0041
:101110004f0778004f06be004f05be004f04be00cb
:101120000f01b100000006000000fa0068815700be
:10113000cfb89700c09f2100c80107000080fa00c7
:10114000000006008000780001007800304178003f
:1011500003c2b300834f5100faff3200e94f510040
:10116000f8ff3200edc14100834f510003003a0007
:101170008000780013c0b300050037008041eb0009
:10118000b4c2b300844f510001003a0080007800df
:101190000000eb0002003700ea00b9000000410047
:1011a0003101fb000203b100e90f5100faff3600e4
:1011b0000304e000010032000000ea000000060025
:1011c000881f78000004780038009000f10060006b
:1011d000e18f500005003a000098a300080032009b
:1011e000980090000100e0000500320038009000f7
:1011f0000040a000300498000080eb001f00370082
:101200000090a10030049800180090000000e00059
:10121000060034000000e9001004980098007800ef
:101220001180fb00010ce800050037003800900039
:101230000068a300edff3a000800780011000700e5
:10124000b80090000178a3000c003a00fa0f50009b
:1012500008003a00280090000000e000e3ff3200a0
:10126000180090000000e80010049800180ce90035
:10127000deff3700ed0f5000e3ff32004f0478002f
:10128000000006000200fa00889fbe008a1f780056
:10129000000478000000eb0010049800b8009000f3
:1012a0000080eb000108a3003e003200e0ae210008
:1012b0001004e0000f0032004aa12100c9fd2f00f8
:1012c0008a844400390090002010b20021102000d0
:1012d000810f500002003a00090078000204070064
:1012e000ec8444008a8f5400f6ff3a00e0ae2100ff
:1012f0000048eb00580190000200e0000e003a00a8
:101300001204980012002000e88057004800900066
:10131000b0080700e10f500003003a008ff8970073
:101320000180fb001f003700380090000040a00043
:101330003004980013003700a80090004800900087
:10134000a4080700100498000000e0000300320029
:10135000e10f40000d003a00030037003800900014
:101360000040a00002003700380090000003b300e6
:101370003004980028009000000c78000000eb007a
:10138000100498000080eb0006003700a8009000d1
:10139000010c78000000e900100498001180fb00a7
:1013a000010ce8004f0578004f04be000080fa00f1
:1013b00000000600889fbe008a9fbe008c9fbe0072
:1013c00081ab2100c2d580000200e0000b003a0092
:1013d00064814000c2d5880012d68800a100980020
:1013e00001d68800214190000204a000a24098008c
:1013f000614190000204a000e240980067044000b0
:101400004244de004244dd0004d68000c1b0210029
:10141000c9c02100818454002d0020001100090062
:101420008d04d800800678000886e8000c06460087
:101430008001eb0002003700130020000b0278004f
:10144000a44090000108a300020032000a00370007
:10145000120a780014017800a24090000108a3004d
:10146000fbff320088004200810f5100020039006a
:101470000800e00041003d00940578000b00a10049
:10148000848f5500edff3e00e18f5100eaff3a00e6
:101490008d0f540002003600890f540013003900ec
:1014a0006141b8006148b900b4ff2f000500200079
:1014b0000000520081805a00800f5100818f590036
:1014c000020035006405440009003700c0b0210067
:1014d000fac021000005550008054500110009006b
:1014e0000985d8008985b900010037000c0578000e
:1014f0000a00780060fc0700e10f400005003a0098
:10150000640544000a0078005bfc0700e10f40001e
:101510002b00320011d680008008780011d68000a0
:10152000e481400021419000830f5000020032000e
:101530000204a000010037000204a100a2409800ac
:10154000640555000a0540000a0878001ad688008c
:1015500081ab2100010d780012d68000a2409000de
:101560000104a00021419800a04090000104a100c6
:10157000214098008001eb00b0ff370001d68800c1
:10158000810f5100070036001101be0022d68800ed
:1015900033d68800940878000041eb0001d6800023
:1015a000a240980003d68000030a7800a44090006f
:1015b0000104a000214298006400420001003700ad
:1015c0000000eb004f06be004f05be004f04be00fa
:1015d000000006000000e000080032006400500037
:1015e00001d68000810f50000100310000d6880034
:1015f000a04090000104a1002140980000000600d6
:10160000889fbe008a9fbe000004be000900e00063
:1016100007003a000000eb000800e000360032004e
:1016200008007800ebff07000000eb0032003700f5
:101630000800e00003003a00090078005dff0700a1
:101640002d003700640054009005780068f897007a
:101650000008a3000200320008007800ddff070048
:101660000900780053ff0700800478000000eb00b9
:101670000900e00020003200888f54001b00320077
:1016800069bd97000905550042d5de0088855500e3
:10169000c2ddde000a0178008b0f55000100360024
:1016a0000b0178004211dd00880078000900780005
:1016b00014000700888f54000e0031004255dd00f1
:1016c0000a854400880f55000a00360008045500ba
:1016d00042c4de004244dd000884440020d680007d
:1016e00031d68000008cbe00020037000800780070
:1016f00001003700090078004f05be004f04be000e
:10170000000006008001780002003700b15978001f
:101710000201e9000200e000fcff3a0000000600c0
:101720008001780002003700815978000201e90049
:101730000200e000fcff3a0000000600889fbe00a7
:101740000004be00050037000000fb00890078009f
:101750000f030700e10f400004003200384078001a
:101760000004e000f8ff3a000000eb004f04be0068
:1017700000000600881f7800c19f2100efff0700ce
:1017800000047800c19f2100a00020000003070092
:10179000080078004f047800000006008000780000
:1017a0003104e000feff3a000080ea0000804000c3
:1017b00000000600e10f40001c00320031019000e3
:1017c0001220b200e10f510015003a0021029000f2
:1017d0000400e0001200320011019000d1019000dd
:1017e000830f51001000320091017800848f510066
:1017f00002003a008308e800020037000201e80016
:10180000920098001101e90082087800b100900070
:101810000168a30005003a000049780000000600b6
:101820000080eb00000006000080eb0000000600d6
:10183000c19f2100d6023700d001900002815100e3
:101840004240a900030034001001780001497800eb
:101850000208e8000100780000000600f687470053
:10186000889fbe008a9fbe008c9fbe008e1f78009e
:1018700000057800a1b79f00020778008004eb0004
:101880008d023700afb097008100e800a1b79f003c
:1018900051c2b300814f500003003a00afb097002f
:1018a0000004eb0011003700ba0090000000fb00bc
:1018b0000168a30007003200090178008000780069
:1018c0000a007800dcff07000000e00005003a0095
:1018d000790237008a007800ad020700e10f40006e
:1018e000750232008904e8007302370001007800b5
:1018f00031417800d3c2b300834f51000c00320055
:1019000007003c00edc15100834f51000a00320036
:10191000ebc14100834f51000d003a000800370031
:1019200003c3b300834f510009003a00060037009b
:101930000830a000edff37000800a000ebff3700e3
:101940000810a000e9ff37000820a000e7ff3700db
:101950000818a300010032000800a1000838a30005
:10196000010032000820a1008200fb000103b10049
:10197000e98f50000c003e00000178008000eb0071
:10198000ea08b900b200fb000103b100808040000a
:10199000020078009201fb000303b100e98f5100bf
:1019a000f7ff3600060037008000eb00a3c2b3004b
:1019b000834f510002003a00ce0078000000e8009a
:1019c0008005eb00e2c2b300904f110008003a001e
:1019d00008e0a00064415100d04f11000200320025
:1019e0000001780006003700ce0578000000e8000e
:1019f0000001780008003700ea58b90080854100ee
:101a000002007800b201fb000303b100e98f51002e
:101a1000f9ff3600f6ff370032407800a2b79f008a
:101a2000c3c6b300834f5000250032000f003c00b6
:101a300032c6b300824f50008800320004003c00e0
:101a40000004e000210232006b4151000f0037001a
:101a500042c6b300824f500017003200654141007a
:101a6000824f500094003a001300370032c7b30091
:101a7000824f50001b00320007003c0064415100bf
:101a8000824f5000100032000241e800824f5000a7
:101a900089003a000f00370052c7b300824f500050
:101aa0008a00320063414100824f500082003a00b8
:101ab000e0df9f0009003700e0df9f00850037006e
:101ac0000840a000d4ff3700e0df9f000860a000be
:101ad00080003700e0df9f000850a0000870a000e1
:101ae0007c003700e0df9f004e00780000067800a1
:101af0000000e00001003a008c8721000c01780012
:101b00000000eb00010037000000e8008001410008
:101b10001304e000fcff3a00800678000b00e000b0
:101b2000030032008d8f5500010031008b067800d4
:101b30008005eb008d8f5000010036008d85500030
:101b4000680464002a003a00110037003a0090004f
:101b50000068a3000700320009017800010220009c
:101b60000a00780034ff07000000e00006003a0099
:101b7000060037008a0078000002200004020700f7
:101b8000e10f4000010032008904e8008b05e90004
:101b90000b00e000edff3a008085eb0014003700f9
:101ba0003a0090000068a300090032000c007800a1
:101bb000b000fb0000067800090178000a007800f8
:101bc0001dff07000000e00008003a000800370091
:101bd0008c0078003100fb00010678008a00780054
:101be000eb010700e10f4000010032008904e8002a
:101bf0000d0078008006e9000000e000e8ff3a00f0
:101c00000800e000ac013200110037003a009000fb
:101c10000068a300070032000901780001022000db
:101c20000a00780004ff07000000e00006003a0008
:101c3000060037008a00780000022000d401070067
:101c4000e10f4000010032008904e8008b05e90043
:101c50000b00e000edff3a00970137004e017800dd
:101c6000cf91de00c81ade004818dd004812de0001
:101c700004027000e4df9f000848a300080032005f
:101c80000404e00006003200e14f4200040032008c
:101c9000f4df9f0082e79f002d0020000200370044
:101ca000f2df9f001d002000e2fd2f000f01410028
:101cb0000206e80099ff3700e0df9f00ecfd2f00ef
:101cc0000f0646001d00200094ff3700e0df9f0054
:101cd000080cb30008017800020cb2007000640028
:101ce0000200e0000d003a000000e00002003200b7
:101cf0004e06be00020037004e067800cfe6de003a
:101d0000e00f5600e08f5e000a003d003800b3008f
:101d100060061600e0861e00060037000000e000a6
:101d2000020032004e06be00020037004e06780068
:101d30008006eb000b00e00005003a008c85760081
:101d40000bf0a7008b05ea008b05e900cf5dde00f4
:101d500088017800030cb200e3b79f000004200064
:101d6000808f51002300320003003c000300e0009c
:101d7000080032002d003700000820006fb29700e5
:101d8000800f52000d003200000c2000800f520026
:101d900026003a000288210010c0b300640141000f
:101da000b20f5600a28f5e001f0039000040e8000d
:101db000ea4f5000f9ff3a001b00370010c0b30093
:101dc0000201200003002000820f5600838f5e0076
:101dd00015003900441add00cc11de0083017200c9
:101de0004411dd000040e800e84f5000f6ff3a00e3
:101df0000d00370010c0b300820020000300200057
:101e0000820f5600838f5e0007003900431add0001
:101e1000cd11de00830172004311dd000040e800b7
:101e2000eb4f5000f6ff3a00e0df9f006fd99700bc
:101e30000200fb008b0f500002003d00ebdf9f0013
:101e400003003700808f550001003d0080057800b9
:101e50000100e00003003200630064000100320072
:101e60008100e90008e8a300050032008b8f5000d4
:101e7000020034008b805000010037008000eb002e
:101e8000efd997000300fb000002eb00d4b79f00de
:101e9000808f50000200340000805000d0b79f00b7
:101ea0000828a30040003200610164000818a30064
:101eb0000f0032003a0090000068a30006003200d4
:101ec000b10220000200e000010032008180e80041
:101ed000090178000d003700b00220000200e00088
:101ee000010032000080e8008a0078000e00370010
:101ef0000200e000100032003a0090000068a300e9
:101f00000700320009017800010220000a00780071
:101f100049fe07000000e00006003a000600370016
:101f20008a0078000002200019010700e10f40003c
:101f3000010032008904e8005fb097000000e00073
:101f40005a003200bcb79f00cdb79f0080067800d2
:101f50003a0090000068a3000700320009017800f1
:101f6000010320000a00780033fe07000000e000b3
:101f700006003a00060037008a00780000032000bf
:101f800003010700e10f4000010032008904e8006e
:101f90008d06e900eeff3a00ddb79f003fb69700df
:101fa000cfb6970041003700dfb197000300e00093
:101fb0001a0032000838a30018003a00bcb79f008e
:101fc000cdb79f00830678003a0090000068a30018
:101fd0000700320009017800010220000a007800a1
:101fe00015fe07000000e00006003a00060037007a
:101ff0008a00780000022000e5000700e10f4000a1
:10200000010032008904e8008d06e900eeff3a0085
:10201000ddb79f003fb69700cfb69700610164001f
:102020000818a3000f0032003a0090000068a300d7
:1020300006003200b10220000200e0000100320080
:102040008180e800090178000d003700b00220000f
:102050000200e000010032000080e8008a00780001
:102060000e0037000200e000100032003a0090003d
:102070000068a30007003200090178000102200077
:102080000a007800ecfd07000000e00006003a00be
:10209000060037008a00780000022000bc0007001c
:1020a000e10f4000010032008904e8000b03e90061
:1020b000e331b900b2b79f004233dd000088210050
:1020c000000343008e01780093b79f000807780053
:1020d000060478005c0037008b05e900000420004e
:1020e0006fb29700800f52003800320003003c00ae
:1020f0000400e000080032003e0037000008200025
:10210000efb09700808f500020003200000c2000bc
:10211000808f500037003a000e48a30010003200b4
:102120001802be000401be000c00be00f4b79f0000
:1021300085bf9f0018010700e0df9f000000fb0043
:10214000cf80de007fb297008fba97000401be00f7
:10215000210107000006560081865e000700370057
:1021600018017800110009000286d800a2002000a2
:10217000110009000280d800e1df9f006fd99700ad
:102180000243b000e2df9f001a0037007086210092
:102190000e58a30001003200608521000188210053
:1021a000810054000c01be008100e90003003300ef
:1021b0008301d1000281d300fbff3700ef006100f3
:1021c0000100400010407800090037000c00be00fc
:1021d0003fb297000402e900030033008100d10000
:1021e0000080d300fbff3700674060000043b00071
:1021f000e0df9f00ba0090006fd997000200fb005b
:102200000168a3000700320009017800800078000f
:102210000a00780088fd07000000e00005003a0091
:10222000050037008a00780059000700e10f4000e0
:10223000010032008904e8003fb2970063025200b7
:10224000b4b79f00640454000b00e000a2ff3a0002
:102250000e0478001fb797000838a300160032005c
:102260005fb097000000e000130034000004780025
:102270003a0090000068a3000700320009017800ce
:10228000010220000a0078006bfd07000000e0005a
:1022900006003a00060037008a007800000220009d
:1022a0003b000700e10f4000010032008904e80014
:1022b0000804e900eeff3a00afb097001140780043
:1022c000e0df9f000004e0006efd3a0009007800a6
:1022d0004f0778004f06be004f05be004f04be00fa
:1022e0006f01b10000000600881f7800000478002c
:1022f000b8009000010078001020b200e10f5000fb
:1023000005003a000000eb0010049800280090003f
:10231000000c7800180037002120b2000000eb000c
:1023200022202000828f500017003a00a800900061
:102330000100e00014003200180190000200e000eb
:102340001100320048009000f1060700980090004c
:10235000810f500003003200380090000003b300ea
:10236000300498000000eb00100498002800900052
:10237000000c7800b80090000000eb000158a300aa
:10238000010032000080eb004f04780000000600de
:10239000889fbe0001047800b80090008084eb00a4
:1023a0000118a3003a003200180190000198a30020
:1023b00002003a000200e00035003a000190a0005f
:1023c0003104980080047800f90fb2000200e000a8
:1023d00002003a0028009000000c7800ea8f5400b8
:1023e00005003a000178a30003003a008800780055
:1023f000d0002000e6ff070018009000d8009000f1
:10240000810f50000b0032000000e800100498001b
:102410001800780009487800000ce80011c0b300eb
:10242000e0ae210001487800ea8f540018003a001d
:102430000500370088007800094078001700070081
:102440008004780012003700380090000088a30054
:102450000f00320018019000a80090004800900082
:10246000ab06070098009000810f50000400320076
:10247000380090000003b300300498008084eb0023
:102480000000eb001004980028009000000c780079
:10249000090078004f04be00000006000200fa00a8
:1024a000889fbe00a0ff9f000104780038009000c4
:1024b0000068a30033003a00e200600005003a0023
:1024c0000003b30030049800110498000080eb0072
:1024d0002e003700d80490000900e00006003a0002
:1024e00012002000e6805700480090008806070090
:1024f0001904980023003700a80090000100e000b4
:1025000008003a0011af210021049800010c780066
:102510002100200051049800110498000030a00010
:102520003004980018019000a80090004800900026
:1025300077060700280090008080eb0011049800c7
:10254000aff8970001487800000ce8002ff89700da
:10255000ea4f50000b003a00380090000088a300ba
:102560000800320018019000a80090004800900078
:10257000670607000000eb0010049800a800900018
:10258000010c7800aff897000100fb004f04be007b
:102590000080fa00000006006022b8000602200059
:1025a0000000d0008180d2000482d2008582d20057
:1025b0000000a0000202520083825a000300310092
:1025c0000202420083824a000000a1000603e900e3
:1025d000f3ff3a0000000600020ab900001bb90030
:1025e0000200b800810042008100430000000600a4
:020000040000fa
:1025f0000a2d00002d2d00002d2d00005468000034
:10260000726f0000747400006c65000020420000ce
:10261000726100006b6500002052000061770000cd
:102620002044000065620000756700002d2d000049
:102630002d2d000000540000687200006f7400002f
:10264000746c0000653100003a200000202000007a
:102650002020000020250000750a00000054000022
:10266000687200006f740000746c00006532000036
:102670003a2000002020000020200000202500003b
:10268000750a0000000a00002d2d00002d2d00000d
:102690002d540000687200006f740000746c00001c
:1026a0006520000042720000616b000065200000a0
:1026b00053690000676e0000616c00002044000058
:1026c00065620000756700002d2d00002d2d0000b3
:1026d000000a00002d2d00002d2d000020420000da
:1026e000726100006b6500002052000061770000fd
:1026f0002044000065620000756700002d2d000079
:102700002d2d000000420000726100006b6500008a
:10271000313a00002020000020200000202000008e
:102720002020000020200000257500000a0a00007b
:1027300000420000726100006b650000323a000048
:102740002020000020200000202000002020000089
:1027500020200000257500000a0a00000042000049
:10276000726100006b650000313a0000202000001b
:102770002020000020200000202000002020000059
:10278000257500000a00000042720000616b000025
:10279000653200003a2000002020000020200000c8
:1027a000202000002020000020250000750a0000e5
:1027b000000a0000204200006174000074650000ff
:1027c00072790000206900006e6600006f3a000018
:1027d000000a0000204200006174000074650000df
:1027e0007279000020430000656c00006c2000003e
:1027f000686900006768000020560000203d000066
:1028000020250000643a00000a0000000a200000b1
:1028100042610000747400006572000079200000bd
:10282000436500006c6c0000206c00006f770000b6
:1028300020560000203d000020250000643a0000e2
:102840000a0000000a200000546500006d700000be
:10285000204d0000415800002025000064200000a9
:1028600020460000204d0000494e000020250000b9
:102870006420000046200000415600004720000070
:102880002564000020460000000a00002d2d0000f5
:102890002d2d0000424d00004d200000506f000023
:1028a000776500007220000053690000676e000029
:1028b000616c000020440000656200007567000044
:1028c0002d2d00002d2d000000430000757200002a
:1028d000726500006e74000020500000616300000b
:1028e0006b200000313a0000202000002564000029
:1028f0000a0000004375000072720000656e00005f
:102900007420000050610000636b00002032000062
:102910003a20000020250000640a00000043000067
:1029200075720000726500006e7400002050000097
:10293000616300006b200000333a0000202000009b
:10294000256400000a0000000a2d00002d2d000063
:102950002d460000617500006c74000020520000dc
:10296000657000006f720000746900006e670000ff
:102970002f520000656300006f7600006572000052
:10298000792000004d6f0000646500002d2d0000cf
:102990002d2d0000000a00002d2d00002d2d00001f
:1029a0004d43000053200000464100004c550000fc
:1029b000542d00002d2d00002d0000004c6f000054
:1029c00077200000566f00006c7400006167000003
:1029d0006520000046610000756c00007420000056
:1029e0006f6e0000204200004d4d000000460000c8
:1029f000617500006c740000696e000067200000c3
:102a000042610000747400006572000079200000cb
:102a1000697300003a200000256400000a000000ed
:102a2000486900006768000020540000656d0000e0
:102a3000706500007261000074750000726500002e
:102a400020460000617500006c740000206f0000db
:102a50006e200000424d00004d000000436f00005a
:102a60006d6d0000756e0000696300006174000008
:102a7000696f00006e730000204600006175000061
:102a80006c740000206f00006e200000424d0000ba
:102a90004d00000046610000756c00007469000084
:102aa0006e670000204d00006f640000756c000030
:102ab00065200000697300003a20000025640000d2
:102ac0000a0000000a2d00002d2d00002d530000eb
:102ad0004153000020460000414c000055540000c6
:102ae0002d2d00002d2d0000000a00002d2d0000ce
:102af0002d2d000054480000524f00005454000097
:102b00004c4500005f530000414e00004954000056
:102b1000595f000043480000454300004b2d000072
:102b20002d2d00002d0000000a2d00002d2d00008d
:102b30002d540000485200004f540000544c000037
:102b4000455f000042520000414b0000455f00001d
:102b500043480000454300004b2d00002d2d000090
:102b60002d0000000a2d00002d2d00002d44000036
:102b70004453000020460000414c00005554000022
:102b80002d2d00002d2d0000000a00002d2d00002d
:102b90002d2d00005044000055200000464100004b
:102ba0004c550000542d00002d2d00002d0000007c
:102bb0005374000061740000652000004d61000046
:102bc00063680000696e0000652000004661000037
:102bd000756c0000742000003d200000256400009a
:102be0000a000000546800006520000066610000d3
:102bf000756c000074730000203d00002000000090
:102c000078200000004f00002000000053740000f6
:102c100061740000652000004f6e00002045000038
:102c200043550000205300007461000074650000eb
:102c3000204d000061630000686900006e650000bf
:102c40000054000068650000204300007572000019
:102c5000726500006e740000205300007461000073
:102c60007465000020490000732000002564000006
:102c70000a00000054680000652000007265000032
:102c80007365000074200000766100006c75000020
:102c9000652000006973000020250000640a000020
:102ca000004300006f6d00006d7300003a000000eb
:102cb0004e6f0000204200004d4d000020630000d8
:102cc0006f6d00006d730000004e00006f2000006b
:102cd0004444000053200000636f00006d6d00004d
:102ce000730000004e6f00002053000041530000ad
:102cf000206300006f6d00006d730000004e000047
:102d00006f2000004d43000053200000636f00005f
:102d10006d6d0000730000004e6f00002053000036
:102d200053200000636f00006d6d00007300000011
:102d300042750000747400006f6e000020250000d2
:102d4000642000003a2000002564000000500000cc
:102d50006c6500006173000065200000656e000076
:102d60007465000072200000706900006e3a000077
:102d700000250000640000000a2a00002a2a000042
:102d80002a2a00002a2a00004341000052200000a5
:102d9000554e00004c4f0000434b000045440000de
:102da0002a2a00002a2a00002a2a00002a2a0000d3
:102db000000a00002a2a00002a2a00002a2a00000d
:102dc0002a2a00002a570000524f00004e470000f8
:102dd00020500000494e00002a2a00002a2a000044
:102de0002a2a00002a2a00002a000000447200005b
:102df0006976000065720000206e0000616d0000c1
:102e0000652000003d2000002563000025630000d0
:102e1000256300000a0000007c2d00002d2d00001d
:102e20002d4d000061780000205400006872000001
:102e30006f740000746c0000652d00002d2d0000e3
:102e40007c0000007c2d00002d2d00002d2d0000a9
:102e50002d300000207400006f2000003130000091
:102e6000302d00002d2d00002d2d00007c000000d5
:102e70007c2d00004d75000073740000204200009e
:102e800065200000332000006469000067690000cd
:102e9000747300002d2d00007c00000044720000bf
:102ea0006976000065720000204d00006178000026
:102eb00020540000687200006f740000746c000001
:102ec000652000003d200000256400000a0000008d
:102ed0007c2d00002d2d00002d2d00004d610000e7
:102ee0007820000052650000676500006e2d00002c
:102ef0002d2d00002d2d00007c00000044720000ec
:102f00006976000065720000204d000061780000c5
:102f10002052000065670000656e0000203d000043
:102f200020250000640a0000007c00002d2d000018
:102f30002d2d00004c6f00007742000061740000ee
:102f400043750000746f0000666600002d2d0000c0
:102f50002d7c0000004400007269000076650000ce
:102f6000722000004c6f00007720000042610000da
:102f70007474000065720000792000003d2000009c
:102f8000256400000a0000007c2d00002d2d0000ab
:102f90002d2d00002d2d00002d520000616d000030
:102fa000702d00002d2d00002d2d00002d2d000076
:102fb0007c00000044720000697600006572000029
:102fc00020520000616d0000702000003d200000d4
:102fd000256400000a0000007c2d00002d2d00005b
:102fe00046610000756c000074200000416c000018
:102ff0006c6f000077650000642d00002d2d00002f
:103000007c0000007c2d00002d2d00002d2d0000e7
:103010002d44000065620000756700002045000037
:103020006e2d00002d2d00002d2d00007c000000d5
:103030007c52000065670000656e0000496e00006c
:103040007075000074200000262000004657000024
:103050002f520000562d00007c0000005768000031
:103060006174000020660000617500006c7400004f
:10307000732000006172000065200000616c000098
:103080006c6f000077650000643f000000460000a0
:10309000617500006c74000073200000616c00001a
:1030a0006c6f000077650000642000003d20000088
:1030b000256400000a0000004465000062750000fd
:1030c00067670000696e000067200000616c000007
:1030d0006c6f000077650000643f0000202800004e
:1030e000312000003d2000007965000073200000c1
:1030f000302000003d2000006e6f00000044000002
:103100006562000075670000676900006e67000077
:10311000203d0000200000007965000073000000e1
:103120006e6f000000460000572d00005256000050
:10313000206100006c6c00006f7700006564000087
:103140003f20000028310000203d000020790000d1
:103150006573000020300000203d0000206e00005c
:103160006f29000000460000572d00005256000055
:10317000203d00002000000052650000676500004f
:103180006e200000736f0000757200006365000020
:1031900020280000312000003d2000006272000065
:1031a000616b000065200000302000003d20000021
:1031b00074680000726f0000747400006c65000099
:1031c0002900000052650000676500006e200000c5
:1031d000736f00007572000063650000203d000001
:1031e0002000000042720000616b000065000000da
:1031f00054680000726f0000747400006c65000079
:10320000004e000065770000204400007269000055
:1032100076650000722000005361000076650000b2
:1032200064210000004e000065770000204d000082
:103230006178000020740000687200006f74000064
:10324000746c0000652000003d2000002564000033
:10325000004e000065770000204d000061780000fe
:103260002052000065670000656e0000203d0000f0
:1032700020250000640000004e650000772000005b
:103280004c6f00007742000061740000437500003d
:10329000746f000066660000203d000020250000dd
:1032a000640000004e6500007720000052610000bd
:1032b0006d700000203d000020250000640000002b
:1032c000465700002d52000056200000616c00009f
:1032d0006c6f000077650000643f0000202800004c
:1032e000312000003d2000007965000073200000bf
:1032f000302000003d2000006e6f000000520000f2
:1033000065670000656e0000207300006f750000a7
:10331000726300006520000028310000203d00009d
:1033200020620000726100006b6500002030000028
:10333000203d000020740000687200006f740000df
:10334000746c000065000000436100007220000002
:103350004d6500006e750000204c00006f6300009a
:103360006b6500006400000050720000657300008f
:103370007320000055200000746f000020750000cd
:103380006e6c00006f6300006b0000007c2d00007d
:103390002d2d00002d2d00004d610000696e0000f4
:1033a000204d0000656e0000752d00002d2d0000e1
:1033b0002d2d00002d7c0000200000003129000090
:1033c00020540000687200006f740000746c0000ec
:1033d000652000004d6500006e75000000320000a1
:1033e0002920000042720000616b0000652000008f
:1033f0004d6500006e7500000033000029200000bc
:103400005365000074740000696e0000677300006b
:10341000204d0000656e000075000000342900009a
:1034200020420000617400007465000072790000a1
:10343000204900006e6600006f0000003529000082
:10344000204300006f6d00004275000073200000f3
:10345000496e0000666f0000003600002920000061
:10346000447200006976000065720000204300008d
:103470006f6e0000666900006700000037290000d9
:10348000204400006562000075670000002a00000b
:103490002a2a00002a2a00002a4e00004f2000009d
:1034a0004d61000074630000682a00002a2a0000b1
:1034b0002a2a0000007c00002d2d00002d54000061
:1034c000687200006f740000746c000065200000da
:1034d0004d6500006e7500002d2d00002d2d0000a3
:1034e0007c000000312900002054000068720000b8
:1034f0006f740000746c00006520000044690000d7
:10350000737000006c610000790000003229000037
:1035100020540000687200006f740000746c00009a
:103520006520000054720000697000002053000004
:10353000657400000033000029200000546800007a
:10354000726f0000747400006c650000204d000074
:10355000697300006d610000746300006800000082
:103560007c2d00002d2d00002d2d0000427200004a
:10357000616b0000652000004d6500006e75000065
:103580002d2d00002d2d00002d7c000000310000ad
:103590002920000042720000616b000065200000dd
:1035a00044690000737000006c6100007900000045
:1035b0003229000020420000726100006b650000ab
:1035c000204d000061780000205300006574000069
:1035d000007c00002d2d00002d53000065740000bc
:1035e000746900006e670000732000004d650000e4
:1035f0006e7500002d2d00002d2d00007c000000b8
:10360000312900002056000065720000626f000042
:1036100073650000003200002920000052650000a0
:103620007365000074200000566100006c75000096
:10363000650000003329000020410000626f000097
:103640007574000000340000292000004272000060
:10365000616b0000652000004c6900006768000095
:103660007420000054680000726500007368000058
:103670006f6c00006400000035290000205300003a
:103680006574000020530000746100007274000033
:103690002053000077690000746300006800000098
:1036a000362900002053000065740000204200000d
:1036b0004d4d0000204c0000696700006874000058
:1036c000003700002920000053650000742000002e
:1036d000494d0000442000004c690000676800006c
:1036e00074000000382900002053000065740000b9
:1036f0002041000043540000204c00006967000096
:103700006874000000390000292000004c4f0000c0
:10371000434b0000204300004152000000540000d1
:10372000686500002073000074610000727400007e
:1037300020730000776900007463000068200000b7
:103740003d200000256400000a00000054680000cd
:1037500065200000424d00004d2000006c69000013
:1037600067680000742000003d2000002564000010
:103770000a0000005468000065200000494d000068
:10378000442000006c69000067680000742000009d
:103790003d200000256400000a000000546800007d
:1037a0006520000041430000542000006c690000c7
:1037b00067680000742000003d20000025640000c0
:1037c0000a0000002a2a00002a2a00002a430000da
:1037d00061720000204c00006f6300006b65000008
:1037e000642a00002a2a00002a2a0000007c000027
:1037f0002d2d00002d420000617400007465000052
:1038000072790000204900006e6600006f2d0000f4
:103810002d2d00007c000000312900002056000002
:103820006f6c0000746100006765000000320000ea
:10383000292000004375000072720000656e0000d0
:10384000740000003329000020540000656d000062
:103850007000000034290000205300007461000053
:103860007473000000420000617400007465000081
:10387000727900002073000074610000746500001c
:10388000002d0000204200006f6100007264000003
:10389000732000004f4b0000002d0000204300006b
:1038a0006f6d00006d270000732000005550000070
:1038b000007c00002d2d00002d4300006f6d0000e6
:1038c0004275000073200000496e0000666f000022
:1038d0002d2d00002d7c000000310000292000006b
:1038e000426f00006172000064730000204f00000e
:1038f0006e000000322900002045000072720000b6
:103900006f7200002052000061740000650000002a
:103910003329000020440000617400006120000091
:103920005261000074650000007c00002d2d000035
:103930002d440000726900007665000072200000ce
:10394000436f00006e660000696700002d2d0000c7
:103950002d7c00000031000029200000447200008e
:10396000697600006572000020530000656c00005d
:10397000656300007400000032290000204e000042
:103980006577000020440000726900007665000041
:1039900072200000436f00006e660000696700003f
:1039a0000033000029200000447200006976000006
:1039b00065720000204d0000617800002054000076
:1039c000687200006f740000746c000065200000d5
:1039d00000340000292000004472000069760000d5
:1039e00065720000204d0000617800002052000048
:1039f00065670000656e00002000000035290000aa
:103a0000204400007269000076650000722000000a
:103a10004c6f0000774200006174000043750000a5
:103a2000746f000066660000200000003629000068
:103a300020440000726900007665000072200000da
:103a4000526100006d700000200000003729000066
:103a500020440000726900007665000072200000ba
:103a600045540000430000002d2d00002d2d0000c6
:103a70002d2d000025730000204900005320000078
:103a80004143000054490000564500002d2d000020
:103a90002d2d00002d2d00002d0a0000007c0000bf
:103aa0002d2d00002d440000726900007665000095
:103ab000722000004c690000737400002d2d00007e
:103ac0002d7c000000250000642900002044000037
:103ad0007269000076650000722000002564000015
:103ae000202d0000200000007c2d00002d41000052
:103af000646400002061000020440000726900003e
:103b000076650000722d00002d7c0000007c000016
:103b10002d2d0000447200006976000065720000df
:103b200073200000696e000069740000616c000081
:103b3000732d00002d7c0000007c00002d2d000066
:103b40004d6100007820000074680000726500007c
:103b5000652000006368000061720000732d0000a2
:103b60002d7c0000007c00002d2d00002d44000065
:103b70006562000075670000204d0000656e000062
:103b8000752d00002d2d00007c0000003129000063
:103b900020440000445300002053000077690000d7
:103ba000746300006820000000320000292000003b
:103bb000436100007220000046610000756c000047
:103bc000740000003329000020530000532000003f
:103bd000436100007220000046610000756c000027
:103be00074000000342900002043000061720000ce
:103bf000205300007461000074650000007c000028
:103c00002d2d000042720000616b00006520000055
:103c10004c690000676800007420000054680000d0
:103c200072650000736800006f6c0000642d000076
:103c30002d7c0000007c00002d2d00002d47000091
:103c400069760000652000007468000065200000af
:103c5000766100006c750000652000006173000053
:103c6000202000002d2d00002d7c0000007c000095
:103c70002d2d00002d2d00002d2d00002d2d0000dc
:103c80002d300000207400006f2000003130000053
:103c9000302d00002d2d00002d2d00002d2d0000b9
:103ca0002d7c00000020000042720000616b0000cb
:103cb000652000004c690000676800007420000067
:103cc0005365000074200000746f00002025000080
:103cd000640000001b5b0000324a0000001b000073
:103ce0005b480000000000002a2a00002a2a000089
:103cf0002a2a00002a2a00002a2a00002a2a000074
:103d00002a2a00002a2a00002a2a00002a2a000063
:103d10002a2a00002a2a00002a2a0000002a00007d
:103d200020200000536f00006674000077610000df
:103d30007265000020570000726900007474000072
:103d4000656e000020420000793a0000202000004b
:103d50002a0000002a20000020200000416e000000
:103d6000647200006577000020540000686f000056
:103d7000726e0000626f0000726f000075670000d5
:103d800068200000202a0000002a000020200000f7
:103d900020200000205200006963000068610000dc
:103da00072640000204a00006f6800006e7300001b
:103db0006f6e000020200000202000002a0000007c
:103dc0002a200000202000002020000020200000e9
:103dd0005a610000632000004b6900006c62000023
:103de000757200006e2000002020000020200000de
:103df000202a00000020000020200000202e0000cb
:103e00002d2e00002020000020200000002e0000a9
:103e100020200000282f00005e5c00002920000008
:103e2000200000002e200000202800005c20000060
:103e30002f29000020200000002e0000202000007c
:103e40002e2d0000272d00002e2000002020000035
:103e5000002e0000202f0000285f0000495f0000b6
:103e6000295c0000200000002e2000005c200000e3
:103e700029200000282000002f2000002020000022
:103e8000002e0000202000002f2000002020000035
:103e90005c200000200000002e200000205c0000bc
:103ea000207c0000202f00002020000020000000c7
:103eb0002e200000202000005c7c00002f2000004d
:103ec0002020000020200000002e00002020000004
:103ed000202f00007c5c000020200000202000003b
:103ee000002e000020200000202f0000592000009c
:103ef0002020000020200000200000002575000088
:103f0000000a00000d000000256300000a00000008
:020000040000fa
:103f10000800fa001007980021079800320798005f
:103f20000000eb00000f7800070037002e00900023
:103f300010407800ae0090008100e8002107980052
:103f4000421607001e0fe8009e0078003e00900019
:103f5000808f5000f5ff39003e0090000080fa008d
:103f6000000006000400fa00889fbe0060c0b30095
:103f7000bf180700813e2000810f5000e20136008b
:103f800070ce80008000eb00d200200003002000f3
:103f9000820f5000838f5800c2013e0000060100ce
:103fa0000d003700140037003b0037006200370077
:103fb0009000370097003700b50037000f01370039
:103fc00032013700430137004a01370057013700fb
:103fd00083013700a101370070cf80008000780096
:103fe00070ce8000808f5000a501320070ce80001e
:103ff00070cf8800ab01370070cf80008000780060
:1040000070ce8000808f50000200320070ce8000a1
:1040100070cf8800802f2900d6f5070060c0b3005c
:10402000f01d0700801f7800b0312900801f780044
:104030003df40700e487570070c0b300e91d070096
:10404000801f7800f0322900801f780036f40700c6
:10405000e487570030342900c6f5070010c0b300cc
:104060007b1c0700801f7800b0312900801f78007a
:104070002df40700e487570020c0b300741c07002c
:10408000801f7800f0322900801f780026f4070096
:10409000e48757008301370070cf800080007800ec
:1040a00070ce8000808f50000200320070ce800001
:1040b00070cf880090362900aef5070080c0b300ad
:1040c000c81d0700801f780030382900801f780045
:1040d00015f40700e487570090c0b300c11d070026
:1040e000801f780090392900801f78000ef40700a7
:1040f000e4875700303429009ef5070030c0b30034
:10410000531c0700801f7800f03a2900801f7800b8
:1041100005f40700e487570040c0b3004c1c0700bb
:10412000801f7800403c2900801f7800fef30700c4
:10413000e48757005b01370070cf80008000780073
:1041400070ce8000808f50000200320070ce800060
:1041500070cf8800903d290086f5070060c0b3004d
:10416000121d0700801f7800903e2900801f7800f4
:10417000edf30700e487570070c0b3000b1d070084
:10418000801f780060402900801f7800e6f3070058
:10419000e48757000040eb00171d070080047800fb
:1041a00070c0b300141d07000004780060c0b300a5
:1041b000111d0700891f7800881f7800801f780074
:1041c00020422900801f7800d7f30700e8875700b6
:1041d00040ce80000000e80040ce880040ce800045
:1041e000e50f5000280134000000eb0040ce8800ad
:1041f0002c01370070cf80008000780070ce8000e6
:10420000808f50002201320070ce800070cf880075
:104210002401370070cf80008000780070ce8000cd
:10422000808f50000200320070ce800070cf880076
:10423000504429004ff5070010c0b300011d0700ce
:10424000801f780050462900801f7800b6f30700d1
:10425000e487570020c0b300fa1c0700801f7800d5
:10426000a0472900801f7800aff30700e4875700bc
:1042700030c0b300f31c0700801f7800f04829000d
:10428000801f7800a8f30700e48757000501370076
:1042900070cf80008000780070ce8000808f50004a
:1042a0000200320070ce800070cf8800404a2900a2
:1042b00030f50700f0d280000000e000020032007c
:1042c000b04c29002bf5070010d380000000e0005f
:1042d0002600320010d38000e10f500007003200aa
:1042e000e10f500020003400e20f50000c003200bb
:1042f000e30f5000130032001c003700e04d29008e
:104300001cf50700c0cc8000801f7800704f29008a
:10431000801f780084f30700e487570013003700fc
:104320000051290013f50700c0cc8000801f7800e1
:10433000704f2900801f78007bf30700e487570047
:104340000a003700e05229000af50700c0cc8000bf
:10435000801f7800a0542900801f780072f30700a6
:10436000e4875700010037000000000000d3800000
:104370000000e0000e00320020562900fdf4070086
:1043800000d38000e10f500003003200e20f500024
:10439000040032000600370050572900f5f40700ea
:1043a0000300370040592900f2f407000000000024
:1043b000e0d280000000e00002003200205b290013
:1043c000ecf4070020d380000000e000020032007f
:1043d000505c2900e7f407007d09070060ce8800e3
:1043e00060ce8000801f7800805d2900801f7800eb
:1043f0004df30700e4875700aa00370070cf800014
:104400008000780070ce8000808f50000200320063
:1044100070ce800070cf88000040eb00004f780025
:10442000205f2900801f78003ff307008f87e90095
:1044300010c0b300004f78000e0037001e40780017
:104440009e1907000004e00005003200006029000a
:10445000801f780034f307008f87e90004003700dd
:1044600030602900801f78002ff307008f87e90054
:104470001e4fe8001e407800eb4f5000efff340065
:10448000a0002000eaf407008600370070cf80000b
:104490008000780070ce8000808f500002003200d3
:1044a00070ce800070cf88004509070050ce88008c
:1044b00060602900aff4070050ce8000801f7800b4
:1044c00010622900801f780017f30700e487570067
:1044d0007400370070cf80008000780070ce8000bc
:1044e000808f50006c00320070ce800070cf88004a
:1044f0006c00370070cf80008000780070ce8000a4
:10450000808f50000200320070ce800070cf880093
:104510009a180700801f7800a0632900801f780088
:1045200001f30700e48757005e00370070cf80007a
:104530008000780070ce8000808f50000200320032
:1045400070ce800070cf88001065290089f40700c4
:1045500050c0b300d70f07000004a2000004e00021
:10456000020032008065290082f4070040c0b300d9
:10457000d00f07000004a2000004e0000200320097
:10458000506629007bf4070030c0b300c90f070054
:104590000004a2000004e0000200320020672900ad
:1045a00074f4070020c0b300c20f07000004a2008b
:1045b0000004e00002003200f06729006df40700fb
:1045c00060c0b300bb0f07000004a2000004e000bd
:1045d00033003200c068290066f40700310037005c
:1045e00070cf80008000780070ce8000808f5000f7
:1045f0000200320070ce800070cf88000000eb0017
:10460000100798000f0037001e0090008000400047
:1046100020a821000080400010007800801f780052
:104620009e009000811f780080692900801f78001b
:10463000bdf20700e68757001e0090000000e8006a
:10464000100798001e009000e70f5000eeff3400a6
:10465000a000200076f407001200370070cf800021
:104660008000780070ce8000808f50000200320001
:1046700070ce800070cf8800640607000900370004
:1046800000000000070037000000000005003700b0
:1046900000000000030037000000000001003700a8
:1046a00000000000009d2100104078000004e000a0
:1046b0000600320055060700c0ce8000804078001a
:1046c000a0ce80000040780017040700c09d2100a4
:1046d000104078000004e000090032004b0607009b
:1046e000c0ce800080407800a0ce800000407800de
:1046f0000d040700c09d21008040eb0001487800b8
:1047000060c0b30016170700461407000000e00061
:1047100002043200109d2100104078000004e000e7
:104720008d003a00a20d07000004e00045003200b1
:104730004114070080407800209d21000148780046
:10474000209d21009040780050c7b30080cf5000da
:104750000a003a00706a2900801f780072f2070090
:104760008f87e9000000eb00b0ce8800d09e2100ca
:1047700011c0b3000148780077003700d09e2100b7
:10478000104078000004e0002a003200b0ce800023
:10479000219d210091407800029e210000004100ef
:1047a00001487800b0ce8000019e210000804000ca
:1047b000104078000000fb001df40700b0ce800020
:1047c0000000e800b0ce8800b0ce8000e30f5000bb
:1047d00061003400d09e21008040eb000148780049
:1047e0000000eb00b0ce8800e09d2100801f780023
:1047f000906b2900801f7800009e210093f0070035
:10480000e4875700770d0700f1ce8000810f50003c
:1048100005003a000040eb006a0d0700c06b29005c
:10482000d4f307004c003700906d2900d1f3070046
:10483000490037008040eb000040eb00ba0307005e
:1048400045003700fc13070080407800209d2100c0
:1048500001487800609c2100104078000004e000ce
:1048600004003200209d2100104078000000fb0071
:10487000eff30700209d21009040780020c6b30090
:1048800080cf500019003a000000eb0070ce880085
:10489000b09d2100104078000004e00006003200c6
:1048a000c0ce80000000e000030034000000eb00f8
:1048b000c0ce880025003700b09d21001040780050
:1048c0000004e0001e003200c0ce80000000e000c6
:1048d0001d003a00b09d21008040eb0001487800a7
:1048e0000000eb00a0ce880018003700b09d21002a
:1048f000104078000004a2000004e000060032002e
:10490000209d2100104078000000fb000003b10052
:10491000a0ce88000d003700b09d21001040780027
:104920000004e00009003200209d210010407800c2
:104930000000fb000003b100c0ce88000300370078
:10494000000000000100370000000000009d210071
:1049500011c0b30001487800109d2100104078007c
:104960000004e0006d033200109d2100104078002b
:10497000e44f500015003a00b8ce8000ae13070097
:1049800080407800009e2100080040000148780027
:10499000009e2100104078008040780000cdb300d8
:1049a00000c04000ea0b070080bb2000251607006e
:1049b0000000eb00c0ce8800109d21008040eb007d
:1049c000014878000000eb00b0ce8800109d210067
:1049d00010407800e14f500012003a00b8ce80003d
:1049e0009513070080407800009e210008004000d9
:1049f00001487800b0ce80000000e800b0ce88000a
:104a0000b0ce8000e10f500044033400109d21001f
:104a10008040eb00014878000000eb00b0ce880039
:104a20003e033700109d210010407800e24f5000f7
:104a300012003a00b8ce80007f1307008040780053
:104a4000009e21000800400001487800b0ce8000a0
:104a50000000e800b0ce8800b0ce8000e10f50002a
:104a60002e033400109d21008040eb0001487800a7
:104a70000000eb00b0ce880028033700109d210015
:104a800010407800e34f500012003a00b8ce80008a
:104a90006913070080407800009e21000800400054
:104aa00001487800b0ce80000000e800b0ce880059
:104ab000b0ce8000e10f500018033400109d21009b
:104ac0008040eb00014878000000eb00b0ce880089
:104ad00012033700109d210010407800e54f500070
:104ae000ad013a00b09e2100104078000004e000c3
:104af00036003a00b8ce80004f130700804078009f
:104b0000009e21000800400001487800b0ce8000df
:104b10000000e800b0ce8800b0ce8000e20f500068
:104b2000fe023400209e2100104078000001fb00ae
:104b3000109e2100104078008000fb00009e2100a4
:104b4000104078000000fb00821f7800811f780071
:104b5000801f7800606f2900801f780072f10700c5
:104b6000e8875700009e2100104078008040eb004d
:104b70003f0c0700109e21001040780011c0b300c8
:104b80003b0c0700209e21001040780021c0b3009c
:104b9000370c0700c0702900f6f2070020722900c8
:104ba000f4f2070080732900f2f207000000eb0026
:104bb000b0ce8800b09e2100104078008040e80010
:104bc000b09e210001487800d4023700b09e210039
:104bd00010407800e14f50002c003a00b8ce800021
:104be0001513070080407800009e21000800400057
:104bf00001487800b0ce80000000e800b0ce880008
:104c0000b0ce8000e20f5000c4023400e09d2100cd
:104c1000801f7800906b2900801f7800009e210083
:104c20008aef0700e4875700f0ce8000801f7800ed
:104c3000e0742900801f78003bf10700e4875700eb
:104c4000f0ce8000140c070080762900c9f207001e
:104c500020722900c7f2070080732900c5f20700ff
:104c6000109d210051c0b300014878000000eb0006
:104c7000b0ce8800b09e2100104078008040e8004f
:104c8000b09e210001487800a4023700b09e2100a8
:104c900010407800e24f50002c003a00b8ce80005f
:104ca000e512070080407800009e210008004000c7
:104cb00001487800b0ce80000000e800b0ce880047
:104cc000b0ce8000e20f500094023400e09d21003d
:104cd000801f7800906b2900801f7800009e2100c3
:104ce0005aef0700e4875700f0ce8000801f78005d
:104cf000e0772900801f78000bf10700e487570058
:104d0000f0ce8000ea0b07005079290099f20700e5
:104d10002072290097f207008073290095f207009e
:104d2000109d210051c0b300014878000000eb0045
:104d3000b0ce8800b09e2100104078008040e8008e
:104d4000b09e21000148780074023700b09e210017
:104d500010407800e34f50002c003a00b8ce80009d
:104d6000b512070080407800009e21000800400036
:104d700001487800b0ce80000000e800b0ce880086
:104d8000b0ce8000e20f500064023400e09d2100ac
:104d9000801f7800906b2900801f7800009e210002
:104da0002aef0700e4875700f0ce8000801f7800cc
:104db000b07a2900801f7800dbf00700e4875700f5
:104dc000f0ce8000c00b0700407c290069f207008c
:104dd0002072290067f207008073290065f207003e
:104de000109d210051c0b300014878000000eb0085
:104df000b0ce8800b09e2100104078008040e800ce
:104e0000b09e21000148780044023700b09e210086
:104e100010407800e44f50002e003a00b8ce8000d9
:104e20008512070080407800009e210008004000a5
:104e300001487800b0ce80000000e800b0ce8800c5
:104e4000b0ce8000e20f500034023400e09d21001b
:104e5000801f7800906b2900801f7800009e210041
:104e6000faee0700e4875700f0ce8000801f78003c
:104e7000a07d2900801f7800abf00700e487570071
:104e8000f0ce8000960b0700c07e290039f20700a3
:104e90002080290037f207008081290035f20700c1
:104ea000e082290033f20700109d210051c0b300b9
:104eb000014878000000eb00b0ce8800b09e2100d1
:104ec000104078008040e800b09e21000148780042
:104ed00012023700b09e210010407800e54f5000cc
:104ee00021003a005412070080407800009e210003
:104ef00001487800e09d2100801f7800906b290018
:104f0000801f7800009e2100d0ee0700e487570044
:104f1000f0ce8000801f780070842900801f780008
:104f200081f00700e4875700f0ce80000040780051
:104f3000710b0700b09e2100104078008040e8000f
:104f4000b09e210001487800109d210051c0b3009f
:104f500001487800c085290006f207000000eb0038
:104f6000b0ce8800ed013700b09e210010407800df
:104f7000e64f500028003a002f12070080407800ca
:104f8000009e210001487800e09d2100801f7800ec
:104f9000906b2900801f7800009e2100abee070077
:104fa000e4875700f0872900801f78005ef0070033
:104fb0008f87e900f0ce8000e10f500005003a0035
:104fc000c0882900ebf1070010c0b3005c0b07009c
:104fd0000400370000892900e6f107000040eb00db
:104fe000570b0700b09e2100104078008040e80079
:104ff000b09e210001487800109d210051c0b300ef
:105000000148780030892900daf107000000eb0040
:10501000b0ce8800c1013700b09e2100104078005a
:10502000e74f500028003a00031207008040780044
:10503000009e210001487800e09d2100801f78003b
:10504000906b2900801f7800009e21007fee0700f2
:10505000e4875700308b2900801f780032f007006a
:105060008f87e900f0ce8000e10f500005003a0084
:10507000c0882900bff1070010c0b300240b07004f
:105080000400370000892900baf107000040eb0056
:105090001f0b0700b09e2100104078008040e80000
:1050a000b09e210001487800109d210051c0b3003e
:1050b00001487800c08b2900aef107000000eb002a
:1050c000b0ce880095013700b09e210010407800d6
:1050d000e84f500091013a00d71107008040780056
:1050e000009e210001487800e09d2100801f78008b
:1050f000906b2900801f7800009e210053ee07006e
:10510000e4875700208e2900801f780006f00700f2
:105110008f87e900f0ce8000e10f500005003a00d3
:10512000208f290093f1070010c0b300fe0a07008a
:1051300004003700808f29008ef107000040eb004b
:10514000f90a0700b09e2100104078008040e80076
:10515000b09e210001487800109d21008040eb00a6
:10516000014878000000eb00c0ce8800fa0a070072
:10517000109029007ff107008038210031140700ca
:105180000000eb00b0ce8800b09e21008040eb0014
:105190000148780061013700109d2100104078001f
:1051a000e64f50001f003a00b8ce8000a211070061
:1051b00080407800009e21000800400001487800ef
:1051c000b0ce80000000e800b0ce8800b0ce8000f5
:1051d000e20f500051013400e09d2100801f780053
:1051e000906b2900801f7800009e210017ee0700b9
:1051f000e4875700109d21008040eb0001487800b3
:105200000000eb00c0ce880080bb20000d1407001a
:105210000000eb00b0ce880010c0b30058030700b8
:105220003e013700109d210010407800e74f5000ec
:1052300023003a00b8ce80007f110700804078003c
:10524000009e21000800400001487800b0ce800098
:105250000000e800b0ce8800b0ce8000e20f500021
:105260002e013400e09d2100801f7800906b290002
:10527000801f7800009e2100f4ed0700e4875700ae
:10528000f0ce8000801f780030912900801f7800c8
:10529000a5ef0700e4875700109d21008040eb0038
:1052a000014878000000eb00c0ce880080bb2000e1
:1052b000e41307000000eb00b0ce880017013700b0
:1052c000109d210010407800e84f500023003a0064
:1052d000b8ce80005811070080407800009e210061
:1052e0000800400001487800b0ce80000000e800cf
:1052f000b0ce8800b0ce8000e20f5000070134002d
:10530000e09d2100801f7800906b2900801f7800ad
:10531000009e2100cded0700e4875700f0ce80000d
:10532000801f780090922900801f78007eef070090
:10533000e4875700109d21008040eb000148780071
:105340000000eb00c0ce880080bb2000bd1307002a
:105350000000eb00b0ce8800f0003700109d210067
:1053600010407800e94f500023003a00b8ce80008a
:105370003111070080407800009e210008004000a5
:1053800001487800b0ce80000000e800b0ce880070
:10539000b0ce8000e20f5000e0003400e09d21001c
:1053a000801f7800906b2900801f7800009e2100ec
:1053b000a6ed0700e4875700f0ce8000801f78003c
:1053c000c0932900801f780057ef0700e48757003b
:1053d000109d21008040eb00014878000000eb00a8
:1053e000c0ce880080bb2000961307000000eb00b1
:1053f000b0ce8800c9003700109d21001040780011
:10540000ea4f500023003a00b8ce80000a1107008e
:1054100080407800009e210008004000014878008c
:10542000b0ce80000000e800b0ce8800b0ce800092
:10543000e20f5000b9003400e09d2100801f780089
:10544000906b2900801f7800009e21007fed0700ef
:10545000e4875700f0ce8000801f78002095290057
:10546000801f780030ef0700e4875700109d21006f
:105470008040eb00014878000000eb00c0ce8800bf
:1054800080bb20006f1307000000eb00b0ce880047
:10549000a2003700109d210010407800eb4f500013
:1054a0009e003a00b09e2100104078000004e00009
:1054b0001e003a00e010070080407800009e2100a6
:1054c00001487800e09d2100801f7800906b290042
:1054d000801f7800009e21005ced0700e4875700e4
:1054e000f0ce8000801f780070842900801f780033
:1054f0000def0700e4875700b09e210010407800b0
:105500008040e800b09e210001487800109d2100f5
:10551000b1c0b30001487800c085290095f00700ac
:105520000000eb00b0ce88007c003700b09e210068
:1055300010407800e14f500024003a00be100700f0
:1055400080407800009e210001487800e09d210005
:10555000801f7800906b2900801f7800009e21003a
:105560003aed0700e4875700f0872900801f780094
:10557000edee07008f87e900f0ce8000e10f5000cc
:1055800003003a00c08829007af0070002003700c3
:105590000089290077f00700b09e210010407800b4
:1055a0008040e800b09e210001487800109d210055
:1055b000b1c0b30001487800009629006df00700e3
:1055c0000000eb00b0ce880054003700b09e2100f0
:1055d00010407800e24f500024003a009610070077
:1055e00080407800009e210001487800e09d210065
:1055f000801f7800906b2900801f7800009e21009a
:1056000012ed0700e4875700308b2900801f7800d7
:10561000c5ee07008f87e900f0ce8000e10f500053
:1056200003003a00c088290052f00700020037004a
:10563000008929004ff00700b09e2100104078003b
:105640008040e800b09e210001487800109d2100b4
:10565000b1c0b30001487800f097290045f0070079
:105660000000eb00b0ce88002c003700b09e210077
:1056700010407800e34f500028003a006e100700f9
:1056800080407800009e210001487800e09d2100c4
:10569000801f7800906b2900801f7800009e2100f9
