:020000040000fa
:080000000002040000000000f2
:020000040000fa
:0400080042050000ad
:020000040000fa
:04000c0042050000a9
:020000040000fa
:0400100042050000a5
:020000040000fa
:0400140042050000a1
:020000040000fa
:04001800420500009d
:020000040000fa
:04001c004205000099
:020000040000fa
:040020004205000095
:020000040000fa
:040024004205000091
:020000040000fa
:04002800420500008d
:020000040000fa
:04002c004205000089
:020000040000fa
:040030004205000085
:020000040000fa
:04003400c8020000fe
:020000040000fa
:04003800420500007d
:020000040000fa
:04003c004205000079
:020000040000fa
:040040004205000075
:020000040000fa
:04004400e0020000d6
:020000040000fa
:0400480006030000ab
:020000040000fa
:04004c004205000069
:020000040000fa
:040050004205000065
:020000040000fa
:0400540086650000bd
:020000040000fa
:04005800e26500005d
:020000040000fa
:04005c004205000059
:020000040000fa
:040060004205000055
:020000040000fa
:040064004205000051
:020000040000fa
:04006800420500004d
:020000040000fa
:04006c004205000049
:020000040000fa
:040070004205000045
:020000040000fa
:040074004205000041
:020000040000fa
:04007800420500003d
:020000040000fa
:04007c004205000039
:020000040000fa
:040080004205000035
:020000040000fa
:040084004205000031
:020000040000fa
:04008800420500002d
:020000040000fa
:04008c004205000029
:020000040000fa
:040090004205000025
:020000040000fa
:040094004205000021
:020000040000fa
:04009800420500001d
:020000040000fa
:04009c004205000019
:020000040000fa
:0400a000b66700003f
:020000040000fa
:0400a4000a680000e6
:020000040000fa
:0400a800420500000d
:020000040000fa
:0400ac004205000009
:020000040000fa
:0400b0004205000005
:020000040000fa
:0400b4004205000001
:020000040000fa
:0400b80042050000fd
:020000040000fa
:0400bc0042050000f9
:020000040000fa
:0400c00042050000f5
:020000040000fa
:0400c40042050000f1
:020000040000fa
:0400c80042050000ed
:020000040000fa
:0400cc0042050000e9
:020000040000fa
:0400d00042050000e5
:020000040000fa
:0400d40042050000e1
:020000040000fa
:0400d80042050000dd
:020000040000fa
:0400dc0042050000d9
:020000040000fa
:0400e00042050000d5
:020000040000fa
:0400e40042050000d1
:020000040000fa
:0400e80042050000cd
:020000040000fa
:0400ec0042050000c9
:020000040000fa
:0400f00042050000c5
:020000040000fa
:0400f40042050000c1
:020000040000fa
:0400f80042050000bd
:020000040000fa
:0400fc0042050000b9
:020000040000fa
:0401000042050000b4
:020000040000fa
:0401040042050000b0
:020000040000fa
:0401080042050000ac
:020000040000fa
:04010c0042050000a8
:020000040000fa
:0401100042050000a4
:020000040000fa
:0401140042050000a0
:020000040000fa
:04011800420500009c
:020000040000fa
:04011c004205000098
:020000040000fa
:040120004205000094
:020000040000fa
:040124004205000090
:020000040000fa
:04012800420500008c
:020000040000fa
:04012c004205000088
:020000040000fa
:040130004205000084
:020000040000fa
:040134004205000080
:020000040000fa
:04013800420500007c
:020000040000fa
:04013c004205000078
:020000040000fa
:040140004205000074
:020000040000fa
:040144004205000070
:020000040000fa
:04014800420500006c
:020000040000fa
:04014c004205000068
:020000040000fa
:040150004205000064
:020000040000fa
:040154004205000060
:020000040000fa
:04015800420500005c
:020000040000fa
:04015c004205000058
:020000040000fa
:040160004205000054
:020000040000fa
:040164004205000050
:020000040000fa
:0402080042050000ab
:020000040000fa
:04020c0042050000a7
:020000040000fa
:0402100042050000a3
:020000040000fa
:04021400420500009f
:020000040000fa
:04021800420500009b
:020000040000fa
:04021c004205000097
:020000040000fa
:040220004205000093
:020000040000fa
:04022400420500008f
:020000040000fa
:04022800420500008b
:020000040000fa
:04022c004205000087
:020000040000fa
:040230004205000083
:020000040000fa
:04023400420500007f
:020000040000fa
:04023800420500007b
:020000040000fa
:04023c004205000077
:020000040000fa
:040240004205000073
:020000040000fa
:04024400420500006f
:020000040000fa
:04024800420500006b
:020000040000fa
:04024c004205000067
:020000040000fa
:040250004205000063
:020000040000fa
:04025400420500005f
:020000040000fa
:04025800420500005b
:020000040000fa
:04025c004205000057
:020000040000fa
:040260004205000053
:020000040000fa
:04026400420500004f
:020000040000fa
:04026800420500004b
:020000040000fa
:04026c004205000047
:020000040000fa
:040270004205000043
:020000040000fa
:04027400420500003f
:020000040000fa
:04027800420500003b
:020000040000fa
:04027c004205000037
:020000040000fa
:040280004205000033
:020000040000fa
:04028400420500002f
:020000040000fa
:04028800420500002b
:020000040000fa
:04028c004205000027
:020000040000fa
:040290004205000023
:020000040000fa
:04029400420500001f
:020000040000fa
:04029800420500001b
:020000040000fa
:04029c004205000017
:020000040000fa
:0402a0004205000013
:020000040000fa
:0402a400420500000f
:020000040000fa
:0402a800420500000b
:020000040000fa
:0402ac004205000007
:020000040000fa
:0402b0004205000003
:020000040000fa
:0402b40042050000ff
:020000040000fa
:0402b80042050000fb
:020000040000fa
:0402bc0042050000f7
:020000040000fa
:0402c00042050000f3
:020000040000fa
:0402c40042050000ef
:020000040000fa
:0402c80042050000eb
:020000040000fa
:0402cc0042050000e7
:020000040000fa
:0402d00042050000e3
:020000040000fa
:0402d40042050000df
:020000040000fa
:0402d80042050000db
:020000040000fa
:0402dc0042050000d7
:020000040000fa
:0402e00042050000d3
:020000040000fa
:0402e40042050000cf
:020000040000fa
:0402e80042050000cb
:020000040000fa
:0402ec0042050000c7
:020000040000fa
:0402f00042050000c3
:020000040000fa
:0402f40042050000bf
:020000040000fa
:0402f80042050000bb
:020000040000fa
:0402fc0042050000b7
:020000040000fa
:0403000042050000b2
:020000040000fa
:0403040042050000ae
:020000040000fa
:0403080042050000aa
:020000040000fa
:04030c0042050000a6
:020000040000fa
:0403100042050000a2
:020000040000fa
:04031400420500009e
:020000040000fa
:04031800420500009a
:020000040000fa
:04031c004205000096
:020000040000fa
:040320004205000092
:020000040000fa
:04032400420500008e
:020000040000fa
:04032800420500008a
:020000040000fa
:04032c004205000086
:020000040000fa
:040330004205000082
:020000040000fa
:04033400420500007e
:020000040000fa
:04033800420500007a
:020000040000fa
:04033c004205000076
:020000040000fa
:040340004205000072
:020000040000fa
:04034400420500006e
:020000040000fa
:04034800420500006a
:020000040000fa
:04034c004205000066
:020000040000fa
:040350004205000062
:020000040000fa
:04035400420500005e
:020000040000fa
:04035800420500005a
:020000040000fa
:04035c004205000056
:020000040000fa
:040360004205000052
:020000040000fa
:04036400420500004e
:020000040000fa
:10040000af6722000e7f24000e018800000000006c
:10041000000020000000e000020032000001200087
:100420002002880014000700e60107000000e00039
:1004300003003a0020c5260001002000020037001a
:100440000000200001002000810f70000100320038
:1004500014000700000020000000e000020032004d
:100460000000020000000000ba730200000000005b
:100470000040da000000fe004440a90080ef2000a8
:100480000000e0000300320000002000a00188000e
:100490004440a800000006008a1f78008b1f7800e7
:1004a0000000060091018800800478000000eb0045
:1004b0001a003700e284440032a0b4009905ba0063
:1004c000e284440032a0b4009906ba00e2844400f9
:1004d00032a0b4000006eb00476fde00fd07b2005b
:1004e000636ce10003003a00ebff07000000eb0043
:1004f0000a003700606ce10004003a00005deb0088
:100500008b05e900fdff3e00040037006168e10053
:10051000010032000086eb000b00070019c7ba008b
:100520001905ba000e04e00003003a000a00e000da
:10053000e0ff3a0000000600fe07b2009e018800be
:100540008a047800f5ff3700395dba008b05e900b1
:100550000c003200295dba008b05e900080032006a
:100560000c00e00003003a00e284440032a0b40032
:10057000f5ff370019ddba008b05e900faff3a00f4
:100580008904e800e184440032a0b40000000600c1
:10059000809fbe000000fa00e01e8100f11e810075
:1005a00061004000e0804800e01e8900f11e8900e3
:1005b0008460a9000080fa004f00be0000400600e1
:1005c000809fbe000000fa00101e8100ea0f50005c
:1005d00004003c00101e81000000e800101e89008d
:1005e00006003700101e8100ea0f5000030034009f
:1005f000004822008040eb000148780084e0a90018
:100600000080fa004f00be0000400600809fbe0040
:10061000829fbe000000fa00f01d8100e10f500033
:1006200013003200f01d8100e20f500010003a006c
:10063000921f8100a31f8100006a28001100200082
:10064000800f5100818f5900030036006000b80010
:10065000901f8900a11f8900901f8100a11f8100a8
:1006600061004000e0804800901f8900a11f8900c0
:1006700084e0a9000080fa004f01be004f00be00d8
:10068000004006000000fa0005e1a9000421a900cd
:1006900021088000f0fc2f00008060000050a000c6
:1006a000200888000021ef00c02b200010088800df
:1006b0008460a9009460a80005e1a8000080fa0009
:1006c000000006000000fa001061a90011e1a90075
:1006d0001021a90010c1a90081088000000320009a
:1006e00001007000800888000621ef000080eb0008
:1006f0006008880084e0a90094e0a80011e1a80047
:100700000080fa00000006000200fa00000f7800e6
:1007100013e1a9001221a90012c1a90091088000cb
:100720000003200001007000900888000a21ef00fb
:100730001e007800e10f500005003a000080eb0039
:100740007008880010002000f01d890007003700a5
:100750001e007800e20f500004003a004095280087
:100760007008880020002000f01d89008500a90085
:100770009500a80013e1a8000080fa000000060020
:100780000000fa00e21e8100f31e8100001f8100bc
:10079000111f81000001510081815900601e8100fc
:1007a000711e81000200400083804800601e8900a5
:1007b000711e8900e01e8100f11e8100001f89006a
:1007c000111f8900e21e8100f31e8100401f81007d
:1007d000511f81000001510081815900201e8100bc
:1007e000311e81000200400083804800201e8900e5
:1007f000311e8900e01e8100f11e8100401f89002a
:10080000511f8900e21e8100f31e8100201f81001c
:10081000311f81000001510081815900801e81003b
:10082000911e81000200400083804800801e8900e4
:10083000911e8900e01e8100f11e8100201f8900a9
:10084000311f8900e21e8100f31e8100601f8100bc
:10085000711f81000001510081815900401e8100fb
:10086000511e81000200400083804800401e890024
:10087000511e8900e01e8100f11e8100601f890069
:10088000711f8900e21e8100f31e8100c01e8100dd
:10089000d11e81000001510081815900a01e8100fc
:1008a000b11e81000200400083804800a01e890024
:1008b000b11e8900e01e8100f11e8100c01e89006a
:1008c000d11e89000080fa00000006000200fa0034
:1008d000004f78001e407800e14f500004003a00bd
:1008e000601e8100711e8100000078001d0037002d
:1008f0001e407800e24f500004003a00201e8100a4
:10090000311e810000007800160037001e4078007c
:10091000e34f500004003a00801e8100911e8100c8
:10092000000078000f0037001e407800e44f5000b0
:1009300004003a00401e8100511e81000000780032
:10094000080037001e407800e54f500004003a00d0
:10095000a01e8100b11e8100000078000100370058
:100960000080eb000080fa00000006000400fa009e
:10097000004f7800110798001e407800e14f5000aa
:1009800005003a001e009000cf80de00601e890046
:10099000711e89001f0037001e407800e24f500092
:1009a00005003a001e009000cf80de00201e890066
:1009b000311e8900170037001e407800e34f5000b9
:1009c00005003a001e009000cf80de00801e8900e6
:1009d000911e89000f0037001e407800e44f500040
:1009e00005003a001e009000cf80de00401e890006
:1009f000511e8900070037001e407800e54f500067
:100a000004003a001e009000cf80de00a01e890086
:100a1000b11e89000080fa00000006000200fa0002
:100a2000000f78001e007800cf80de00801e890055
:100a3000911e89000080fa00000006000000fa0004
:100a4000a0be80000000e00002003200ca62a800e0
:100a5000ca62a900a0be8000801f89000000eb00d0
:100a6000a0be8800ffff37000000fa00101e8100c2
:100a70000080fa00000006000000fa000080fa0082
:100a8000000006000040da000000fe000a00fa0044
:100a9000e20f50001f003e0010248100e10f5000c3
:100aa000060032008023200045232000232320005d
:100ab000042320000000e00004003a00802220000f
:100ac00045222000232220000422200006002800c6
:100ad0009403630002003a0007087800140a7300c8
:100ae00013a8a30001003a0013a0a00002007800a0
:100af000050037001388a300feff32003102fb001f
:100b0000840a78000000e9000000e000f9ff3a00e4
:100b10000800370033002000b3bf9f00c0bf9f0014
:100b2000d1bf9f00e2bf9f006a805700c203070049
:100b30006fb99700020078000080fa0000000600fc
:100b4000889fbe0080047800202481000000e0001f
:100b500004003a000e0007000084eb000000e000f3
:100b600008003500282481000900e000050032005b
:100b700009004400060007000000e00001003d00fd
:100b80000084eb00080078004f04be00000006005f
:100b9000800078000100e00003003a006048220075
:100ba00020248900000005000080eb00a2672200dd
:100bb000828f500002003e00212489000000eb00db
:100bc000000006000000050003f0a200889fbe00a0
:100bd0008a9fbe008c1f78000001070007013300c8
:100be0006450e1004f0032006420e1005200320006
:100bf00003826c0007003b000905d0000306d0000b
:100c0000820f54000c065d00020039000200320021
:100c100089017800030678008582550004003d00b4
:100c20000003fd008103fd008502ea008b85420080
:100c3000840f720002003b0060001000e08018008a
:100c40006011b8000005eb007a28e1000a003900c5
:100c500006007800c75ddd00f707b20087807500e9
:100c60002d003700828171000a0178006105600063
:100c70008180d1000080d3008502e900f9ff3b00ac
:100c8000060440008784480002003b006004140012
:100c9000e0841c000988a300070032008a817100eb
:100ca00082817100610164008904d1000884d3004d
:100cb0008b05e800170037000978a30013003a00fd
:100cc0000b00e000130034008b05e9000804440029
:100cd00089844c000a4474000978a3000d003a008e
:100ce0000b00e000070034008b05e9000804440015
:100cf00089844c0001003a000b0020000978a30011
:100d0000f7ff32000001eb00020037008281710022
:100d10000a017800760007000cf0a70001f0a0009f
:100d2000bf0037006420e10002003a00838f6c00ae
:100d3000bf0033000801be000200be00b80037004b
:100d4000889fbe008a9fbe008c1f7800a30007000a
:100d5000aa00330003866c006450e1002e003200cc
:100d60006420e100330032006150e1002f003200c6
:100d70006120e1003100320085855500eb07b000ad
:100d80000900200008042000050037000804440082
:100d900089844c000a0031000603430087834b001e
:100da0000001530081815b00f8ff33000203be00a5
:100db0000800a0000804440089844c00f6ff3900b4
:100dc000c639dd00830173000100320013002000ea
:100dd0008904d1000884d3000998a30005003200db
:100de0000800a7000300a0008904d1000884d300f4
:100df0008b05e8008904d1000884d3000001eb00d2
:100e00000281d2003a00070001f0a1000cf0a70017
:100e100001f0a000820037006420e100840032006d
:100e20000801be000200be00f7ff37006120e100ac
:100e30007f0032006000b800f3ff370000002000a0
:100e400001f82700f0ff37001400200013013700dd
:100e5000f4ff2f00110137000001be004a00070017
:100e60000470a70003f0a1006509b100160032006c
:100e70000d0035006828e10006003500f0ff2f0066
:100e8000f1ff27000300e00013003b0001002800f1
:100e90000000050000004000818048008502e90054
:100ea000fcff3a0008003700f88f420002003c00c7
:100eb0008000eb00000005008100d1000080d3001d
:100ec0008502e800fcff3a000300e00002003b005e
:100ed00060001000e0801800000006004f89de006e
:100ee00082017800080137006011b8001601370050
:100ef00081002000618055000b003d000b002000a8
:100f000061fe2f000100e1001d00340082817100ac
:100f1000610164008904d1000884d3000000e80066
:100f2000faff3a00710020006100640003007000c5
:100f3000020060000900320061044400e0844c00bb
:100f40000988a500050032008b05e8006808e1006b
:100f500002003a008904d1000884d300f20f200077
:100f60000258e10005003d00c75ddd00f907b20051
:100f70008980750008007800000006000bf8270043
:100f80008b00780000000500c70ade00f107b20000
:100f9000f50fb20008003200e1cf4200020032003b
:100fa0000170a00024000500810f700001003200d4
:100fb0000408050044000500810f700002003a009b
:100fc000140005008502e9000000400081c04800cf
:100fd000fcff3b000170a000240005000004be00df
:100fe000e9ff07000003be000405be000200be00ca
:100ff000e5ff0700844f7500000006000200be00f8
:101000006450e100050036006420e1000200360073
:101010000968a30001003a000800be000160a000ba
:101020004f0678004f05be004f04be0000000600ca
:10103000f0ff2f00f1ff2700f9ff3700889fbe0067
:101040008a9fbe008c9fbe00870007008504780041
:101050000005be006420e10049003e006220e1007e
:1010600003003200090035000bf8a30044003200f1
:101070000bf8a30008003200100220000040880096
:10108000f0ff2f00f1ff27003d00370001f82f008f
:10109000000020003a0037003d000700cafe0700ac
:1010a0000006be000a00be00324f200053f32300aa
:1010b00067ff0700060034000c00be003400070084
:1010c000c1fe07000006be000a00be000200370095
:1010d0008904e9000c00be002d0007002e00070067
:1010e0002b000700b9fe07000001be000c00be0087
:1010f00013ff07000005be000001be002600070028
:101100000006be00a2f32300430d2c00affe070033
:10111000809fbe000c00be00d2e32700d3f02b005e
:101120001d0007004f01be0005ff07000006be00be
:101130000a01be00180007000a01be00a3fe070056
:101140000006be006148b90064ff07000005be004c
:1011500032082800e3952b000f0007000c01be00a9
:101160009afe07000006be000a00be00020028002a
:1011700013f32300080007000c01be0093fe0700d4
:101180004f06be004f05be004f04be000000060023
:1011900003f0230002000500889fbe008a9fbe0066
:1011a0008c1f78008dff070094ff330003866c00ce
:1011b0006450e100240032006420e1002700320086
:1011c0006150e100220032006120e1002100320084
:1011d0008b854200eb07b1000134b800003ab8003b
:1011e0000804420089844a00013ab8000030b8007f
:1011f0008880400009014a000400330000004000dc
:1012000081804800020149008b05e900c909dd0021
:10121000830170000100320013002000c814de00ba
:101220004814dd004709de001200b200c808de00e5
:10123000088470002eff070001f0a1000cf0a70049
:1012400001f0a00076ff37006120e10078ff320056
:101250000801be000200be00f7ff37006150e10048
:10126000fcff3a0072ff37000003be0046ff070094
:101270006220e100020032000600be000500050009
:10128000e507b100f107b20004f02300848070008c
:1012900007f0a70001f0a00024000500889fbe0011
:1012a0008a9fbe00841f78004cff07004f00780023
:1012b00011003300f0ff2f00838f6c0006003b000d
:1012c000040565000a00a7000800370009f0a60021
:1012d0001000200008003700820f5400838f5c004c
:1012e000030039001000200001003e000000200033
:1012f00009f0a7000000ea004f05be004f04be0041
:101300000000e00000000600881f78000304780059
:101310000300e00007003d0060001000e0801800be
:1013200060011900e081190002003b0001f02d006e
:10133000030037000400070008f0a70001f0a00038
:101340004f04780000000600889fbe008a9fbe0000
:1013500000827000040271000482710026003200d5
:101360000004be000200be006011b8006b0920003e
:10137000950220000182cf000a0039000541b1002a
:101380000082cf00070039000541b1000982cf007b
:10139000040039000541b1000882cf000100390086
:1013a0000541b10005425200120032000a003b0024
:1013b00082817100610164008100d1000080d3004e
:1013c0008984d3000884d3008b05e8000442e80038
:1013d000f7ff3a00070037000804440089844c00f6
:1013e00000004800818048008b05e9000442e900c4
:1013f000f9ff3a00befe07004f05be004f04be00d5
:1014000000000600889fbe008a9fbe008c9fbe0021
:10141000e1452200f22281000200e0000b003a00c8
:1014200064814000f222890042238900a1009800d3
:1014300031238900214190000204a000a2409800bd
:10144000614190000204a000e2409800670440005f
:101450004244de004244dd00342381006148220022
:10146000a9672200818454002d002000110009008a
:101470008d04d800800678000886e8000c06460037
:101480008001eb0002003700130020000b027800ff
:10149000a44090000108a300020032000a003700b7
:1014a000120a780014017800a24090000108a300fd
:1014b000fbff320088004200810f5100020039001a
:1014c0000800e00042003d00940578000b00a100f8
:1014d000848f5500edff3e00e18f5100eaff3a0096
:1014e0008d0f540002003600890f5400140039009b
:1014f0006141b8006148b900b4ff2f000500200029
:101500000000520081805a00800f5100818f5900e5
:1015100002003500640544000a00370060482200dc
:10152000da67220000055500080545001100090092
:101530000985d8000980b90000057800010037004e
:101540000c0578000a0078007dfd0700e10f4000df
:1015500005003a00640544000a00780078fd0700a1
:10156000e10f40002b003200412381008008780009
:1015700041238100e481400021419000830f50000d
:10158000020032000204a000010037000204a100a2
:10159000a2409800640555000a0540000a0878003a
:1015a0004a238900e1452200010d78004223810091
:1015b000a24090000104a00021419800a0409000aa
:1015c0000104a100214098008001eb00afff37002b
:1015d00031238900810f5100070036001101be0040
:1015e0005223890063238900940878000041eb00ae
:1015f00031238100a240980033238100030a780040
:10160000a44090000104a000214298006400420020
:10161000010037000000eb004f06be004f05be0082
:101620004f04be00000006000000e0000800320089
:101630006400500031238100810f5000010031000f
:1016400030238900a04090000104a10021409800af
:1016500000000600889fbe008a9fbe000004be00f6
:101660000900e00007003a000000eb000800e0007d
:101670003600320008007800ebff07000000eb00a6
:10168000320037000800e00003003a00090078004b
:101690005cff07002d0037006400540090057800bf
:1016a00068f897000008a3000200320008007800e4
:1016b000ddff07000900780052ff07008004780072
:1016c0000000eb000900e00020003200888f540089
:1016d0001b00320069bd97000905550042d5de00a8
:1016e00088855500c2ddde000a0178008b0f5500a9
:1016f000010036000b0178004211dd0088007800ff
:101700000900780014000700888f54000e00310093
:101710004255dd000a854400880f55000a00360056
:101720000804550042c4de004244dd000884440041
:101730005023810061238100008cbe00020037002d
:101740000800780001003700090078004f05be004e
:101750004f04be0000000600800178000200370040
:10176000b15978000201e9000200e000fcff3a00f4
:1017700000000600800178000200370081597800df
:101780000201e9000200e000fcff3a000000060050
:10179000889fbe000004be00050037000000fb006b
:1017a0008900780022000700e10f400004003200a9
:1017b000384078000004e000f8ff3a000000eb0039
:1017c0004f04be0000000600881f78002140220060
:1017d000efff07000004780021402200a000200055
:1017e00013000700080078004f047800000006008e
:1017f000214022000e0037000000fa0068815700e7
:10180000cfb89700204022001a0407000080fa0099
:10181000000006000000fa0068815700cfb897006a
:1018200020402200130407000080fa000000060098
:10183000889fbe0001047800b80090008084eb000f
:101840000118a3003a003200180190000198a3008b
:1018500002003a000200e00035003a000190a000ca
:101860003104980080047800f90fb2000200e00013
:1018700002003a0028009000000c7800ea8f540023
:1018800005003a000178a30003003a0088007800c0
:10189000d0002000e6ff070018009000d80090005c
:1018a000810f50000b0032000000e8001004980087
:1018b0001800780009487800000ce80011c0b30057
:1018c000e046220001487800ea8f540018003a00f0
:1018d00005003700880078000940780017000700ed
:1018e0008004780012003700380090000088a300c0
:1018f0000f00320018019000a800900048009000ee
:1019000062fc070098009000810f50000400320034
:10191000380090000003b300300498008084eb008e
:101920000000eb001004980028009000000c7800e4
:10193000090078004f04be00000006000200fa0013
:10194000889fbe00a0ff9f0001047800380090002f
:101950000068a30033003a00e200600005003a008e
:101960000003b30030049800110498000080eb00dd
:101970002e003700d80490000900e00006003a006d
:1019800012002000e6805700480090003ffc07004e
:101990001904980023003700a80090000100e0001f
:1019a00008003a001147220021049800010c780039
:1019b0002100200051049800110498000030a0007c
:1019c0003004980018019000a80090004800900092
:1019d0002efc0700280090008080eb001104980086
:1019e000aff8970001487800000ce8002ff8970046
:1019f000ea4f50000b003a00380090000088a30026
:101a00000800320018019000a800900048009000e3
:101a10001efc07000000eb0010049800a8009000d6
:101a2000010c7800aff897000100fb004f04be00e6
:101a30000080fa000000060000c0da000000060086
:101a40002800fa00889fbe008a9fbe008c9fbe00bf
:101a500007067800878669000c003b0003047800c5
:101a60008704780008f0a10009f0a100840f50005d
:101a7000858f5800860f5900890f5c0003003300e2
:101a80000cf0a20001003a000cf0a100fe000700db
:101a90006400e1005f003200780147006408e10063
:101aa000610032006c014700748557003200be00af
:101ab0001201be003a04be001a05be001e039000cb
:101ac000be0a90008503530006003d000004fd009f
:101ad0008104fd000205fd008305fd008703ea0087
:101ae000050378000df8a300040032006004140020
:101af000e0841c0060051d00e0851d006022b80028
:101b00007d0320000d38e1008006eb000b0039005a
:101b10004433dd00f300b200830173003900370065
:101b2000848272000d027800e10664008b85d1008a
:101b30000a85d3008984d3000884d3008703e90091
:101b4000f7ff3b0008004000898048000a01490077
:101b50008b81490004003b0060001000e080180009
:101b600060011900e08119000358a3000900320048
:101b70008d82720084827200610260008301d10054
:101b80000281d3008180d3000080d3000603e800e7
:101b90001b0037000348a30017003a000600e000ce
:101ba000170034000603e9000d00a3000000480000
:101bb0008180480002014900838149000348a30055
:101bc0000f003a000600e000090034000603e900b7
:101bd00000004000818048000201490083814900e3
:101be00001003a000003eb000348a300f5ff3200b8
:101bf0006022b800020037008482720061826600b1
:101c00007500070003f0a1000cf0a70003f0a0008e
:101c1000b1003700640147006408e10002003a00a7
:101c20000df8a300a9003a003200be001201be0068
:101c3000a90037008f1fd100ab0107008f87e90093
:101c40000000e00000000600809feb00a6010700f6
:101c50008f87e9000000e000000006002800fa007d
:101c6000889fbe008a9fbe008c9fbe0003866b00cb
:101c7000850007006400e100440032006408e100d0
:101c80004a0032006100e100460032006108e100d4
:101c900049003200ec0647006000b8003d02be007b
:101ca0003d03be00f48657006011b8003d04be003d
:101cb0003d05be007d0320000b0037000000a000a2
:101cc0008d06e900130032000402420085824a00ba
:101cd00006034b0087834b000000400081804800d2
:101ce00002014900838149000802520089825a009a
:101cf0000a035b008b835b00f0ff3b00080242009d
:101d000089824a000a034b008b834b008d06e90051
:101d1000edff3a008482720086827200f707b200fb
:101d20008782720001003200150020001e0490001e
:101d30003e0b900006035400e63fb0000368a3008a
:101d4000070032000000a7000500a0008301d100b9
:101d50000281d3008180d3000080d3000603e80015
:101d60008301d1000281d3008180d3000080d300a1
:101d70000002eb000482d2001700070003f0a1006c
:101d80000cf0a70003f0a0005300370064024700e6
:101d90006408e1004d0032003400be003401be0092
:101da000f6ff37006108e100480032006011b8001a
:101db0006000b800f1ff370003ff27000200200099
:101dc000fbff3700801feb00470107008f87e9000a
:101dd0000000e0000000060018002000570020006e
:101de000080453000d003d000600200097fc2f0062
:101df0000740e1001e00340084827200610260002e
:101e00008301d1000281d3008180d3000080d30000
:101e10000804e800f8ff3a00470020006104600071
:101e200005047400040464000d00320061004000e9
:101e3000e080480060014900e081490003b8a50046
:101e4000070032000603e8006538e10004003a00ac
:101e50008301d1000281d3008180d3000080d300b0
:101e6000f87f20000830e100030035000803780007
:101e70006000b8006011b8004433dd00f300b20028
:101e80008301730000000600680447000294be004e
:101e90000094be00fc0447008694be008494be00fb
:101ea0000900780059010700080078005701070071
:101eb00099007800814f70000b003b000800be00c5
:101ec000320107004f00b10003003700f3ff270085
:101ed000f2ff2f006110b9004f06be004f05be0093
:101ee0004f04be000080fa00000006008103780065
:101ef00025fc07000001be006000b8000478a300c4
:101f000013003a006220e10015003e000d00390088
:101f10008301d1000281d3008180d3008301d100ed
:101f20000281d3008180d3008301d1000281d300dc
:101f30008180d3000538b000c42add00f300b20070
:101f40008381720007f0a70003f0a00000000600e4
:101f5000f3ff2700f2ff2f006110b900fbff3700ed
:101f600003ff2700f7ff37001400fa00889fbe0028
:101f70008a9fbe008c9fbe000004be000205be000a
:101f8000680047000a90be000890be001f010700cd
:101f90000070a7000bf0a1000bf8a30020003a008e
:101fa0009e0990000e099000fe0090006e009000c7
:101fb0009e0290003443200084825200c6ff32000b
:101fc0000a003c00b4fc2f000428e1001400340097
:101fd0008301d1000281d3008180d3000080d3002f
:101fe0008502e800faff3a00bbff3700b40020008a
:101ff0000428e10007003c00000040008180480008
:1020000002014900838149008502e900faff3a0094
:10201000b1ff370003002800020020000100370054
:102020006011b8006000b800abff37006011b80065
:102030001d0137001400fa00889fbe008a9fbe0071
:102040008c9fbe00040678000004be000205be009e
:10205000680047000a90be000890be00eb00070031
:102060006200e1000800be000a01be00040020007a
:102070000b003a001e029000e43fb1006e00900099
:10208000fe0090000e0990009e099000f300b2003f
:1020900005fe2300858171000bf0a70003f0a0006e
:1020a000040e78008cff37002800fa00889fbe00dd
:1020b0008a9fbe008c9fbe0003866b0072ff0700e4
:1020c0000028a30064003a000128a30067003a003a
:1020d0000008a30062003a000108a30065003a006e
:1020e0001e009000be08900081064000ed3fb10048
:1020f000f4805700ee019000111ab8008e0990008c
:10210000311bb8009e099000311cb800511db80069
:10211000f485570046000700fe0190003a000700d2
:102120008b85e8003e0007008e0990004000070004
:10213000ee019000340007008b85e80038000700ae
:102140008e099000400007009e0990001b18b800ff
:10215000890440000a854800fe0190003400070011
:102160008b85e80038000700ee0190003000070082
:102170008e0990001b18b800890440000a854800a9
:102180000a98a30008003a000402420085824a002f
:1021900006034b0087834b0008044c0089844c00e5
:1021a0000a054d008d06e9008482720085027300e5
:1021b0004c3add008502720001003200150020005b
:1021c000443ade001400b2004538de00cb45dd00a5
:1021d0000b007000c540de00cb4ddd008b80700031
:1021e0004549de00cb55dd000b017100c551de0015
:1021f0000d037800f8fe070003f0a1000cf0a70023
:1022000003f0a00034ff37001b18b800850240001f
:1022100006834800e0834b0060044c000700370051
:102220001b18b8000603400087834800faff3700f8
:102230001b18b8008703400008844800e0844c0065
:1022400060054d00000006001b18b800080440009f
:1022500089844800faff37000108a3001bff3a00f9
:102260005800be005801be00e3ff37000008a3007d
:1022700016ff3a0009047800f9ff370007f0a200c2
:10228000effd37006022b800060220000000d000f9
:102290008180d2000482d2008582d2000000a0009a
:1022a0000202520083825a000300310002024200ff
:1022b00083824a000000a1000603e900f3ff3a0010
:1022c00000000600efff07000400be00000006004b
:1022d000020ab900001bb9000200b80081004200e8
:1022e0008100430000000600889fbe008a9fbe0058
:1022f0008c9fbe000404be000605be00809fbe0089
:10230000829fbe002f000700040678000800be0070
:102310000a01be002b000700840678004f03be00b0
:102320004f02be008d4f76007fb097001300330040
:10233000f0ff2f008b8f6b0006003b000d06660040
:102340000c00a7000a00370007f0a60010002000cc
:102350000a003700880f5200898f5a008a0f5b00ed
:102360008b8f5b00030039001000200001003e004d
:102370000000200007f0a7000000ea004f06be00a2
:102380004f05be004f04be0000000600e48240007e
:102390001078a30007003200640240001178a30007
:1023a0003400be001401be00040032000330a70058
:1023b000000006003500be001501be000330a0007d
:1023c0000000060005ff27000582610007003200bb
:1023d0000428e10001003200240005000600070087
:1023e00001003a004400050004080500020007004f
:1023f000f9ff3a00140005006f826100810270004d
:1024000085027100850272000000060080007800dd
:102410005002be005003be004439de00f700b20097
:10242000f37f200003016100090032000218e1007f
:1024300016003a00850172008301730083817300e6
:102440000008200015003a0040002000130037006b
:1024500085017200830173008381730005003a00d7
:1024600004a8be0006a8be00100020000b00370024
:102470000201e9000402420085824a0006034b0083
:1024800087834b000748a300f9ff32000740a000f4
:1024900004a8be0006a8be0020002000800098000e
:1024a0009200980000000600889fbe000082700025
:1024b00004027100048271002400320036432000bf
:1024c000c50020008383cf000a0039000541b10018
:1024d0008283cf00070039000541b1008183cf001e
:1024e000040039000541b1008083cf0001003900ac
:1024f0000541b10085c353006022b80012003200cc
:102500000a003b0084827200610260008301d100f6
:102510000281d3008180d3000080d3000603e8004d
:102520008743e800f7ff3a0007003700000040004b
:102530008180480002014900838149000603e900c7
:102540008743e900f9ff3a0023fe07004f04be006d
:10255000000006000800fa00889fbe008a9fbe00a7
:102560000084fb00d1c6b300814f50003400360018
:102570004b062000110009000b84d800810578006b
:10258000720040004300dd00e9202200008044008a
:102590006022b8000600200007fe23005001be00a4
:1025a0004000be00c0fe07000002be000203be00e5
:1025b00084bf9f0095bf9f00a6bf9f00b7bf9f002d
:1025c000aa002000110009008a85d8008005780043
:1025d000e9854500c35ddd008b8544003b02be00fc
:1025e0002b03be000fb897009fb897002fb9970034
:1025f000bfb99700acfe07000002be000203be0098
:1026000084bf9f0095bf9f00a6bf9f00b7bf9f00dc
:10261000110009000a84d800010478004344dd0059
:10262000888444003902be002903be000fb8970019
:102630009fb897002fb99700bfb997001d003700ca
:10264000ea4f500013003600aa00200011000900d4
:102650000a84d80001057800690440004344dd0085
:10266000e9202200088444006022b800060020000f
:1026700007fe23003800be002801be008afe0700c6
:102680004355dd008a8444003902be002903be00a0
:10269000080037004344dd00e02022000804400029
:1026a0006022b8000600200007fe23003800be00ac
:1026b0002801be007cfe07004f05be004f04be008f
:1026c0000080fa00000006000800fa00889fbe00a3
:1026d0008a9fbe00d1c6b3000004e00023003d0085
:1026e0000040ea000004fb00814f50000a00340063
:1026f00042062000110009000204d800a9002000b1
:10270000110009008900d800e9004000c308dd007d
:10271000ea20220021003700ea4f50001000340068
:10272000a2002000110009000204d8000101780075
:10273000690040004300dd00e120220000804000ed
:102740004311dd00828040003102be002103be0043
:102750005001be004000be0053fe070038003700a5
:102760004344dd00e0202200320037000004fb007b
:10277000814f500023003400420620001100090060
:102780000204d800a9002000110009008900d80027
:10279000e9004000c308dd00ea1522008100450081
:1027a0003102be002103be008b0920008a8545004e
:1027b0003b00be002b01be003bfe07000002be0036
:1027c0000203be0084bf9f0095bf9f00a6bf9f006d
:1027d000b7bf9f00110009000904d8000104780068
:1027e0004344dd00080545003a02be002a03be004e
:1027f0000fb897009fb897002fb99700bfb99700ff
:10280000d5ff3700ea4f500008003400a200200036
:10281000110009000204d80001017800690040009d
:102820004300dd00e1152200c4ff37004344dd0012
:10283000e0152200080440003800be002801be0058
:102840004f05be004f04be000080fa0000000600e5
:10285000d0019000028151004240a90003003400e1
:1028600010017800014978000208e80001007800b2
:10287000000006006f02b000889fbe008a9fbe0065
:102880008c9fbe008e1f780000067800b1af9f00bd
:1028900092b79f006000b8006011b800d0af9f00f1
:1028a000e1af9f00f2af9f0083b79f008006eb006f
:1028b000c4043700bfa897008100e800b1af9f00b3
:1028c00051c2b300814f500003003a00bfa89700e7
:1028d0000007eb0011003700bc0090000000fb0077
:1028e0000168a300070032000d0178008000780025
:1028f0000c007800d6ff07000000e00005003a0059
:10290000b00437008c007800c9fb0700e10f4000dd
:10291000ac0432008d06e800aa04370001017800fb
:1029200031407800d3c2b300834f50000c00320016
:1029300007003c00edc15100834f50000a003200f7
:10294000ebc14100834f50000d003a0008003700f2
:1029500003c3b300834f500009003a00060037005c
:102960000e30a000edff37000e00a000ebff370097
:102970000e10a000e9ff37000e20a000e7ff37008f
:102980000e18a300010032000e00a1000e38a300b3
:10299000010032000e20a1008000fb000103b10005
:1029a000e98f50000c003e00020078008005eb002b
:1029b0006a59b900b005fb000b03b10082854500e0
:1029c000000178009000fb000103b100e98f500086
:1029d000f7ff3600080037008005eb00a1c2b30006
:1029e000814f500004003a009fb19700c305780062
:1029f00093b79f000201e800e0c2b300924f1000bd
:102a000016003a000ee0a00064405000d24f1000c3
:102a100003003200020078008001eb00080037005c
:102a20009fb297004503780095b79f00e6b79f00d7
:102a30000201e8000c0037006a19b90082814000e9
:102a400000017800b000fb000103b100e98f5000e5
:102a5000f9ff3600e3b79f00030037000ec0a00067
:102a60008003eb00e7b79f008201780033407800d5
:102a700003017800c1c6b300814f50002b00320023
:102a8000b3af9f0014003c00e8c05000814f5000dd
:102a90002400320009003c00ecc05000814f50007f
:102aa0002a003200ebc04000814f50008c00320001
:102ab0000004e00048043200a200370061c6b30001
:102ac000814f50001b003200e3c04000814f500096
:102ad0009c003a001300370031c7b300814f50000b
:102ae0001e00320007003c00e4c05000814f50003f
:102af000130032008140e800814f500091003a00fd
:102b00001200370051c7b300814f500092003200cd
:102b1000e3c04000814f50008a003a00e0cf9f00a0
:102b20000c003700e0cf9f008d0037000e40a00062
:102b3000cdff3700e0cf9f000ea0a0008800370037
:102b4000e0cf9f000e60a00085003700e0cf9f001f
:102b50000e50a0000e70a00081003700e0cf9f0053
:102b60009fb097004100780091b79f000004780063
:102b70000000e00001003a000835220088007800db
:102b80000000eb00010037000000e8006141780020
:102b90000204e000fcff3a00800478006fb1970067
:102ba0000200e00003003200890f510001003100f3
:102bb000820478000005eb00898f55000100360083
:102bc00009855500680767002a003a0011003700a0
:102bd0003c0090000068a300070032000d0178005f
:102be000010220000c00780019ff07000000e0003f
:102bf00006003a00060037008c0078000002200032
:102c00000bfb0700e10f4000010032008d06e800d9
:102c10000a05e9000a00e000edff3a000085eb003c
:102c2000140037003c0090000068a3000900320047
:102c300008007800b000fb00000478000d01780067
:102c40000c00780002ff07000000e00008003a00d6
:102c500008003700880078003100fb00010478008c
:102c60008c007800f2fa0700e10f4000010032000a
:102c70008d06e800090078008004e9000000e0000b
:102c8000e8ff3a000e00e000ce03320011003700ea
:102c90003c0090000068a300070032000d0178009e
:102ca000010220000c007800e9fe07000000e000af
:102cb00006003a00060037008c0078000002200071
:102cc000dbfa0700e10f4000010032008d06e8004a
:102cd0000a05e9000a00e000edff3a00b9033700f9
:102ce0009fb197004302780093b79f00cfa2de0008
:102cf000482bdd004820de0000007300c828de00fd
:102d0000e0cf9f000e48a300080032000004e0005e
:102d100006003200e14f400004003200f0cf9f0077
:102d200084d79f002900200002003700f4cf9f00c5
:102d300019002000e7fc2f008f8343000704e80000
:102d400096ff3700e0cf9f00e8fc2f000f044400ff
:102d50001900200091ff3700e0cf9f000e0cb30058
:102d60000170200081006700700067000100e00032
:102d7000180232000ec8a3000200320061002000d9
:102d8000e1b79f000000e000050032001fb097008f
:102d90004003be004002be0090b79f00060037000f
:102da0001fb197004200be0092b79f004ffc070082
:102db0000002be000203be00a4b79f00b5b79f008b
:102dc000c6b79f00d7b79f006022b8006033b80035
:102dd0002fb09700bfb097004fb19700dfb19700b9
:102de00094fb07000000e0000a003d002fb09700b0
:102df000bfb097004fb19700dfb1970003f0a2007a
:102e0000a0b79f00b1b79f00c2b79f00d3b79f0084
:102e10003e00b3000000eb0090af9f006022b800be
:102e20006033b8002fb09700bfb097004fb1970044
:102e3000dfb19700e3fb07000000e0003400320040
:102e400024fd2f000f0242002fb09700bfb0970063
:102e50004fb19700dfb1970076fc07001fa89700dd
:102e60000000e9006302b900a2002000110009007f
:102e70000202d80090af9f000000e00002003d0079
:102e80000000e90090af9f001fac97000840ea00e7
:102e90000dfe07002fb29700bfb297004fb3970007
:102ea000dfb3970080fc07000002be000203be00f3
:102eb000d4af9f00e5af9f00f6af9f0087b79f009c
:102ec0006022b8000600200007ff230059fb07001e
:102ed0000000e00002003d000804e9000b0037009c
:102ee0006022b80006002000470224005fa8970077
:102ef000efa897007fa997008fb1970052fb0700ba
:102f00000000e000020035000804e80098af9f00d0
:102f1000efb29700ec8f52000f003c0005407800a4
:102f20008cfd07000002be000203be002fb0970018
:102f3000bfb097004fb19700dfb19700c0fa07000c
:102f40000002be000203be00a4b79f00b5b79f00f9
:102f5000c6b79f00d7b79f001fac9700e90f54007a
:102f600015003c006022b8006033b8002fb0970015
:102f7000bfb097004fb19700dfb1970091fb0700fa
:102f80000000e000310032002fb09700bfb0970082
:102f90004fb19700dfb19700f3fb0700e00f50003f
:102fa000e08f5800e00f5900e08f590027003a00e9
:102fb000e10f5400250034000400200005002e001d
:102fc000b6e02200170124005fa89700efa8970041
:102fd0007fa997008fb1970016fb07000000e00063
:102fe00002003d00690454000100370068045400e9
:102ff00098af9f002fd09700b3fd07000002be00de
:103000000203be00d4af9f00e5af9f00f6af9f0064
:1030100087b79f002fb09700bfb097004fb19700c0
:10302000dfb197000dfb0700cffb07000004be00d7
:103030006000b8006011b800a0b79f00b1b79f0052
:10304000c2b79f00d3b79f00160037002fb097007c
:10305000bfb097004fb19700dfb19700c2fb0700e8
:103060000004be00f1fb07000002be000203be0028
:103070002fb09700bfb097004fb19700dfb1970016
:103080007efc07000002be000203be00a4b79f0042
:10309000b5b79f00c6b79f00d7b79f000000eb00f1
:1030a00090af9f008135220010c0b30005003700ab
:1030b000e4804000b10f5400a18f5c000300390090
:1030c0000040e800ea4f5000f9ff3a00e0cf9f00cf
:1030d0009fa8970081805500efb29700858050002f
:1030e0000005fb000a8550000500e00001003200e9
:1030f0000a05e90063006700010032000a05e900e3
:103100000e28a30039003200610167000e18a300e9
:103110000f0032003c0090000068a300060032005f
:10312000b10220000200e000010032008180e800ce
:103130000d0178000d003700b00220000200e00011
:10314000010032000080e8008c0078000e0037009b
:103150000200e000220032003c0090000068a30062
:10316000070032000d017800010220000c007800f9
:10317000b7fd07000000e00006003a001800370025
:103180008c00780000022000a9f90700e10f400040
:10319000130032008d06e800110037003c0090005b
:1031a0000068a300070032000d0178000103200031
:1031b0000c007800a6fd07000000e00006003a00c1
:1031c000060037008c0078000003200098f9070003
:1031d000e10f4000010032008d06e8000a05e90019
:1031e0000a00e000edff3c00570037000e38a30056
:1031f00014003a00110037003c0090000068a30062
:10320000070032000d017800010220000c00780058
:103210008ffd07000000e00006003a0006003700be
:103220008c0078000002200081f90700e10f4000c7
:10323000010032008d06e8000a05e9000a00e000fe
:10324000edff3c00610167000e18a3000e00320084
:103250003c0090000068a30005003200b10220008d
:103260000200e000220032008180e80020003700e8
:10327000b00220000200e000010032000080e800ff
:103280008c0078002c0037000200e0002e00320095
:103290003c0090000068a300030032000d0178009c
:1032a00001022000130037008c007800000220008b
:1032b000210037003c019000803522008100fb0096
:1032c0000268a30010003200c208dd008100400047
:1032d0001101be000800be00eafb0700a2002000aa
:1032e00003002000f7fb070001032000808040005e
:1032f0000d0178000c00780055fd07000000e0008b
:1033000010003a0010003700c208dd0081004000c4
:103310001101be000800be00dafb0700a200200079
:1033200003002000e7fb070002032000000141002a
:103330008c007800020078003df90700e10f4000a2
:10334000010032008d06e8006fc897008040e90058
:10335000e1cf9f000004e000d6ff3a0013003700e1
:103360003c0090000068a300070032000d017800c7
:10337000010320000c00780035fd07000000e0008c
:1033800006003a00060037008c0078000003200099
:1033900027f90700e10f4000010032008d06e80028
:1033a0001fa897000000e90090af9f001fa897009a
:1033b0000000e000eaff3c006fb39700e80f530005
:1033c0000300340080c0b300e0cf9f00020037004c
:1033d000cfeb9700e7cf9f006fc897008005fb00f9
:1033e000efb097008b8550000004e0001000320021
:1033f0003c0090000068a300070032000d01780037
:10340000e10220000c00780011fd07000000e00040
:1034100006003a00060037008c007800e002200029
:1034200003f90700e10f4000010032008d06e800bb
:103430006fc89700a4fc07000002be000203be0094
:103440002fb09700bfb097004fb19700dfb1970042
:1034500015fb0700c4fa07002d0037003c0190005f
:10346000813522000000fb000268a300100032003a
:103470004200dd00808040001101be000800be0057
:1034800080fb0700a2002000030020008dfb070046
:1034900001032000808040000d0178000c007800be
:1034a000ebfc07000000e00010003a0010003700bd
:1034b0004200dd00808040001101be000800be0017
:1034c00070fb0700a2002000030020007dfb070026
:1034d00002032000000141008c0078000200780007
:1034e000d3f80700e10f4000010032008d06e8002c
:1034f0006fc997000200fb004200dd008135220009
:10350000008040001001be000800be006dfb0700f7
:103510000004be00efc897000140e900e0cf9f0023
:103520000104e000cdff3a00110037003c0090009c
:103530000068a300070032000d017800010320009d
:103540000c007800c2fc07000000e00006003a0012
:10355000060037008c00780000032000b4f8070054
:10356000e10f4000010032008d06e8008b05e90004
:103570000b00e000edff3a000e38a300910132008d
:103580000a00e0008f0134003c0090000068a300b6
:10359000070032000d017800010220000c007800c5
:1035a000abfc07000000e00006003a000600370010
:1035b0008c007800000220009df80700e10f400019
:1035c000010032008d06e8000a05e900eeff3a002e
:1035d0007c0137008e007800010cb20011003a0027
:1035e0000000e000040032009fb197004304be00d9
:1035f00093b79f00040037001fb29700440478007f
:1036000094b79f00cfc4de00e00f5400e08f5c0051
:103610000e003d003e00b30060041400e0841c0076
:103620000a0037000000e000040032009fb297005b
:103630004504be0095b79f00040037001fb39700f4
:103640004604780096b79f008004eb00efb3970024
:103650000700e00006003a000880740000f0a700b0
:103660000000ea000000e9004f00de00e0b79f0024
:103670000e007800000cb200c0af9f0000042000d4
:10368000cfa89700808f50002300320003003c0039
:103690000100e000080032002d0037000008200083
:1036a0004fa99700800f51000d003200000c200040
:1036b000800f510026003a008135220010c0b3006f
:1036c000e4804000b10f5400a18f5c001f0039005e
:1036d0000040e800ea4f5000f9ff3a001b003700b5
:1036e00010c0b3000201200003002000820f54002c
:1036f000838f5c0015003900441add00cc11de0018
:10370000830172004411dd000040e800e84f5000e2
:10371000f6ff3a000d00370010c0b3008200200011
:1037200003002000820f5400838f5c0007003900e3
:10373000c31add00cd11de00838172004311dd006c
:103740000040e800eb4f5000f6ff3a00e0cf9f004a
:103750006fcb97000600fb00efb39700870f500078
:1037600002003d00e7cf9f0004003700efb0970054
:10377000808f500001003d00e0b79f000b00e0008b
:103780000300320063006700010032008b05e9008e
:103790000ee8a300060032006fb19700828f55003b
:1037a0000200340082855500010037008005eb00df
:1037b000efc997000300fb000002eb00a4b79f00d5
:1037c000808f55000200340000805500a0b79f0094
:1037d0000e28a3003c003200610167000e18a30010
:1037e0000f0032003c0090000068a3000600320089
:1037f000b10220000200e000010032008180e800f8
:103800000d0178000d003700b00220000200e0003a
:10381000010032000080e8008c0078000e003700c4
:103820000200e000100032003c0090000068a3009d
:10383000070032000d017800010220000c00780022
:1038400003fc07000000e00006003a000600370015
:103850008c00780000022000f5f70700e10f40001f
:10386000010032008d06e800afb297000500e000cd
:1038700052003200050578003c0090000068a3006b
:10388000070032000d017800010320000c007800d1
:10389000effb07000000e00006003a0006003700da
:1038a0008c00780000032000e1f70700e10f4000e2
:1038b000010032008d06e8000a05e900eeff3a003b
:1038c000aab79f003d0037002fb397000600e00025
:1038d000160032000e38a30014003a0006057800e6
:1038e0003c0090000068a300070032000d01780042
:1038f000010220000c007800d5fb07000000e0006a
:1039000006003a00060037008c0078000002200014
:10391000c7f70700e10f4000010032008d06e80004
:103920000a05e900eeff3a00aab79f0061016700af
:103930000e18a3000f0032003c0090000068a300a6
:1039400006003200b10220000200e0000100320057
:103950008180e8000d0178000d003700b0022000e2
:103960000200e000010032000080e8008c007800d6
:103970000e0037000200e000100032003c00900012
:103980000068a300070032000d017800010220004a
:103990000c007800aefb07000000e00006003a00d3
:1039a000060037008c00780000022000a0f7070016
:1039b000e10f4000010032008d06e800efb39700f0
:1039c0000702e9006320b90000017800a2af9f0060
:1039d0004222dd008035220000024200040578000a
:1039e000cfad97005c003700efb197008301e9008d
:1039f000e3b79f0000042000808f5500370032009d
:103a000003003c000b00e000070032003d003700df
:103a100000082000808f550020003200000c20009c
:103a2000808f550037003a000e48a3001000320086
:103a30001a02be000401be000800be00f4b79f00d9
:103a400085bf9f000ffa0700e0cf9f000000fb003a
:103a5000cf80de007fb297008fba97000401be00ce
:103a60001bfa07000004540081845c000700370043
:103a70001a017800110009000284d800a200200079
:103a8000110009000280d800e1cf9f006fca9700a3
:103a90000443b000e4cf9f001a003700f033220047
:103aa0000e58a30001003200e032220081352200ce
:103ab000810055000801be008100e90003003300c9
:103ac0008301d1000281d300fbff37006f01610049
:103ad00060417900e2cf9f000a0037000800be0075
:103ae000afaa97008502e900030033008100d100ee
:103af0000080d300fbff3700674060000043b00048
:103b0000e0cf9f00bc0090006fcb97000600fb0049
:103b10000168a300070032000d01780080007800e2
:103b20000c0078004afb07000000e00005003a00a6
:103b3000050037008c0078003df70700e10f4000da
:103b4000010032008d06e800afab9700e38353001d
:103b5000a7af9f00640555006fb097000000e0001c
:103b6000a1ff3a000e38a30016003200afb0970054
:103b70000100e00013003400010578003c009000d3
:103b80000068a300070032000d0178000102200048
:103b90000c0078002efb07000000e00006003a0051
:103ba000060037008c0078000002200020f7070094
:103bb000e10f4000010032008d06e8000a05e9002f
:103bc000eeff3a003fa9970012407800e0cf9f0037
:103bd0000004e00037fb3a000d0078004f07780042
:103be0004f06be004f05be004f04be006f02b1007d
:043bf00000000600cb
:020000040000fa
:103bf4000000000099c50000abce0000320b0000ad
:103c0400cfd80000561d000064160000fdd300004c
:103c140007f400009e310000ac3a000035ff0000bc
:103c2400c82c000051e9000063e20000fa270000fc
:103c340097ad00000e6800003c630000a5a60000dc
:103c440058750000c1b00000f3bb00006a7e00009c
:103c540090590000099c00003b970000a25200000c
:103c64005f810000c6440000f44f00006d8a00002c
:103c74002e5b0000b79e0000859500001c500000dc
:103c8400e1830000784600004a4d0000d38800001c
:103c940029af0000b06a0000826100001ba400008c
:103ca400e67700007fb200004db90000d47c00002c
:103cb400b9f6000020330000123800008bfd00002c
:103cc400762e0000efeb0000dde00000442500004c
:103cd400be02000027c7000015cc00008c090000bc
:103ce40071da0000e81f0000da14000043d100007c
:103cf400c5f300005c3600006e3d0000f7f80000dc
:103d04000a2b000093ee0000a1e50000382000001b
:103d1400c20700005bc2000069c90000f00c00008b
:103d24000ddf0000941a0000a61100003fd400002b
:103d3400525e0000cb9b0000f9900000605500002b
:103d44009d8600000443000036480000af8d00004b
:103d540055aa0000cc6f0000fe64000067a10000bb
:103d64009a72000003b7000031bc0000a87900007b
:103d7400eba80000726d000040660000d9a30000ab
:103d840024700000bdb500008fbe0000167b00004b
:103d9400ec5c00007599000047920000de570000bb
:103da40023840000ba410000884a0000118f0000fb
:103db4007c050000e5c00000d7cb00004e0e0000db
:103dc400b3dd00002a1800001813000081d600009b
:103dd4007bf10000e2340000d03f000049fa00000b
:103de400b42900002dec00001fe70000862200002b
:103df40013a200008a670000b86c000021a900002b
:103e0400dc7a000045bf000077b40000ee710000ca
:103e1400145600008d930000bf980000265d00003a
:103e2400db8e0000424b000070400000e98500007a
:103e3400840f00001dca00002fc10000b60400005a
:103e44004bd70000d2120000e019000079dc00001a
:103e540083fb00001a3e000028350000b1f000008a
:103e64004c230000d5e60000e7ed00007e280000aa
:103e74003df90000a43c0000963700000ff200005a
:103e8400f22100006be4000059ef0000c02a00009a
:103e94003a0d0000a3c8000091c30000080600000a
:103ea400f5d500006c1000005e1b0000c7de0000aa
:103eb400aa54000033910000019a0000985f0000aa
:103ec400658c0000fc490000ce42000057870000ca
:103ed400ada0000034650000066e00009fab00003a
:103ee40062780000fbbd0000c9b6000050730000fa
:103ef400d65100004f9400007d9f0000e45a00005a
:103f040019890000804c0000b24700002b82000099
:103f1400d1a50000486000007a6b0000e3ae000009
:103f24001e7d000087b80000b5b300002c760000a9
:103f340041fc0000d8390000ea32000073f70000a9
:103f44008e24000017e1000025ea0000bc2f0000c9
:103f540046080000dfcd0000edc600007403000039
:103f640089d0000010150000221e0000bbdb0000f9
:103f7400f80a000061cf000053c40000ca01000029
:103f840037d20000ae1700009c1c000005d90000c9
:103f9400fffe0000663b000054300000cdf5000039
:103fa40030260000a9e300009be80000022d000079
:103fb4006fa70000f6620000c46900005dac000059
:103fc400a07f000039ba00000bb100009274000019
:103fd40068530000f1960000c39d00005a58000089
:103fe400a78b00003e4e00000c45000095800000a9
:103ff4000a2d00002d2d00002d2d00005465000019
:104004006d70000020420000616e00006b20000013
:10401400412000004d6f000064200000312d00009d
:104024002d2d00002d000000546500006d7000006f
:10403400206600006f72000020490000433a00002f
:1040440025690000206100006e6400002053000018
:10405400656e0000736f000072200000233a0000b8
:1040640025690000203d0000256600000a000000cc
:104074000a2d00002d2d00002d2d00005465000098
:104084006d70000020420000616e00006b20000093
:10409400412000004d6f000064200000322d00001c
:1040a4002d2d00002d0000000a2d00002d2d0000f4
:1040b4002d2d0000546500006d70000020420000aa
:1040c400616e00006b200000412000004d6f000075
:1040d40064200000332d00002d2d00002d00000071
:1040e4000a2d00002d2d00002d2d00005465000028
:1040f4006d70000020420000616e00006b20000023
:10410400422000004d6f000064200000312d0000ab
:104114002d2d00002d0000000a2d00002d2d000083
:104124002d2d0000546500006d7000002042000039
:10413400616e00006b200000422000004d6f000003
:1041440064200000322d00002d2d00002d00000001
:104154000a2d00002d2d00002d2d000054650000b7
:104164006d70000020420000616e00006b200000b2
:10417400422000004d6f000064200000332d000039
:104184002d2d00002d0000000a2d00002d2d000013
:104194002d2d0000566f00006c74000020420000ba
:1041a400616e00006b200000412000004d6f000094
:1041b40064200000312d00002d2d00002d00000092
:1041c400546f0000746100006c2000004d6f00000b
:1041d40064200000566f00006c74000061670000ea
:1041e40065200000666f0000722000004d6f000023
:1041f400647500006c650000202500006920000043
:10420400697300003a200000256600000a000000df
:10421400426100007474000065720000792000009f
:10422400566f00006c740000616700006520000098
:10423400666f000072200000494300003a25000028
:1042440069200000616e00006420000053650000d6
:104254006e7300006f720000202300003a250000f6
:10426400692000003d250000660a0000000a0000e5
:104274002d2d00002d2d00002d5600006f6c000028
:1042840074200000426100006e6b000020410000b9
:10429400204d00006f640000203200002d2d00002e
:1042a4002d2d0000000a00002d2d00002d2d0000f2
:1042b4002d5600006f6c0000742000004261000065
:1042c4006e6b000020410000204d00006f64000070
:1042d400203300002d2d00002d2d0000000a0000c9
:1042e4002d2d00002d2d00002d5600006f6c0000b8
:1042f40074200000426100006e6b00002042000048
:10430400204d00006f640000203100002d2d0000be
:104314002d2d0000000a00002d2d00002d2d000081
:104324002d5600006f6c00007420000042610000f4
:104334006e6b000020420000204d00006f640000fe
:10434400203200002d2d00002d2d0000000a000059
:104354002d2d00002d2d00002d5600006f6c000047
:1043640074200000426100006e6b000020420000d7
:10437400204d00006f640000203300002d2d00004c
:104384002d2d0000004300005320000031200000c8
:10439400432b0000203d0000202000002566000083
:1043a4000a000000435300002031000020430000b5
:1043b4002d2000003d20000020250000660a00009a
:1043c400005600006f6c0000746100006765000017
:1043d40020310000203d0000202000002566000060
:1043e4000a000000566f00006c7400006167000052
:1043f40065200000322000003d2000002025000040
:10440400660a00000041000044430000203200001e
:10441400202d00002041000064640000726500004b
:1044240073730000203d000020000000416c000078
:10443400696700006e20000045720000726f000082
:104444007220000042310000004100006c6900004d
:10445400676e000020450000727200006f72000059
:104464002042000031200000007c00002d2d0000bf
:104474002d2d00002d4d0000616900006e2000000c
:104484004d6500006e7500002d2d00002d2d0000df
:104494002d2d00007c2000000031000029200000a8
:1044a4004164000064720000657300007320000022
:1044b4006f6e00002042000075730000732000003e
:1044c40041200000262000004200000032290000a4
:1044d4002043000075720000726500006e740000d5
:1044e400206100006e640000205000006163000041
:1044f4006b200000566f00006c74000061670000c0
:10450400650000003329000020540000656d0000a0
:104514007000000034290000205600006f6c000079
:104524007461000067650000202d00002042000037
:1045340079700000617300007300000035290000e9
:1045440020450000727200006f72000073000000ca
:1045540036290000204d000061780000207300001f
:1045640074610000746900007374000069630000e2
:10457400730000002a2a00002a2a00002a2a0000c8
:104584004e4f0000204d000061740000636800007d
:104594002a2a00002a2a00002a0000007c2d00009c
:1045a4002d2d00002d4100006464000072650000a0
:1045b40073730000206f00006e200000427500003d
:1045c40073730000204100002026000020420000f8
:1045d4002d2d00002d2d00007c0000004261000004
:1045e4006e6b0000204100003a20000000410000f2
:1045f40064640000726500007373000020250000ed
:10460400642000003d2000004e4f00000a0000001e
:10461400426100006e6b0000204200003a0000007e
:104624007c2d00002d2d00002d4300002061000092
:104634006e640000205600002050000072690000e3
:104644006e7400002d2d00002d2d00007c00000054
:104654007c2d00002d2d00002d560000204d000063
:104664006f640000756c000065200000507200004b
:10467400696e0000742d00002d2d00002d7c0000bb
:10468400007c00002d2d00005768000061740000bc
:10469400204d00006f640000756c00006520000070
:1046a400283100002d360000292d00002d7c00004b
:1046b400004d00006f640000756c00006520000070
:1046c400256400002069000073200000616300007d
:1046d4007469000076650000210000007c2d000054
:1046e4002d2d00002d540000204d00006f640000ab
:1046f400756c00006520000050720000696e0000b7
:10470400742d00002d2d00002d7c0000007c000085
:104714002d2d00002d460000756300006b6900001c
:104724006e67000020450000727200006f72000086
:10473400732d00002d2d00002d7c0000007c000056
:104744002d2d000057540000462000006861000031
:1047540070700000656e0000656400002e2e00007d
:104764002e2e00002e2d00002d7c0000007c000069
:104774002d2d00002d2d00004578000074720000de
:10478400656d000065200000546500006d70000038
:10479400657200006174000075720000652d0000f0
:1047a4002d2d00002d7c0000001b00005b3200005a
:1047b4004a0000001b5b0000480000000a5400008f
:1047c40068650000204d0000696e0000696d0000fe
:1047d400756d0000205600006f6c000074610000cd
:1047e40067650000206900006e2000007468000006
:1047f4006973000020620000616e00006b200000fd
:10480400697300003a200000256600002061000062
:1048140074200000494300002025000066200000a9
:10482400616e000064200000736500006e73000078
:104834006f72000020250000660a0000005400008a
:1048440068650000204d000061780000696d00007b
:10485400756d0000205600006f6c0000746100004c
:1048640067650000206900006e2000007468000085
:104874006973000020620000616e00006b2000007c
:10488400697300003a2000002566000020610000e2
:104894007420000049430000202500006620000029
:1048a400616e000064200000736500006e730000f8
:1048b4006f72000020250000660a00000a00000054
:1048c4000a54000068650000204d0000696e000075
:1048d400696d0000756d000020540000656d0000d6
:1048e400706500007261000074750000726500005c
:1048f400206900006e2000007468000069730000e5
:1049040020620000616e00006b20000069730000eb
:104914003a20000025660000206100007420000099
:10492400494300002025000066200000616e00005d
:1049340064200000736500006e7300006f72000055
:1049440020250000660a000000540000686500008d
:10495400204d000061780000696d0000756d000055
:1049640020540000656d0000706500007261000055
:104974007475000072650000206900006e2000005c
:10498400746800006973000020620000616e00001a
:104994006b200000697300003a20000025660000c7
:1049a400206100007420000049430000202500001d
:1049b40066200000616e0000642000007365000042
:1049c4006e7300006f72000020250000660a00006c
:1049d4000a0000000000000099c50000abce0000f2
:1049e400320b0000cfd80000561d000064160000f2
:1049f400fdd3000007f400009e310000ac3a000033
:104a040035ff0000c82c000051e9000063e20000fb
:104a1400fa27000097ad00000e6800003c63000018
:104a2400a5a6000058750000c1b00000f3bb00004b
:104a34006a7e000090590000099c00003b9700002a
:104a4400a25200005f810000c6440000f44f000041
:104a54006d8a00002e5b0000b79e00008595000063
:104a64001c500000e1830000784600004a4d00001d
:104a7400d388000029af0000b06a00008261000002
:104a84001ba40000e67700007fb200004db90000cf
:104a9400d47c0000b9f60000203300001238000076
:104aa4008bfd0000762e0000efeb0000dde000003f
:104ab40044250000be02000027c7000015cc0000fa
:104ac4008c09000071da0000e81f0000da1400000d
:104ad40043d10000c5f300005c3600006e3d0000c9
:104ae400f7f800000a2b000093ee0000a1e5000097
:104af40038200000c20700005bc2000069c9000042
:104b0400f00c00000ddf0000941a0000a611000054
:104b14003fd40000525e0000cb9b0000f9900000df
:104b2400605500009d8600000443000036480000e4
:104b3400af8d000055aa0000cc6f0000fe64000099
:104b440067a100009a72000003b7000031bc0000a6
:104b5400a8790000eba80000726d00004066000018
:104b6400d9a3000024700000bdb500008fbe000072
:104b7400167b0000ec5c0000759900004792000071
:104b8400de57000023840000ba410000884a000078
:104b9400118f00007c050000e5c00000d7cb0000a9
:104ba4004e0e0000b3dd00002a18000018130000a8
:104bb40081d600007bf10000e2340000d03f000009
:104bc40049fa0000b42900002dec00001fe70000a2
:104bd4008622000013a200008a670000b86c00005f
:104be40021a90000dc7a000045bf000077b4000072
:104bf400ee710000145600008d930000bf98000071
:104c0400265d0000db8e0000424b00007040000077
:104c1400e9850000840f00001dca00002fc10000b8
:104c2400b60400004bd70000d2120000e0190000c7
:104c340079dc000083fb00001a3e000028350000e8
:104c4400b1f000004c230000d5e60000e7ed0000c1
:104c54007e2800003df90000a43c000096370000c7
:104c64000ff20000f22100006be4000059ef000095
:104c7400c02a00003a0d0000a3c8000091c3000040
:104c840008060000f5d500006c1000005e1b000053
:104c9400c7de0000aa54000033910000019a00000e
:104ca400985f0000658c0000fc490000ce420000c3
:104cb40057870000ada0000034650000066e0000b8
:104cc4009fab000062780000fbbd0000c9b6000085
:104cd40050730000d65100004f9400007d9f0000e7
:104ce400e45a000019890000804c0000b24700001b
:104cf4002b820000d1a50000486000007a6b000000
:104d0400e3ae00001e7d000087b80000b5b30000cc
:104d14002c76000041fc0000d8390000ea32000083
:104d240073f700008e24000017e1000025ea00005c
:104d3400bc2f000046080000dfcd0000edc60000d7
:104d44007403000089d0000010150000221e00002a
:104d5400bbdb0000f80a000061cf000053c4000070
:104d6400ca01000037d20000ae1700009c1c0000ee
:104d740005d90000fffe0000663b0000543000002f
:104d8400cdf5000030260000a9e300009be80000f8
:104d9400022d00006fa70000f6620000c469000045
:104da4005dac0000a07f000039ba00000bb1000028
:104db4009274000068530000f1960000c39d000047
:104dc4005a580000a78b00003e4e00000c4500001e
:104dd400958000000000000099c50000abce0000e3
:104de400320b0000cfd80000561d000064160000ee
:104df400fdd3000007f400009e310000ac3a00002f
:104e040035ff0000c82c000051e9000063e20000f7
:104e1400fa27000097ad00000e6800003c63000014
:104e2400a5a6000058750000c1b00000f3bb000047
:104e34006a7e000090590000099c00003b97000026
:104e4400a25200005f810000c6440000f44f00003d
:104e54006d8a00002e5b0000b79e0000859500005f
:104e64001c500000e1830000784600004a4d000019
:104e7400d388000029af0000b06a000082610000fe
:104e84001ba40000e67700007fb200004db90000cb
:104e9400d47c0000b9f60000203300001238000072
:104ea4008bfd0000762e0000efeb0000dde000003b
:104eb40044250000be02000027c7000015cc0000f6
:104ec4008c09000071da0000e81f0000da14000009
:104ed40043d10000c5f300005c3600006e3d0000c5
:104ee400f7f800000a2b000093ee0000a1e5000093
:104ef40038200000c20700005bc2000069c900003e
:104f0400f00c00000ddf0000941a0000a611000050
:104f14003fd40000525e0000cb9b0000f9900000db
:104f2400605500009d8600000443000036480000e0
:104f3400af8d000055aa0000cc6f0000fe64000095
:104f440067a100009a72000003b7000031bc0000a2
:104f5400a8790000eba80000726d00004066000014
:104f6400d9a3000024700000bdb500008fbe00006e
:104f7400167b0000ec5c000075990000479200006d
:104f8400de57000023840000ba410000884a000074
:104f9400118f00007c050000e5c00000d7cb0000a5
:104fa4004e0e0000b3dd00002a18000018130000a4
:104fb40081d600007bf10000e2340000d03f000005
:104fc40049fa0000b42900002dec00001fe700009e
:104fd4008622000013a200008a670000b86c00005b
:104fe40021a90000dc7a000045bf000077b400006e
:104ff400ee710000145600008d930000bf9800006d
:10500400265d0000db8e0000424b00007040000073
:10501400e9850000840f00001dca00002fc10000b4
:10502400b60400004bd70000d2120000e0190000c3
:1050340079dc000083fb00001a3e000028350000e4
:10504400b1f000004c230000d5e60000e7ed0000bd
:105054007e2800003df90000a43c000096370000c3
:105064000ff20000f22100006be4000059ef000091
:10507400c02a00003a0d0000a3c8000091c300003c
:1050840008060000f5d500006c1000005e1b00004f
:10509400c7de0000aa54000033910000019a00000a
:1050a400985f0000658c0000fc490000ce420000bf
:1050b40057870000ada0000034650000066e0000b4
:1050c4009fab000062780000fbbd0000c9b6000081
:1050d40050730000d65100004f9400007d9f0000e3
:1050e400e45a000019890000804c0000b247000017
:1050f4002b820000d1a50000486000007a6b0000fc
:10510400e3ae00001e7d000087b80000b5b30000c8
:105114002c76000041fc0000d8390000ea3200007f
:1051240073f700008e24000017e1000025ea000058
:10513400bc2f000046080000dfcd0000edc60000d3
:105144007403000089d0000010150000221e000026
:10515400bbdb0000f80a000061cf000053c400006c
:10516400ca01000037d20000ae1700009c1c0000ea
:1051740005d90000fffe0000663b0000543000002b
:10518400cdf5000030260000a9e300009be80000f4
:10519400022d00006fa70000f6620000c469000041
:1051a4005dac0000a07f000039ba00000bb1000024
:1051b4009274000068530000f1960000c39d000043
:1051c4005a580000a78b00003e4e00000c4500001a
:1051d400958000000000000099c50000abce0000df
:1051e400320b0000cfd80000561d000064160000ea
:1051f400fdd3000007f400009e310000ac3a00002b
:1052040035ff0000c82c000051e9000063e20000f3
:10521400fa27000097ad00000e6800003c63000010
:10522400a5a6000058750000c1b00000f3bb000043
:105234006a7e000090590000099c00003b97000022
:10524400a25200005f810000c6440000f44f000039
:105254006d8a00002e5b0000b79e0000859500005b
:105264001c500000e1830000784600004a4d000015
:10527400d388000029af0000b06a000082610000fa
:105284001ba40000e67700007fb200004db90000c7
:10529400d47c0000b9f6000020330000123800006e
:1052a4008bfd0000762e0000efeb0000dde0000037
:1052b40044250000be02000027c7000015cc0000f2
:1052c4008c09000071da0000e81f0000da14000005
:1052d40043d10000c5f300005c3600006e3d0000c1
:1052e400f7f800000a2b000093ee0000a1e500008f
:1052f40038200000c20700005bc2000069c900003a
:10530400f00c00000ddf0000941a0000a61100004c
:105314003fd40000525e0000cb9b0000f9900000d7
:10532400605500009d8600000443000036480000dc
:10533400af8d000055aa0000cc6f0000fe64000091
:1053440067a100009a72000003b7000031bc00009e
:10535400a8790000eba80000726d00004066000010
:10536400d9a3000024700000bdb500008fbe00006a
:10537400167b0000ec5c0000759900004792000069
:10538400de57000023840000ba410000884a000070
:10539400118f00007c050000e5c00000d7cb0000a1
:1053a4004e0e0000b3dd00002a18000018130000a0
:1053b40081d600007bf10000e2340000d03f000001
:1053c40049fa0000b42900002dec00001fe700009a
:1053d4008622000013a200008a670000b86c000057
:1053e40021a90000dc7a000045bf000077b400006a
:1053f400ee710000145600008d930000bf98000069
:10540400265d0000db8e0000424b0000704000006f
:10541400e9850000840f00001dca00002fc10000b0
:10542400b60400004bd70000d2120000e0190000bf
:1054340079dc000083fb00001a3e000028350000e0
:10544400b1f000004c230000d5e60000e7ed0000b9
:105454007e2800003df90000a43c000096370000bf
:105464000ff20000f22100006be4000059ef00008d
:10547400c02a00003a0d0000a3c8000091c3000038
:1054840008060000f5d500006c1000005e1b00004b
:10549400c7de0000aa54000033910000019a000006
:1054a400985f0000658c0000fc490000ce420000bb
:1054b40057870000ada0000034650000066e0000b0
:1054c4009fab000062780000fbbd0000c9b600007d
:1054d40050730000d65100004f9400007d9f0000df
:1054e400e45a000019890000804c0000b247000013
:1054f4002b820000d1a50000486000007a6b0000f8
:10550400e3ae00001e7d000087b80000b5b30000c4
:105514002c76000041fc0000d8390000ea3200007b
:1055240073f700008e24000017e1000025ea000054
:10553400bc2f000046080000dfcd0000edc60000cf
:105544007403000089d0000010150000221e000022
:10555400bbdb0000f80a000061cf000053c4000068
:10556400ca01000037d20000ae1700009c1c0000e6
:1055740005d90000fffe0000663b00005430000027
:10558400cdf5000030260000a9e300009be80000f0
:10559400022d00006fa70000f6620000c46900003d
:1055a4005dac0000a07f000039ba00000bb1000020
:1055b4009274000068530000f1960000c39d00003f
